:020000040000fa
:10000000f8ff0320d1430000ef4a0000ab5400008a
:100010001f5f00001f6300002f650000000000004c
:100020000000000000000000000000006168000007
:100030002f5e000000000000e14d00005d65000043
:100040004f4600004f4600004f4600004f4600005c
:100050004f4600004f4600004f4600004f4600004c
:100060004f4600004f4600004f4600004f4600003c
:100070004f4600005d6900007d6900004f460000aa
:100080004f4600009d690000bd690000dd69000069
:10009000e96700000d68000031680000616600003b
:1000a0004f4600004f4600004f4600004f460000fc
:1000b0004f4600004f4600004f4600004f460000ec
:1000c0004f4600004f4600004f4600004f460000dc
:1000d0004f4600004f4600004f4600004f460000cc
:1000e0004f4600004f4600000000000000000000e6
:1000f000000000004f4600004f4600004f46000041
:100100004f4600004f4600004d5300004d53000085
:100110004d5300004d5300009d5200009d520000c1
:100120009d5200009d520000192400001924000077
:1001300019240000192400004f4600004f4600001b
:100140004f4600004f4600004f4600004f4600005b
:100150004f4600004f460000455200004552000047
:100160004552000045520000ed510000ed510000e5
:10017000ed510000ed5100004f4600004f460000d9
:100180004f4600004f4600004f4600004f4600001b
:10019000000000004f4600004f4600004f460000a0
:1001a0004f4600004f4600004f4600004f460000fb
:1001b0004f4600004f4600004f4600004f460000eb
:1001c0004f4600004f4600004f4600004f460000db
:1001d0004f4600004f4600004f4600004f460000cb
:1001e0004f4600004f4600004f4600004f460000bb
:1001f0004f4600004f4600004f4600004f460000ab
:100200004f4600004f4600004f4600004f4600009a
:100210004f4600004f4600004f4600004f4600008a
:100220004f4600004f4600004f4600004f4600007a
:100230004f4600004f4600004f4600004f4600006a
:100240004f4600004f4600004f4600004f4600005a
:100250004f4600004f4600004f4600004f4600004a
:020000040000fa
:10026000f8b500bff8bc08bc9e467047155b00009f
:10027000f8b500bff8bc08bc9e467047f15a0000b4
:020000040000fa
:08028000d4160000010000008b
:020000040000fa
:1002880008fa00201c0000000000000040f70020d1
:10029800c000000000000000dcf900202c00000075
:1002a800000000001cf900203000000000000000e1
:1002b8004cf9002030000000000000007cf900200c
:1002c800300000000000000088fc0020040000004e
:1002d80001000000aaaaaaaac0fa0020040000008f
:1002e800000000000000002020ee000000000000d8
:1002f800c4fa00200400000000000000c8fa002032
:100308000400000000000000ccfa002004000000f7
:1003180000000000d0fa00200400000000000000e7
:10032800b0fa00200800000000000000d4fa002005
:100338000400000000000000d8fa002004000000bb
:100348000000000024fa0020140000000000000053
:1003580038fa00201400000000000000dcfa002039
:100368000400000000000000e0fa00200400000083
:1003780000000000e4fa0020040000000000000073
:10038800e8fa00200400000000000000ecfa002059
:100398000400000000000000f0fa00200400000043
:1003a8000000000000f800206400000000000000c9
:1003b800f4fa00200400000000000000f8fa002011
:1003c8000400000000000000fcfa00200400000007
:1003d8000000000000fb00200400000000000000f6
:1003e80004fb002004000000000000004cfa00207c
:1003f800140000000000000060fa00201400000053
:100408000000000008fb00200400000000000000bd
:100418000cfb0020040000000000000010fb00207e
:10042800040000000000000014fb0020040000008d
:100438000000000074fa0020140000000000000012
:1004480018fb0020040000000000000088fa0020cb
:1004580014000000000000009cfa002014000000b6
:10046800000000001cfb0020040000000000000049
:1004780020fb002004000000000000008cfc00208d
:1004880004000000010000000400000024fb00201c
:10049800040000000000000028fb00200400000009
:1004a800000000003cf600200401000000000000ed
:1004b8002cfb0020040000000000000030fb00209e
:1004c800040000000000000034fb002004000000cd
:1004d8000000000034f400200802000000000000c2
:1004e80038fb002004000000000000003cfb002056
:1004f800040000000000000040fb00200400000091
:100508000000000044fb0020040000000000000080
:10051800b4f80020320000000000000048fb002072
:1005280004000000000000004cfb00200400000054
:100538000000000050fb0020040000000000000044
:1005480054fb00200400000000000000e8f8002030
:10055800320000000000000058fb002004000000ea
:10056800000000005cfb0020040000000000000008
:1005780060fb0020040000000000000064fb002075
:10058800040000000000000068fb002004000000d8
:10059800000000006cfb00200400000000000000c8
:1005a800e6f80020010000000000000070fb0020b9
:1005b800040000000000000074fb0020040000009c
:1005c8000000000078fb002004000000000000008c
:1005d8007cfb0020040000000000000080fb0020dd
:1005e8000400000000000000e7f8002001000000ff
:1005f8000000000084fb0020040000000000000050
:1006080088fb002004000000000000001af9002008
:1006180001000000010000000f000000acf90020fc
:1006280030000000000000008cfb002004000000e7
:100638000000000064f800205000000000000000e6
:100648009cfb00206c00000001000000a8fb0020bb
:10065800a4fb0020a8fb00200000000025000000eb
:1006680028ee002000040000000000000000000048
:100678000000000000000000000000000000000072
:1006880000000000000000003d3e000000000000e7
:10069800000000000000000000000000654f00009e
:1006a8000000000000000000000000000000000042
:1006b800000000000000000020ee002008040000f8
:1006c8000000000068fc002020000000010000007d
:1006d800010000000300000000000000000000000e
:1006e800000000000000000000000000b8fa002030
:1006f800b8fa0020080000000000000090fb00206d
:10070800040000000000000094fb0020040000002a
:100718000000000028f200200c0200000000000089
:1007280008fc00206000000001000000010000003b
:1007380003000000000000000000000000000000ae
:1007480000000000000000009151000000000000bf
:100758000000000000000000176f0000176b000089
:100768000000000000000000000000000000000081
:100778000000000000000000000000000000000071
:1007880000000000000000000000000098fb0020ae
:10079800040000000000000000000000000000004d
:020000040000fa
:1007a8002de9f04f2ded028bd2e9008997b0cde904
:1007b8000c138b6808930b690f90d1e900b614935a
:1007c800cd68002200234046494605f085fc40b923
:1007d8001bf0040f32d11bf00803059330d02023ff
:1007e80003e089f0004399462d232b70089b03f101
:1007f800ff3a012305934c4929f0004300208b421e
:1008080008bf80451fd10d9b413b192b059b94bf09
:10081800464947492b44184606f058fb284606f037
:10082800fbfacdf800b00246089b0f98294603f062
:100838000ffe17b0bdec028bbde8f08f2b23d4e779
:10084800ddf820a0d7e7994208bf404509d20d9ba3
:10085800413b192b059b94bf364937492b44184611
:10086800dae7002200234046494605f03bfd9fedac
:100878002c7b8ded027b48b300240d9806f0dcfa42
:10088800002ec3b20993c0f2e781672b5ad1002e1c
:1008980008bf0126231d02dbb442c0f2ca816527c6
:1008a80061e09ded067b8ded027b01340022234b38
:1008b800dde9020102f0f4fa42464b46cde90601b1
:1008c80005f0eefb0028ecd000271fe00446ede71a
:1008d80014f5967f11da87b90022194b404649462c
:1008e80002f0defa002280468946154bdde9020156
:1008f80002f0d6facde902010127dde90201002262
:100908000e4b01f0a0facde90201013cdde902231a
:100918004046494605f0e0fb0028d9d1ade700bfc5
:10092800000000000000f03f0000f07ff06d0000c4
:10093800f46d0000f86d0000fc6d0000000024401c
:1009480000005043099f662f06f101060bd1002cc9
:1009580004da9fedbb7b8ded027b0024099b672b9e
:1009680018bf361966279ded027bcde906898ded06
:100978000a7b00230e93dde90a23dde9060101f075
:1009880062fa41ec100b02f093ff51ec100bb0ee41
:10099800408af0ee608a04f0b0ffb0ee480af0ee4c
:1009a800680a069b1093079b159083f000431193e8
:1009b8009ded0a1b9ded102b05f0f8fd53ec102b57
:1009c80083f000430793dde90a01a14b8ded060a88
:1009d800002201f038fa0e9b01339e42cde90a014c
:1009e8000e93c8d100229b4b02f05afacde90a01b6
:1009f80002460b46dde9060105f06efb002840f0d3
:100a08008580dde90a23dde9060105f06bfc10b1fc
:100a1800159bda077ad5dde90a234046494601f0f5
:100a2800f3f80022cde90601894bdde9020102f065
:100a380037fadde90623cde90a0105f031fa002885
:100a480069d0662f04f1010469d10136a146a9ebea
:100a5800060310934ff000080bf01003059ecdf825
:100a680008801593109b994540f08380029b002bca
:100a780000f0c9800022652f05eb0600aa5529d190
:100a8800149b1499013b9442ea54c1f1030ebcbf74
:100a9800644201220a21002c40f0bc800eeb030cba
:100aa800bcf1000f00f3b680002a03f1ff3114bf38
:100ab8002d222b226a540d9a413a023b192a98bfdb
:100ac80045279e4205eb0301ef54aaf1020a01da19
:100ad80006f0fcf90bf00303022b7ff49faebaf18a
:100ae800000f7ff79bae284606f096f905eb0a0340
:100af800059a824240f39980059b2b44184652463a
:100b0800302106f081f90023089387e69fed4e7b9c
:100b18008ded0a7b7fe79ded027b8ded0a7b652fce
:100b280014bfa1464ff0000991e7029a52b9b9f1f2
:100b3800000f07da0e992e226a54012201360af1b3
:100b4800ff3a029205eb0801aa19314403e04ff07d
:100b5800300002f8010b9142f9d108eb060230335c
:100b6800aaeb080808f1ff3a561cab544ff00008ee
:100b780027e00c9b0e961b69053bb3427ff676afc8
:100b8800dde90a23dde9060101f05df941ec100b0e
:100b980002f08efe51ec100bb0ee408af0ee608a47
:100ba80004f0abfe159a09280346a8bf092302439f
:100bb800bbd1099a672ab8d1b9f1000fc2da08f196
:100bc8000108069b1293079bb0ee480af0ee680aec
:100bd80083f0004313939ded0a1b9ded122b05f046
:100be800e5fc53ec102b83f000430793dde90a0181
:100bf8000022174b8ded060a01f025f909f1ff399e
:100c0800cde90a012ee71bf0100f1ebf2e23ab55ae
:100c180001362fe7b4fbf1fc013b01fb1c443034e7
:100c2800ec540af1ff3a644635e72a5c1a54013855
:100c38005ee7002cbff696ae662784e6062629e610
:100c4800000000000000f03f00000000000000006d
:100c58000000244000001440099b672beed01f467b
:040c6800062670e606
:020000040000fa
:100c6c002de9804883b0002003f074ff0021ae48ca
:100c7c0005f0eafd0021ad4806f0f0f80021ac4883
:100c8c0006f0e6f80021ab4806f018f90022aa4954
:100c9c000a2005f03ffb0022a8490b2005f03afb87
:100cac000022a749012005f035fb0022a5490220ae
:100cbc0005f030fb0022a449072005f02bfb002295
:100ccc00a249082005f026fb0022a149092005f0c5
:100cdc0021fb00229f49052005f01cfb00229e49a8
:100cec00062005f017fb00224ff48071012004f060
:100cfc00ddfd9a4b186000223221012004f0d6fd54
:100d0c00974b186000224ff48071012004f0cefd47
:100d1c00944b186000220121084604f0c7fd924b49
:100d2c00186000220121084604f0c0fd8f4b1860aa
:100d3c008f4d904b009300231a464ff47a7105f5b2
:100d4c00ea7004f045fe8c4b18608c4b0193012427
:100d5c0000940023802205f5f071894801f07cf99c
:100d6c0005f5fa76dff88cb2cdf804b000940023c8
:100d7c004ff400723146834801f06ef9dff8789237
:100d8c00cdf80490009400234ff4007231467e4855
:100d9c0001f062f97d4b0193009400234ff4007233
:100dac0005f503717a4801f057f9dff850a2cdf838
:100dbc0004a0009400234ff4007205f50a717548e5
:100dcc0001f04af9744a019200940023802205f53f
:100ddc001271724801f040f971490191009400239d
:100dec004ff4807205f517716e4801f035f96e48b5
:100dfc00019000940023802205f51c716b4801f0d2
:100e0c002bf905f521766a4f0197009400234ff4d6
:100e1c0000723146674801f01ff9674f0197009443
:100e2c0000234ff400723146644801f015f9644e0a
:100e3c00019600940023802205f52771614801f08a
:100e4c000bf9614b0193009400234ff4007205f5ec
:100e5c002d715e4801f000f9dff8a481cdf8048013
:100e6c00009400234ff4807205f53271584801f05c
:100e7c00f3f8584f0197009400234ff4807205f556
:100e8c003971554801f0e8f8544e0196009400234e
:100e9c004ff4807205f53f71514801f0ddf80221e5
:100eac00504804f03ffe64214f4804f07bfe1421af
:100ebc004e4804f057fe0f214d4804f053ffdbf869
:100ecc00000002f08bfcdaf8000002f087fcd9f885
:100edc00000002f083fc2d4b186802f07ffc2e4ab8
:100eec00106802f07bfc2e49086802f077fc2e4853
:100efc00006802f073fc2e4b186802f06ffc2e4b4e
:100f0c00186802f06bfc2e4b186802f067fcd8f8de
:100f1c00000002f063fc386802f060fc306802f0fc
:100f2c005dfc03f031fdfee7a16d0000b16d00002a
:100f3c00d16d0000c16d000085620000516200009f
:100f4c002d420000a1410000154100008940000025
:100f5c00054d0000f1680000cd68000030fb00205a
:100f6c0040fb002024fb002068fb002064fb0020d9
:100f7c0050130000996e000080fb00207cfb0020c9
:100f8c003d350000715c00005d6a00002cfb002008
:100f9c007d6a0000a56e000074fb0020b16e00009d
:100fac0070fb0020893900003cfb0020bd6e000066
:100fbc0044fb00200167000048fb00209d6a0000f4
:100fcc0050fb00209d3d00006cfb00201110000028
:100fdc00413e00005cfb0020892a000060fb0020e1
:100fec00b942000034f400203cf60020b4f8002094
:100ffc00e8f8002034fb002038fb002028fb002000
:04100c0054fb002071
:020000040000fa
:10101000f0b583b04ff6ff76ca4d0024ca4fcae040
:101020004ff6ff7004f084fe2146204604f040fe97
:1010300022466946c54b186802f07cf9002800f08a
:10104000b7809df800300c2b00f2b280dfe813f07f
:10105000a800de00e700f000fa0003010d0117010f
:1010600021012b0135013f014901204604f060feba
:101070004ff6ff71204604f01bfed9e7204604f02e
:1010800057fe21464ff6ff7004f012fed0e74ff6f0
:10109000ff7004f04dfe4ff6ff71204604f008fe8d
:1010a000c6e7204604f044fe4ff6ff71084604f000
:1010b000fffdbde74ff6ff7004f03afe21464ff604
:1010c000ff7004f0f5fdb3e74ff6ff7004f030fe5b
:1010d00047f6ff71204604f0ebfda9e747f6ff70e5
:1010e00004f026fe4ff6ff71204604f0e1fd9fe775
:1010f000204604f01dfe4ff6ff7147f6ff7004f026
:10110000d7fd95e7204604f013fe47f6ff714ff632
:10111000ff7004f0cdfd8be747f6ff7004f008fe8a
:1011200021464ff6ff7004f0c3fd81e74ff6ff70d4
:1011300004f0fefd214647f6ff7004f0b9fd77e7a5
:101140003b78bbb1012b7ff473af204604f0f0fd78
:101150003146204604f0acfd06f57a76b6b247f289
:101160002f539e4284bf3c704ff6ff763c2005f023
:1011700055f85de7204604f0dbfd3146204604f0db
:1011800097fda6f57a76b6b247f230539e4203d861
:1011900001233b7047f23056502005f03ff847e7f7
:1011a0004ff6ff7004f082fc2146204604f0a0fdbb
:1011b000012005f033f8224601a9286802f0baf8a8
:1011c00000283ff435af9df804300c2b3ff630afcc
:1011d00001a252f823f000bf211000006b100000a4
:1011e0007d1000008f100000a3100000b51000005b
:1011f000c9100000dd100000f11000000511000012
:10120000191100002d11000041110000204604f0ca
:101210004dfc21464ff6ff7004f06afdc8e72046fa
:1012200004f044fc4ff6ff71204604f061fdbfe777
:101230004ff6ff7004f03afc21464ff6ff7004f0c1
:1012400057fdb5e7204604f031fc4ff6ff71084624
:1012500004f04efdace74ff6ff7004f027fc4ff6ac
:10126000ff71204604f044fda2e74ff6ff7004f042
:101270001dfc214647f6ff7004f03afd98e747f65b
:10128000ff7004f013fc21464ff6ff7004f030fdb0
:101290008ee7204604f00afc47f6ff714ff6ff7018
:1012a00004f026fd84e7204604f000fc4ff6ff71b1
:1012b00047f6ff7004f01cfd7ae747f6ff7004f074
:1012c000f5fb4ff6ff71204604f012fd70e74ff674
:1012d000ff7004f0ebfb47f6ff71204604f008fdb9
:1012e00066e73b78bbb1012b7ff462af204604f088
:1012f000ddfb2146304604f0fbfc06f57a76b6b2fb
:1013000047f22f539e4284bf3c704ff6ff763c203d
:1013100004f084ff4ce7204604f0c8fb2146304629
:1013200004f0e6fca6f57a76b6b247f230539e4258
:1013300003d801233b7047f23056502004f06eff73
:1013400036e700bf68fb0020e7f8002064fb0020c0
:020000040000fa
:101350005247423220415641494c41424c450d00d2
:1013600052474232204e4f5420415641494c41424f
:101370004c450d005247423120415641494c4142b3
:101380004c450d0052474231204e4f5420415641aa
:10139000494c41424c450d004c494d49542053574e
:1013a0004954434820505245535345440d000000d2
:1013b0004741544520434c4f5345440d0000000025
:1013c00047415445204f50454e0d0000534d4f4b63
:1013d000452044455445435445440d00534d4f4b1f
:1013e000452050494e20484947480d00534d4f4b2a
:1013f000452050494e204c4f570d0000494d442088
:1014000044455445435445440d000000494d442093
:1014100050494e20484947480d000000494d44209e
:1014200050494e204c4f570d0000000053504420af
:1014300044455445435445440d0000005350442056
:10144000484947480d000000535044204c4f570d69
:1014500000000000454d455247454e435920425536
:1014600054544f4e20505245535345440d000000f4
:10147000425554544f4e20484947480d0000000043
:10148000425554544f4e204c4f570d00494e20505a
:10149000484153450d0000004f55542050484153da
:1014a000450d00005043425f54454d504552415454
:1014b000555245203d2025660d0a00005555000077
:1014c0000000ff03fdd41401170000000000ff021c
:1014d000fed4022a0000ff04fcd44a0200e000000f
:1014e0000000ff00ff000000ff02fed515160000ff
:1014f0000000ff00ff000000ff06fad503320106de
:1015000007e8000049442773203a20256420256419
:101510002025642025640d0a0000000025660d0ac0
:10152000000000006d61696e735f74696d65720023
:10153000537461727444656661756c745461736b45
:101540000000000053746172744553505f5245436c
:10155000454956455461736b000000005374617235
:101560007441435f44435f4d455445525f53454e7c
:10157000445461736b000000537461727441435fa3
:1015800044435f4d455445525f5245434549564596
:101590005461736b00000000537461727454454dc4
:1015a000505f48554d495461736b0000537461722c
:1015b0007454454d505f4144435461736b000000c7
:1015c000537461727447554e5f54454d5054617366
:1015d0006b0000005374617274484d495f5245437b
:1015e000454956455461736b0000000053746172a5
:1015f000744d414348494e455f53544154455461ed
:10160000736b000053746172745247425f53454ece
:10161000445461736b0000005374617274504f57ef
:10162000455242414e4b5f4d4f4e49544f525f54cd
:1016300061736b005374617274524649445f524542
:1016400043454956455461736b0000005374617201
:1016500074524649445f53454e445461736b0000d5
:020000040000fa
:101660002de9f04fadb00027dff8e4a20391064664
:101670001546b8464ff0ff3903990b78002b00f060
:10168000f9800cabcde907890a938023cdf824803b
:101690000b9300240b5d0bb1252b26d134b12246d0
:1016a000304604f01ffc039b23440393039b1a78ea
:1016b000252a40f0d78003f1010bcdf80cb0039838
:1016c00003782b2b1ad025d8202b1bd0232b1dd0f1
:1016d0002a2b27d004f0a5f90990039b1a78303af9
:1016e000092a2ed801330393f7e70134d2e7079b89
:1016f00043f00103013007930390e0e7079b43f0b9
:101700000403f7e7079b43f00803f3e7079b43f065
:101710001003efe72d2bead0302bd9d1079b43f0f4
:101720000203e7e72b681a1d1b682a600130002bb3
:101730000390099305da079a5b4282f0010207924f
:101740000993079bda0744bf23f002030793039b27
:101750001a782e2a0dd1581ccdf8208003905a7883
:101760002a2a25d1023303932b681a1d1b682a608d
:10177000089303a804f044fc039b0190187805f03b
:101780005ffb6928019979d032dc632800f0c680bc
:1017900019dc252800f0d080612853d025238df84e
:1017a0001030cdf80cb0cdf81c80cde90898c0e021
:1017b00004f037f90890039b1a78303a092ad8d8f0
:1017c00001330393f7e7642858d06728e6dc2a46fc
:1017d00004a804f01bff002800f09c80039b5a1c07
:1017e00003921b7804aa07a93046fef7ddff38e014
:1017f000702873d015dc6e2800f087806f28cdd15b
:101800002b46002204a802f079f9002800f082801b
:10181000039b04aa013307a93046039303f02ef972
:101820001fe075283ad0782848d07328b6d180298f
:1018300070d1039b2a6801330393131d2b60126838
:1018400000235be02a4604a804f0e0fe002861d0f3
:10185000039b5a1c03921b7804aa07a9304602f086
:1018600091f804443c44a7426edd384b4f221a6085
:101870004ff0ff3738462db0bde8f08f2b460122e0
:1018800004a802f03bf9002844d0039b04aa0133ca
:1018900007a93046039302f0dbf9e2e72b4600226a
:1018a00004a802f02bf9002834d0039b04aa0133ca
:1018b00007a93046039303f0cdfdd2e72b46002263
:1018c00004a802f01bf928b3039b5a1c03921b784f
:1018d00004aa07a9304601f011fcc2e72b460022fa
:1018e000f02104a802f00af9a0b1039b013303938d
:1018f000dde90423134306d10023524607a93046ed
:1019000003f050fdade77823e2e72b463a1904a82f
:1019100002f05ffe039b01330393a3e78029f9d113
:10192000039b013303932b681a1d1b682a608df8f3
:101930001030012304aae1e78029ebd1039b8df845
:10194000100001330393f4e7274695e694fb00204b
:041950004a6b0000de
:020000040000fa
:101954002de9f04f099f154604468e461e46002b7e
:1019640040f0cc808a42b2fa82fc4cd9bcf1000f20
:101974000bd0ccf1200801fa0cfe20fa08f802fa88
:101984000cf548ea0e0e00fa0cf44fea15491ffa5a
:1019940085f8befbf9fa210c09fb1ae30afb08fbe4
:1019a40041ea03439b452ad9eb180af1ff3004d2dc
:1019b4009b4502d9aaf102002b44a3eb0b03a4b26a
:1019c400b3fbf9f209fb123302fb08f844ea0344bf
:1019d400a04516d92c1902f1ff3303d2a04501d931
:1019e400931e2c44a4eb080443ea004027b124fad4
:1019f4000cf400233c607b603146bde8f08f504618
:101a0400dbe71346eee702b9ffdebcf1000f2ed18f
:101a14008b1a01264fea154eaab2b3fbfef8210c2d
:101a24000efb183308fb02f941ea0343994561d9d7
:101a3400eb1808f1ff3004d2994502d9a8f102004d
:101a44002b44a3eb0903a4b2b3fbfef10efb113349
:101a54004a4344ea0344a2424ed92c1901f1ff330c
:101a640003d2a24201d98b1e2c44a41abce7ccf1a8
:101a7400200e02fa0cf521fa0ef901fa0cf320fa01
:101a84000efe4eea03034fea154800fa0cf4b9fbc4
:101a9400f8f11ffa85fe08fb1192180c01fb0ef6f3
:101aa40040ea0242964221d9aa1801f1ff3003d23a
:101ab400964201d9881e2a44921b9bb2b2fbf8f9c4
:101ac40008fb192209fb0efe43ea02439e450fd987
:101ad400eb1809f1ff3604d29e4502d9a9f102069a
:101ae4002b44a3eb0e0346ea004693e70846e3e7dc
:101af4004e46f6e74046a4e70b46b6e78b4206d9c6
:101b0400002f7ed00026c7e90001304674e7b3faff
:101b140083fcbcf1000f0fd18b4201d3824209d860
:101b2400841a61eb030e0120002f6dd0c7e9004e2b
:101b3400002661e76046f7e7ccf1200e03fa0cf3c8
:101b440022fa0ef521fa0ef41d4301fa0cf320fae1
:101b54000ef10b434fea154a00fa0cf6b4fbfaf9fe
:101b64001ffa85f80afb19401c0c09fb08f144ea2a
:101b74000044a14202fa0cf23fd92c1909f1ff30ba
:101b840004d2a14202d9a9f102002c44641a9bb2e6
:101b9400b4fbfaf90afb194409fb08f843ea0441c7
:101ba40088452cd9691809f1ff3304d2884502d934
:101bb400a9f10203294443ea0040a1eb0801a0fb78
:101bc40002894945c2464c4602d306d1464504d251
:101bd400b8eb020a69eb05040138afb1b6eb0a03ae
:101be40061eb040606fa0efe23fa0cf34eea030335
:101bf40026fa0cf6c7e900369ae74846c6e74b468c
:0c1c0400d9e73e463846f7e63e46f5e6d6
:020000040000fa
:101c100030b591ea030f00f18280841a71eb030c56
:101c200005d2121953eb0c03001b71eb0c0140f2af
:101c3000000ccff6e07c1cea430f52d0bceb410f06
:101c40005fd90c0da4eb135e5ff0010c6cf31f5118
:101c50006cf31f53def1200c2ad303fa0cf5401964
:101c600041f1000122fa0ef5401923fa0ef56941ff
:101c700012fa0cf2cd0208d349085fea30005fea9d
:101c8000320228bf42f001020134013c5fea500ced
:101c900072f1004250f1000051eb04514ff4001377
:101ca00013eb410f38bf30bd6ff31301002030bd7f
:101cb000bef1200ebef1200f1ed223fa0ef5401900
:101cc00041f10001cef1200c124218bf012203faab
:101cd0000cf52a43cee711ea5c0f04bf0020002177
:101ce00030bd1cea410f04bf01f00041002030bdaf
:101cf00001f00041002030bd21f4801101eb0451be
:101d000030bd004218bf41f00101bceb410f08bfdc
:101d100030bd4ff0fe4141f47801002030bd83f02a
:101d20000043841a71eb030e07d28ef0004e001ba5
:101d300071eb0e01121953eb0e0340f2000ccff6bb
:101d4000e07c1cea430fc6d0bceb410f72d90c0dee
:101d5000a4eb135ec90241ea5051c00241f00041b8
:101d6000db0243ea5253d20243f00043def1200c7f
:101d700041d312fa0cf522fa0ef203fa0cf542eafc
:101d8000050218bf42f0010223fa0ef3801a9941ae
:101d9000e30ac4f30a0411f0404f03d418d0013c05
:101da00040004941013c23d44205c00a40ea415069
:101db000c90a51eac3715fea500c72f1004250f156
:101dc000000051eb045130bd01002fd00020203c19
:101dd0000029f9d0b1fa81fcdcf1200e11fa0cf1e6
:101de00030fa0ef510fa0cf02943a4eb0c04d9e7f5
:101df0000020d90730bdaef1200ebef1200f0dd26c
:101e0000cef1200c03fa0cf533fa0ef32a4318bf77
:101e100043f00103c01a61f10001b9e721f000416c
:101e2000c00a40ea4150c90a01eb045130bd00200c
:101e3000002130bd004218bf41f00101bceb410f51
:0e1e40007ff467afbceb430f3ff463af30bde0
:020000040000fa
:101e4e00f0b581ea030e0ef0004e40f20007cff619
:101e5e00e07717ea41051ebf95ea070f17ea43041c
:101e6e0094ea070f00f0c5806d0da5eb545707f5ea
:101e7e0080674ff0004646eac12444ea5054c0023f
:101e8e0046eac32343ea5253d202801a9c4104d23b
:101e9e000018644180185c41013f5b084fea320232
:101eae000025002140f001004ff0070604e0801ae3
:101ebe009c4136d340416441801a9c4136d3404107
:101ece006441801a9c4136d340416441801a9c4142
:101ede0036d340416441801a9c4136d3404164411f
:101eee00013e17d0801a9c4136d340416441801a7e
:101efe009c4136d340416441801a9c4136d34041c7
:101f0e006441090201eb156190ea052520f0ff00fe
:101f1e004540cce7801a9c4156d335e080185c4191
:101f2e00c8d20018644180185c41c8d200186441c0
:101f3e0080185c41c8d20018644180185c41c8d238
:101f4e000018644180185c41c8d200186441013efb
:101f5e0017d080185c41c8d20018644180185c41cb
:101f6e00c8d20018644180185c41c8d20018644180
:101f7e00090201eb156190ea052520f0ff004540ae
:101f8e00cce780185c411fd3420918bf44f001040e
:101f9e00490101ebd56100f01f0000eb451021f463
:101fae00801141ea0e01013041f10001244208bfc7
:101fbe0020f00100b7f5006f3eda013f49dd01eb7d
:101fce000751bde8f0407047490101ebd56100f0c3
:101fde001f0000eb451021f4801141ea0e01b7f508
:101fee00006f29da013f34dd01eb0751bde8f04007
:101ffe007047004218bf41f00101124218bf43f072
:10200e000103b7eb410f2cbfb7eb430f1ce0b7eb4f
:10201e00410f04bfb7eb430f16e017ea410f04bfa1
:10202e0017ea430f10e017ea410f12d017ea430fd9
:10203e0002d0b7eb430f0cd04ef0fe4141f47001cd
:10204e000020bde8f04070474ff0fe4141f47801aa
:06205e00f6e77146f4e70d
:020000040000fa
:102064002de9f84307460e4698469500284601f0a8
:10207400d3f8002800f0c9808146542001f0ccf840
:102084000446002800f08c805422002104f0befe97
:10209400c4f830902a46a521484604f0b7fe043d12
:1020a400236b1d4425f007058eb1337884f8343052
:1020b40053b1334604f134010f3613f8012f01f8fc
:1020c400012f0ab1b342f8d1002384f84330089bae
:1020d400042b28bf04239946e3626364261d30461b
:1020e40004f014ff04f1180004f010ff2461c9f196
:1020f4000503a361646242463946284604f016fa91
:102104002060099b03b11c6004f086fc434a1368f9
:1021140001331360424b1b68002b47d0414b1b68b3
:102124003bb93f4b1b68da6ae36a9a429cbf3c4b5b
:102134001c603d4a136801331360e36a3b49086835
:1021440001229a4002430a60394a03eb830302ebfb
:1021540083035b68a3609968e1604e609e60e06af7
:1021640083001918890055186561515801310344d9
:102174009b00d15004f0cafd2a4b1b68002b48d0a9
:10218400274b1b68da6ae36a9a4244d2294b4ff020
:1021940080521a60bff34f8fbff36f8f012036e078
:1021a400484603f051fa4ff0ff3030e01c4b1c60fe
:1021b4001368012bbdd11e4d284604f071fd05f1b5
:1021c400140004f06dfd05f1280004f069fd05f12b
:1021d4003c0004f065fd05f1500004f061fd164f6c
:1021e400384604f05dfd154d284604f059fd1448a9
:1021f40004f056fd134804f053fd134804f050fd59
:10220400124b1f60124b1d6093e74ff0ff30bde887
:10221400f8830120fbe70120f9e700bff4fa00206e
:10222400e8fa002018fb002000fb002004fb00203b
:1022340000f8002004ed00e04cfa002060fa0020d1
:1022440074fa00209cfa002088fa0020ecfa00209e
:04225400f0fa00207c
:020000040000fa
:10225800674b00221a7403f50063664a9a621a46ad
:10226800536813f0100ffbd1634b4222c3f884204c
:102278001a46d2f8843013f0400ffad05f4b002290
:102288009a6377225a631a46d36b13f0040ffbd173
:102298005a4b022283f830201a46d36b13f0020ff0
:1022a800fbd1564a136c03f00303032bfad1544baa
:1022b80001225a711a46d37813f0010ffbd04e4b06
:1022c800504a1a621a46536813f0040ffbd14a4b5e
:1022d8004d4a5a621a46536813f0080ffbd1464b11
:1022e8004122c3f890201a46d2f8903013f0400fdc
:1022f800fad0414b4122c3f8a0201a46d2f8a030a8
:1023080013f0400ffad03c4b4122c3f8a4201a46e0
:10231800d2f8a43013f0400ffad0374b4122c3f85b
:10232800dc201a46d2f8dc3013f0400ffad0324bda
:102338004122c3f8e0201a46d2f8e03013f0400feb
:10234800fad02d4b4122c3f8f8201a46d2f8f830bb
:1023580013f0400ffad0284b4122c3f80c211a463b
:10236800d2f80c3113f0400ffad0234b4122c3f8b6
:1023780010211a46d2f8103113f0400ffad01e4b34
:102388004122c3f814211a46d2f8143113f0400f31
:10239800fad0194b4122c3f818211a46d2f818313d
:1023a80013f0400ffad0144b4122c3f820211a46eb
:1023b800d2f8203113f0400ffad00f4b4122c3f866
:1023c80024211a46d2f8243113f0400ffad00c4bce
:1023d8006ff07f421a614ef2ff725a610b4a9a619e
:1023e8004ff40152da614ff4cf721a62704700bf9e
:1023f8000014004006013000001c0040001000409e
:10240800000800400701010007010200568601008c
:020000040000fa
:102418006c4b9b7d002b00f0d38010b56a4b9c6af7
:10242800684b5b8b13f0020f16d0674bff2283f8c3
:102438002020022283f82120634b93f820305bb2de
:10244800b3f1ff3f00f08a805f4b93f820305bb216
:10245800062b00f09c8010bd5a4b5b8b13f0010fcc
:1024680007d0594bff2283f82020022283f821202d
:10247800e2e7544b5b8b13f0040f07d0524bff225b
:1024880083f82020012283f82120d5e74e4b93f8ca
:1024980020305bb2032b42d0042b10d0022bcbd1bf
:1024a800494b1b692bb1484b9888002103f068f908
:1024b800c2e7454b9888012103f062f9bce7424a1c
:1024c800936912699a420bd03f4a9268d15c3d4a9f
:1024d8009162591cd369002bfcd13b4b9961abe746
:1024e800394b5b6973b1384b9b885b0043f0010340
:1024f800344a5362d369002bfcd1334b032283f84f
:10250800202099e72f4a536843f440335360d36936
:10251800002bfcd12c4b062283f820208ce72a4b79
:10252800d9695b69013b8b420bd0264ad369002be2
:10253800fcd1244b986a244bda6850540131d96194
:102548007ae7204a536843f4e0235360d369002ba9
:10255800fcd11d4b062283f82020e6e71a4b002207
:1025680083f82020174a536843f440335360d369f3
:10257800002bfcd1134b83221a76134b5b6a002b7a
:102588003ff469af104b5b6a2046984763e70e4bf0
:10259800002283f8202083f821200a4b83221a7610
:1025a8001a46538b03f03003102bfad1064b5b6aa3
:1025b800002b3ff450af044b5b6a204698474ae72c
:0c25c800704700bf00400141dcf900201a
:020000040000fa
:1025d4002de9f04f87b0039003a803f0e7fb002830
:1025e40003da002007b0bde8f08f039b1b095d1ed2
:1025f400202d0fd9023b5e4ab3f5007f35bf02ebb5
:10260400d30302ebd31313f8045c13f8045c34bf54
:10261400013511350123a5f12001c5f1200203fa8a
:1026240001f923fa02f203fa05f8d8f1000849ea9d
:10263400020969eb4909cde90089dff84081dff837
:1026440030914746d8e90023009902ea010a01992a
:1026540003ea010b5aea0b0342d1039b05a810338a
:10266400059304f03efb18b9424b0c221a60b9e7fb
:10267400d8f80852a84206d0059b103b05930123c5
:1026840000f110058360059bea18012143f0010362
:10269400b5f1080442f8083c42f8041cc7f80822c3
:1026a40045f8043c9dd0204603f0e0fe88b155f87f
:1026b400083c55f8041c23f00103e31a5a6822f07d
:1026c40001020a445a6055f8041c21f001016250c9
:1026d4001c462046039903f011ff04f1080081e72a
:1026e4005446254bbaf1000f34d1cbf1000000ea77
:1026f4000b00434309ebd36393f83c602036304628
:1027040004f0daf9731c57f8334007ebc303083bb2
:102714009c4297d0272e26dd0235ae4201dc3f2ea7
:1027240021d16268039922f00102551a284603f068
:102734009dfc864217d1e068a6686318d8609e6045
:1027440083609868c36041f0010060505d60a550eb
:102754006060bee7caf100002040434309ebd36345
:1027640093f83c60cbe73146204602f045feb0e7e3
:102774003451000094fb002029e66b0728f2002066
:020000040000fa
:102784002de9f84f584b1b68002b40f0a780574b9e
:102794001c6801341c60b4b1554b1b68a3421fd99b
:1027a4000020544b1b68db6a03eb83039b00524af3
:1027b400d358022b28bf0120504b1b68002b18bf95
:1027c4000120bde8f88f4e4a11684e4b186810601e
:1027d40019604d4a13680133136003f07bffdbe794
:1027e400002047498346494d4ff0010e424adff825
:1027f40004c137e03e4b4ff0ff321a60d1e73c4b47
:102804001e60cee7de6ad5f800a00efa06f848eaa4
:102814000a08c5f8008006eb860602eb8606766891
:102824009e60d6f80880c3f80c80c8f80490c6f8f7
:102834000890d3f82c904fea890606eb090802ebbe
:10284400880ac3f814a052f8288008f101084e44fd
:1028540042f82680dcf80080de6ad8f82c309e42ec
:1028640088bf01200b681b68002bc3d00b68db6892
:10287400db685e68b442c2d3d3f81480de689f6814
:10288400be609f68776003f10409d8f804604e4580
:1028940004bfde68c8f80460c3f814b0d8f8006058
:1028a400013ec8f80060d3f82880b8f1000fa9d021
:1028b4001e6adf69be60df69776003f1180ad8f821
:1028c4000460564504bf1e6ac8f80460c3f828b003
:1028d400d8f80060013ec8f8006093e70c4a13681a
:1028e4000133136000206ce7fcfa00201cfb00207d
:1028f4000cfb0020e8fa002000f8002020fb002058
:10290400ecfa0020f0fa002010fb002004fb002069
:0429140014fb002090
:020000040000fa
:102918002de9f04704f07ef8504b1a68013a1a6026
:102928001b68002b40f093804d4b1b680bb90024ab
:102938008ee000234b491c464b4801264b4adff8e2
:102948003ca1dff830c10d68002d5fd0cb68db6893
:10295800d3f828e0dd691f6aaf601d6adf696f6020
:1029680003f11808def80450454504bf1d6acef887
:1029780004509c62def80050013dcef80050d3f8b8
:102988001480dd689f68bd609f686f6003f1040e66
:10299800d8f80450754504bfdd68c8f804505c6178
:1029a800d8f80050013dc8f80050dd6ad0f8009012
:1029b80006fa05f848ea0908c0f8008005eb85051d
:1029c80002eb85056d689d60d5f80880c3f80c801a
:1029d800c8f804e0c5f808e0d3f82c804fea880569
:1029e80005eb080e02eb8e09c3f8149052f82ee09e
:1029f8000ef1010e454442f825e0daf80050ed6a80
:102a0800df6aaf429fd3ccf800609ce70bb103f0bc
:102a18005ffe174b1c686cb1164e012501e0013ca6
:102a280005d0fff7abfe0028f9d03560f7e7104b6b
:102a380000221a600f4b1c6854b10f4b4ff08052a4
:102a48001a60bff34f8fbff36f8f012400e000249b
:102a580004f05af92046bde8f08700bffcfa0020d0
:102a6800f4fa002074fa002004fb002000f800208b
:102a780014fb002020fb002004ed00e0e8fa002011
:020000040000fa
:102a88002de9f04f8fb0504c0aad04f5c8730fcb49
:102a980007c525f8023b1b0c2b7005ad04f5d07457
:102aa8000fcc0fc5236825f8023b1b0c2b70474c35
:102ab800dff82c81464fdff82c9155e000268df881
:102ac80010608df80c603346012204a9d8f8000084
:102ad80000f07efa3346012203a9386800f078fa3c
:102ae80001352378ab4231dd1bf8012b1af8013b85
:102af8009a42e3d113232370f2e7dff8d8b00df13f
:102b0800140a002515e000268df810608df80c6079
:102b18003346012204a9d8f8000000f059fa3346d8
:102b2800012203a9386800f053fa01352378ab4233
:102b38000cdd1bf8012b1af8013b9a42e3d119234b
:102b48002370f2e7234b5b7a0c2b1ad00021c9f8cb
:102b5800001032221f4804f057f91f4b186800f084
:102b68003ffe012003f056fb2378132bc5d0192b09
:102b7800e8d00f2bead1dff85cb00df1280a002568
:102b8800b2e7144b9b7af42be0d1124bdb7ad52bae
:102b9800dcd1104b1b7b4b2bd8d10e4b5b7b012b15
:102ba800d4d10c48c17c89f80010027d89f8012035
:102bb800437d89f80230807d89f80300009007483a
:102bc80003f0a4fec2e700bf501300001af900206a
:102bd80064fb0020e8f800205cfb002004150000de
:082be80068fb002058fb0020ef
:020000040000fa
:102bf000f0b55449cb6823f4e0631b041b0c43f08d
:102c0000bf6343f40033cb60bff35f8f62b6e02253
:102c100081f823204c4b83f80d234ff400501860ab
:102c200083f80e234ff480441c6083f811234ff483
:102c300000341c6083f812234ff4802ec3f800e0a8
:102c400083f813234ff4002cc3f800c083f8142337
:102c50004ff480171f6083f815234ff400161e6091
:102c600083f816234ff480051d6083f817234ff473
:102c700000041c6083f83223c3f804e083f8332394
:102c8000c3f804c083f834235f6083f835235e60a3
:102c900083f836235d6083f837235c6083f838233c
:102ca0004ff080745c6083f839234ff000745c60ef
:102cb00083f83a234ff080645c6083f83b234ff045
:102cc00000645c6083f83c234ff080545c6083f8c0
:102cd0003d234ff000545c6083f8462340249c6001
:102ce00083f8472380249c6083f848234ff4807442
:102cf0009c6083f849234ff400749c6083f84a2356
:102d00004ff480649c6083f84b234ff400649c6014
:102d100083f84c234ff480549c6083f84d239860d3
:102d20004b6a43ea0e034b624b6943f010034b615d
:102d30004b6a43f400334b624b6a43f480334b627b
:0c2d4000f0bd00bf00ed00e000e100e08d
:020000040000fa
:102d4c002de9f04385b0514e514d524f33681c68fc
:102d5c0094b1db681c6804f015f801a802f088f93e
:102d6c008046019a32bba04214d3fff7cffd4146f7
:102d7c00204602f037ff1fe004f004f801a802f02f
:102d8c0077f98046019babb9434b1b681a68b2fac2
:102d9c0082f25209a4eb0801286802f0a1fcfff7ab
:102dac00b5fd48b94ff080533b60bff34f8fbff375
:102dbc006f8f01e0fff7aafd4ff00008424601a912
:102dcc00286800f0b1fa0028c0d0019b002bf5db7d
:102ddc00039c636913b1201d03f04efd684602f09d
:102dec0047f98146019b013b082be7d8dfe803f04c
:102dfc0005052a314005052a310094f8243043f0aa
:102e0c00010384f824300299a0690b464a46014418
:102e1c00204602f0b9fd0028d0d094f8243013f0ed
:102e2c00040f07d123f0010384f82430236a2046d1
:102e3c009847c3e7a3694a4602991944204603f010
:102e4c0095fcf3e794f8243023f0010384f8243044
:102e5c00b4e794f8243043f0010384f82430029949
:102e6c00a161034602460144204602f08dfda5e710
:102e7c0094f8243013f0020f04d023f0010384f8eb
:102e8c0024309be7204602f0dbfb97e7d4fa0020c6
:0c2e9c00e0fa002004ed00e0d8fa00206d
:020000040000fa
:102ea800f0b540f2ff7681ea030c16ea115e1ebf08
:102eb800b64516ea1355b54252d021ea465141f4b7
:102ec8008011a1fb024723ea465343f48013ae4422
:102ed800a0fb03650cf0004c36197d41a1fb0347ac
:102ee80047f10003a0fb0217f619654153f10003ef
:102ef800094218bf46f0010640f2fe74b3f5007fa0
:102f080013d2aef5806ea64523d24cea03312803ce
:102f180041ea155140ea16503203450872f1004261
:102f280050f1000051eb0e51f0bdaef2ff3ea64548
:102f38000fd24ceac321e80241ea555140ea565003
:102f4800f202450872f1004250f1000051eb0e51b7
:102f5800f0bd1eea0e0f2dd50cf000410020f0bd8b
:102f680016ea115f04bf01f000410020004218bfbb
:102f780041f0010116ea135f04bf03f00043002289
:102f8800124218bf43f0010306ea1354b44218bfb3
:102f9800b64503d00cf000410020f0bd21f00041ff
:102fa80023f00043b1eb065f0cd8b3eb065f09d8fa
:102fb80041b13bb10cf0004141f0fe4141f47001d8
:102fc8000020f0bd40f20001c7f6f8710020f0bd06
:020000040000fa
:102fd8002de9f04784b00446884601921d464ff01b
:102fe80000094e46424f33e02a464146204601f04a
:102ff80057fc636a73b938b13d4b4ff080521a6081
:10300800bff34f8fbff36f8f03f07efe012004b034
:10301800bde8f08704f1240000f076fb0028f3d027
:10302800334b4ff080521a60bff34f8fbff36f8f4f
:10303800eae703f069fe0020e9e702a803f00afec8
:1030480014e0204601f044fafff762fc4ff0010952
:1030580003f0e0fca26be36b9a42c5d3022dc3d008
:10306800019b002be5d0b9f1000fe6d003f04cfe30
:1030780003f08afe03f0cefc94f844305bb2b3f15f
:10308800ff3f08bf84f8446094f845305bb2b3f161
:10309800ff3f08bf84f8456003f036fe01a902a887
:1030a80001f0fcfee8b903f0b5fcd4f838a0d4f878
:1030b8003c9003f029feca45c3d1019904f11000e0
:1030c80003f026fd204601f003fafff721fc002853
:1030d800bcd14ff080533b60bff34f8fbff36f8f6e
:1030e800b4e7204601f0f4f9fff712fc00208ee760
:0430f80004ed00e003
:020000040000fa
:1030fc002de9f04fd1e901590e68d1f80c808bb055
:10310c00002da8bf26f002060393b8bf012516f0c8
:10311c00100302900f460493d2e900ab37d05aea61
:10312c000b0334d0a9f102033c6916f0080104f139
:10313c00ff3405914ff0000108f8041006f002016d
:10314c000691039918bf03f1ff335b1b4139012c26
:10315c001fdc049b002b4cd1059b1bb1013c202395
:10316c0008f804303a690096013a4b46121b08ebfa
:10317c000401029801f06af9029b5b68db0503d538
:10318c007b689842b8bf18460bb0bde8f08f4b4631
:10319c00cae75aea0b0007d1002d05dc58190028a4
:1031ac00d7dd06980028d4d00af00f000928d4bf28
:1031bc0030305730192904f1ff340ed840f0200c70
:1031cc00acf1610cbcf1190f07d8cde908310792ad
:1031dc0003f037fedde90831079a08f804004feade
:1031ec001a1040ea0b704fea1b1c013d8246e34665
:1031fc00ade7d2e900231343aed008eb0403039ae6
:0e320c0003f8012c023c302308f80430a4e73c
:020000040000fa
:02321a007047fb
:020000040000fa
:10321c0070b5044603f0b6fd3d4b1b689bb1002c0a
:10322c003bd004f00703c3f11003da43a24234d3ba
:10323c00e3182bd4002b30d0364a16689e422fd37d
:10324c0035490c6831e0354a12f0070f1bd0d11dff
:10325c0021f0070102f56e4320335b1a0a462e4813
:10326c000260002141601344083b23f00703284807
:10327c00036059601960991a51601360284b1960ea
:10328c00244b1960cbe74ef62063e8e7fff73efbd3
:10329c0003f055fd0025284670bdfff737fbf7e717
:1032ac00fff734fbf4e72146144662689a4202d2d7
:1032bc002268002af7d1164a1268a2421fd00d6864
:1032cc00083522680a606268d21a102a1ad8636814
:1032dc00f61a104a1660124a126896423cbf104aff
:1032ec00166043f000436360002323600d4a1368ab
:1032fc0001331360fff70afb002dccd1c8e7fff7b1
:10330c0005fbc5e7e0184260636001f0edffdee706
:10331c00c0fa0020c4fa0020b0fa002000000020ff
:08332c00c8fa0020ccfa0020d1
:020000040000fa
:103334002de9f04385b004468846019200263546bf
:10334400dff8f89035e04146204603f0abfa7b1ee7
:10335400a36323692bb903f0d9fc012005b0bde8b0
:10336400f08304f1100000f0d1f90028f3d0334bbe
:103374004ff080521a60bff34f8fbff36f8feae7ad
:1033840003f0c4fc0020e9e702a803f065fc1ae09e
:10339400204601f09ff8fff7bdfa09e0204601f04e
:1033a40099f8fff7b7fa204603f090fc002842d1c1
:1033b400012603f031fba76b002fc4d1019b002b26
:1033c400ded0002ee0d003f0a1fc03f0dffc03f01c
:1033d40023fb94f844305bb2b3f1ff3f08bf84f899
:1033e400445094f845305bb2b3f1ff3f08bf84f812
:1033f400455003f08bfc01a902a801f051fd0028ff
:10340400ccd1204603f062fc0028c1d0019904f11c
:10341400240003f07ffb204601f05cf8fff77afa02
:103424000028c5d14ff08053c9f80030bff34f8f47
:10343400bff36f8fbce7002090e700bf04ed00e00e
:020000040000fa
:103444002de9f84300286ad050f8043ca0f10804a0
:1034540023f00106a719a259934200d0ffde7a682f
:1034640023681340da070fd4204602f0ffff002838
:1034740057d1384603f086f80028f0d07b6823f053
:1034840001031e441f44eae746f00103636030462b
:103494003b6002f0ebfd054603f00efb23687a68ff
:1034a4001340db07e0d5dff88ce0dee90089c5f1e5
:1034b400200ca5f1200228fa05f009fa0cfc29fadf
:1034c40002f240ea0c001043012100ea0102002349
:1034d4001343c5f120007346a5f1200212d121fa4d
:1034e40000f001fa02f2a94042ea00021ebfdef82f
:1034f40000000143cef8001022b1def804100a43a4
:10350400cef80420681c03ebc003a3f10802666034
:103514003e60a2605a68e2605c60e3689c60bde85b
:10352400f883236823f00103e41a636823f001039a
:083534001e449ee728f200206e
:020000040000fa
:10353c00f0b585b003238df80c308df808300023de
:10354c00012203a92c480068fff740fd002301224b
:10355c0002a92a480068fff739fd294b1c6803f0c3
:10356c0083fc4ff47a73009300230246012120461a
:10357c0002f02af9234c244d05f5a47613e0234bd5
:10358c00186800f0b3fb05f59e7003f0c7f8002334
:10359c0023601f4b1b6813b92368013323604ff45e
:1035ac007a7002f035fe2368032bf2dd184b1b6892
:1035bc00002bf4d1174b1b68174a12689b1ada1ea2
:1035cc00012adcd9063b012be1d800278df80c70c1
:1035dc008df808703b46012203a907480068fff7e5
:1035ec00f5fc3b46012202a904480068fff7eefcfb
:1035fc00304603f093f8cae768fb002064fb002018
:10360c0080fb002078fb00205013000050fb0020b2
:0c361c004cfb002088fb002084fb0020f9
:020000040000fa
:1036280030b4384b012283f8402083f8412083f8d6
:10363800422083f8432083f8462083f8472083f804
:10364800482083f84c2083f84d2083f8502083f8d5
:103658005120332083f83000112183f8311044259c
:1036680083f83350042183f83410222483f8364039
:1036780083f8380083f8c22083f8c32083f8ca206f
:1036880083f8cb2083f8ce20052183f8d11083f866
:10369800d21083f8d42083f8d52083f8d71083f884
:1036a800d81083f8d91083f8b10083f8b55083f89f
:1036b800b710002183f8b81083f8b91083f8ba005e
:1036c80083f8bb1083f8bc104ff48020c3f80001c6
:1036d80083f8452183f8462183f84a2183f84b2152
:1036e80083f8502183f8512183f8521183f832115d
:1036f80083f8331183f8351183f8384183f8391189
:0837080030bc70470080004155
:020000040000fa
:1037100030b4c368db689a6ad869196a8160d8696d
:10372000486003f118005168814204bf196a516072
:1037300000219962116801391160254a1268002a36
:1037400039d15a699868d968816098684860181dad
:103750005168814204bfd9685160002159611168e4
:1037600001391160da6a1b4c256801219140294317
:103770002160194902eb820201eb820252689a60d1
:103780009468dc6060609060dc6aa20010198000c0
:103790000d185d61085801302244920088500f4a8c
:1037a0001168da6acb6a9a4283bf01200c4b186019
:1037b000002030bc70470b4a5168d9618c681c628c
:1037c000606088609a62116801311160e7e700bfac
:1037d000fcfa002004fb002000f80020e8fa00209a
:0837e00020fb002074fa002018
:020000040000fa
:1037e80038b5044603f016f97cb3251d284603f0c6
:1037f80045f870b9e26a02eb82039b002449cb5872
:103808003bb924480368012101fa02f223ea0202c3
:103818000260a36a1bb104f1180003f02ff82946cf
:103828001d4803f046fa94f85030dbb2012b04bf70
:10383800002384f8503003f067fa184b1b683bb933
:10384800174b1b68a3420ad038bd154b1c68cce740
:1038580003f0e0f802f03cff03f056faf0e70f4bf4
:103868001b6843b10f4b4ff080521a60bff34f8f64
:10387800bff36f8fe8e7084b1a680b4b1b689a4237
:1038880003d1074b00221a60dee700f089f9dbe775
:1038980000f8002004fb002088fa002018fb002014
:0c38a800e8fa002004ed00e0f4fa002033
:020000040000fa
:0438b40001f026bb3e
:020000040000fa
:1038b80053ec102bc3f30a512de9f04140f2fd708f
:1038c8004e1e86421d4645d8a1f2ff30002835db42
:1038d800332831dc284bc0f120084ff0ff3c03fab5
:1038e80008f2a1f21f412cfa00fc10ee104a4cea33
:1038f800020c23fa01f24cea020c23fa00fe04ea55
:103908000c0605ea0e0724ea0c0256ea070425ea23
:103918000e030fd0002a73f100040bda4ff4801560
:1039280005fa08f425fa01f10c43121925fa00f0fa
:1039380040eb030343ec102bbde8f081002a73f140
:10394800000303db9fed080bbde8f0819fed080b3a
:10395800bde8f0810029efd10a4603f0004343ecab
:10396800102be9e7aff30080000000000000000022
:0c397800000000000000f0bfffff0f0087
:020000040000fa
:043984000020704768
:020000040000fa
:103988002de9f84f03f0eef827a7d7e9006728a537
:10399800d5e900450ff2a009d9e900894ff0000ade
:1039a800dff89cb02de001f011fa07ee900af8ee6e
:1039b800677a17ee900a02f07bfc32463b4603f02a
:1039c80093fa22462b46fef73efa01f025ff02f055
:1039d8006ffc42464b4603f087fa52465b46fef7b9
:1039e80032fa00220e4bfff75bfa01f015ff02f0e6
:1039f8005ffc02460b460b4802f088ff642002f089
:103a080009fc4ff4c051002002f0c6fe03f0b6f8de
:103a180002f0d4fe0028fbd0c5e700bfaff300805a
:103a280000408f40a41400009a99999999991e40d2
:103a3800cdcccccccc507340f6285c8fc2f504407a
:043a480000802bc00f
:020000040000fa
:103a4c0070b504460e46234b1d68234b1868043092
:103a5c0002f012ff48b9204b1a6820490b68d06a53
:103a6c000122824023ea02030b60b4f1ff3f0dd028
:103a7c002c44194b1b685c60a5421dd9184b186867
:103a8c00154b1968043102f0a9fb70bd002eefd064
:103a9c00144a5168104b1868816018688c68c460af
:103aac001868043060601868043088601b685a61bc
:103abc00136801331360e8e70b4b1868064b196861
:103acc00043102f08bfb094b1b68a34284bf074bec
:103adc001c60dae71cfb0020e8fa002004fb002045
:103aec00f0fa002088fa0020ecfa00200cfb0020f1
:020000040000fa
:103afc00882910b536d012dc812943d003dc80290b
:103b0c0040d0002010bd82290ed08429f9d119682b
:103b1c0002b30a1d1a60b1f90020d3171ee0a029c8
:103b2c002bd00bdc9029ecd11968073121f007015f
:103b3c0001f108021a60d1e900230fe0c02901d07d
:103b4c00f029ded11a68111d196013680360002377
:103b5c00436005e00a1d1a600a880023c0e90023af
:103b6c000120cfe7196822b10a1d1a6091f90020d3
:103b7c00d3e70a1d1a600a78efe71a68111d19605d
:103b8c001268cae719681ab10a1d1a600a68c4e7f4
:0c3b9c000c1d1c600b68c0e90032e1e762
:020000040000fa
:103ba800244b1b681bb1244b01221a60704710b5c7
:103bb800214b00221a60214b1b681b6b1a68b2f15b
:103bc800a53f03d15a68b2f1a53f23d01b4b186813
:103bd8001968343103f0acf8194b1b68b3fa83f356
:103be800dbb2c3f11f03174a9900c81802eb800023
:103bf800446864684460194402460832944212d00a
:103c080003eb83030f4a02eb83035b68da680b4b11
:103c18001a6010bd9a68b2f1a53fd7d1db68b3f13d
:103c2800a53fd3d1d8e760680a46064901eb82026e
:103c38005060e5e7fcfa002020fb0020e8fa0020ad
:083c480004fb002000f800203d
:020000040000fa
:103c50002de9f041d2e900230c4686b007465fea21
:103c6000d37820684968a5680590e66841d052423b
:103c700063eb4303002908db20f002000590b8f154
:103c8000000f02d1059948072ad5691e05a80290a0
:103c90000a20cde90010204600f0cafdb8f1000f5f
:103ca00002d1059b59071fd5b8f1000f00f1ff3075
:103cb00014bf2d232b2333542269059b0093013a13
:103cc0002b46121a3118384600f0c6fb7b68db051c
:103cd00003d563689842b8bf184606b0bde8f081c6
:103ce0000807d2d42946d1e71a07e5d501382023a1
:083cf000e1e70029c0dac5e795
:020000040000fa
:103cf80038b5224b1b68834209d040b1044602f014
:103d080089fe62691e4b9a4202d002f0fdff38bd5f
:103d1800a36a1c4a9342f8d0002bf6d1251d2846e9
:103d280002f0acfde36a1849086801229a40024390
:103d38000a60164a03eb830302eb83035b68a36004
:103d48009968e1604d609d60e06a830019188900f8
:103d5800551865615158013103449b00d150074bf8
:103d68001b68e26adb6a9a42cfd3094b4ff0805254
:103d78001a60bff34f8fbff36f8fc6e7e8fa0020d2
:103d880088fa002074fa002004fb002000f80020c4
:043d980004ed00e056
:020000040000fa
:103d9c0000b583b0214b02221a601c46204d214ee7
:103dac001de02b788df804308df8003000230122b3
:103dbc0001a93068fff70af90023012269461a4865
:103dcc000068fff703f92b780133dbb22b700b2b58
:103ddc001dd8592002f01cfa012002f019fa2368b0
:103dec00022bded0032bf7d10c238df804308df889
:103dfc0001300023012201a93068fff7e7f8002306
:103e0c000122694608480068fff7e0f8e4e703235d
:103e1c002360064b1868fff769ffdae74cfb0020bc
:103e2c00e6f8002068fb002064fb002070fb0020fb
:020000040000fa
:043e3c0000207047ab
:020000040000fa
:103e400080b502f093fe4ff4c058012521a7d7e9b1
:103e50000067dfed1d8a9fed1d8a1d4c29e000f0f3
:103e6000b9ff07ee900af8ee677a17ee900a02f0b3
:103e700023fa32463b46fff717f801f0d1fcf6ee85
:103e8000007a07ee100a77ee677ab2ee087a67eeec
:103e9000877a87eea87a77ee087a17ee900a02f012
:103ea0000bfa02460b46204602f034fd642002f075
:103eb000b5f94146284602f073fc02f063fe02f0b9
:103ec00081fc0028fbd0cae79a9909400000000055
:0c3ed0001c1500006666666666666a3fa8
:020000040000fa
:103edc00204a137843f001031370536813f0010f59
:103eec00fbd11c491c4bcb6141f231130b6240f6e8
:103efc00e6730b61194b10221a8101209882022063
:103f0c0018849a851a870520a3f844000620a3f884
:103f1c0050000720a3f85c000820a3f868000920d3
:103f2c00a3f874000a20a3f880000b20a3f88c00df
:103f3c00a3f89820a3f8a420a3f8b020a3f8bc20e1
:103f4c000b7843f002030b700a46536813f0020f10
:103f5c00fbd17047002800403003303340f700207d
:020000040000fa
:103f6c0000283ed038b50446c36b002b3bd0006c08
:103f7c00a0fb03230bb1002036e00d4602f048fdf8
:103f8c002268216ce36b03fb01f3d018a0600020c6
:103f9c00a06362605b1a1344e360ff2384f844302f
:103fac0084f84530a5b923691bb902f0abfe01209a
:103fbc001ae004f11000fff7a5fb0028f5d00b4b1d
:103fcc004ff080521a60bff34f8fbff36f8fece747
:103fdc0004f1100002f060fe04f1240002f05cfe1b
:103fec00e3e700207047002038bd00bf04ed00e07f
:020000040000fa
:103ffc0000283bd070b50446826c013a8264c06ada
:10400c00616c884234d00ab1002070bd251d284651
:10401c0002f032fc38b917490b68e06a0122824081
:10402c0023ea02030b60636ce362c3f10502a26135
:10403c0010490e68012000fa03f232430a600e4a5e
:10404c0003eb830302eb83035b68a3609968e16075
:10405c004d609d60e56aab00591989005618666180
:10406c00515801442b449b00d150cee7002070479f
:0c407c000020cae704fb002000f8002030
:020000040000fa
:1040880010b582b01b4802f04bfb1b4bd3f8a03095
:1040980013f0807f17d000248df800408df804407d
:1040a80023460122694615480068fef791ff23461a
:1040b800012201a912480068fef78aff114802f0a0
:1040c8002ffb02b010bd0c238df800308df80430a2
:1040d80000230122694609480068fef779ff00239a
:1040e800012201a906480068fef772ff064802f09f
:1040f80017fbe6e7cc1300000080004168fb0020b6
:0c41080064fb0020dc130000ec1300003e
:020000040000fa
:1041140010b582b01b4802f005fb1b4bd3f8a0304e
:1041240013f4000f17d000248df800408df80440dc
:1041340023460122694615480068fef74bff2346d3
:10414400012201a912480068fef744ff114802f059
:10415400e9fa02b010bd0c238df800308df804305c
:1041640000230122694609480068fef733ff002353
:10417400012201a906480068fef72cff064802f058
:10418400d1fae6e7fc1300000080004168fb002040
:0c41940064fb00200c1400001c14000050
:020000040000fa
:1041a00010b582b01b4802f0bffa1b4bd3f8a03009
:1041b00013f4802f17d00c238df800308df80430c5
:1041c00000230122694615480068fef705ff002319
:1041d000012201a912480068fef7fefe114802f014
:1041e000a3fa02b010bd00248df800408df8044001
:1041f00023460122694609480068fef7edfe234682
:10420000012201a906480068fef7e6fe064802f012
:104210008bfae6e72c1400000080004168fb0020c8
:0c42200064fb00203c1400004814000067
:020000040000fa
:10422c0010b582b01b4802f079fa1b4bd3f8a030c2
:10423c0013f4003f17d000248df800408df8044093
:10424c0023460122694615480068fef7bffe234647
:10425c00012201a912480068fef7b8fe114802f0cd
:10426c005dfa02b010bd0c238df800308df80430cf
:10427c0000230122694609480068fef7a7fe0023c7
:10428c00012201a906480068fef7a0fe064802f0cc
:10429c0045fae6e7541400000080004168fb00205a
:0c42ac0064fb002070140000801400006f
:020000040000fa
:1042b80000b58bb01f4c06ad04f5b6730fcb07c520
:1042c8002b8004ab04f5be7292e8030083e8030078
:1042d80001ab04f5c27494e8070003c323f8022b6a
:1042e800120c1a70144c08250ae0294604a800f09c
:1042f80087fb02f071fd0028fbd0642001f08affe3
:104308002378132bf1d0192b0ad00f2bf5d10e21be
:1043180006a800f075fb02f05ffd0028fbd0ece773
:104328000b2101a800f06cfb02f056fd0028fbd021
:0c433800e3e700bf501300001af900205a
:020000040000fa
:104344002de9ff41836946690093f61acde90161bd
:1043540004461746039216444ff002086d4642463f
:104364002946206802f09af8b04209d1d4e9023211
:10437400c4e905331a44a262384604b0bde8f081aa
:1043840000280dda6268002342f01002b8f1020f2f
:10439400a362c4e90533626015d06b68ff1aebe7ca
:1043a4006b68984288bf0835a6eb000688bfc01a20
:1043b4002b6803442b606b68a3eb000088bf08f1f3
:0a43c400ff386860cbe71f46d6e71c
:020000040000fa
:0243ce00704736
:020000040000fa
:1043d00008b5194b9847194b9847eff3108172b6ff
:1043e000174ad2f8883043f47003c2f88830bff31c
:1043f0004f8fbff36f8f01b962b6124a936823f0f3
:10440000010393601346da6812f0010ffbd10d4be4
:1044100024225a6001229a60fff74cfa0a4b23f0db
:104420007f03074a9360094b9847094b9847094b0c
:104430009847fcf71bfcfee7cf430000cf4300008a
:1044400000ed00e00060004100000000d9500000d5
:08445000cf430000cf43000040
:020000040000fa
:104458002de9ff471d460c9b13f0010906468a46c5
:10446800144601d195420bd822465146304601f0f8
:1044780035fda54204d82546284604b0bde8f08796
:104488002f1b102f3a464ff0200128bf10226846f4
:10449800b84602f0b9fcb8f10f0f11d83b096ff01c
:1044a8000f0202fb03726946304601f017fdb9f1ad
:1044b800000fe1d122465146304601f00ffddbe7ff
:1044c80010226946304601f009fda8f11008e2e71c
:020000040000fa
:1044d80070b5054602f09efa95f8454064b2002c86
:1044e80011dd6b6a7bb105f1240606e002f0cafc17
:1044f800013c64b23cb16b6a2bb13046fff704f95a
:104508000028f5d0f2e7ff2385f8453002f0fcfbe0
:1045180002f080fa95f8444064b2002c11dd2b6952
:104528007bb105f1100606e002f0acfc013c64b278
:104538003cb12b692bb13046fff7e6f80028f5d0df
:0e454800f2e7ff2385f8443002f0defb70bd81
:020000040000fa
:10455600f8b5eff311864ff0200484f31188bff30a
:104566006f8fbff34f8f856bc46ba54205d3022bac
:1045760003d0002086f31188f8bd1746044690f84c
:1045860045506db2826b1a4600f08bf9b5f1ff3fcc
:104596000cd1636a0bb90120ece704f12400fff7a4
:1045a600b4f868b177b101203860e3e702f065fc42
:1045b600854209d201356db284f845500120d9e70c
:0c45c6000120d7e70120d5e70120d3e752
:020000040000fa
:1045d200842910b523d00cdc812903d0822913d081
:1045e20080290bd119680c1d1c600b6803601a60ce
:1045f20013e0902921d003dc882917d0002010bdb8
:10460200a029efd0c029ece719680c1d1c600b68cb
:104612000360d1171046c3e900010120efe71968d2
:104622000c1d1c600b6803601a80f6e719680c1dec
:104632001c600b6803601a70efe719680c1d1c60a0
:0c46420009680160d317c1e90023e6e716
:020000040000fa
:02464e00fee785
:020000040000fa
:104650001b4b1b7d002b31d010b5194a9368516854
:10466000184a127e12f0010f15d0994213d915493c
:1046700013484a6802f00702012a026814bfd25c9c
:1046800032f813208a62013344680a7e12f0010f67
:1046900001d09c42edd80a4a936052689a420cd8e5
:1046a000074b00221a755a60064a01211175db6812
:1046b0001bb1034b1869db68984710bd704700bffa
:0846c0001cf90020000c00436e
:020000040000fa
:1046c8001b4b1b7d002b31d010b5194a93685168dc
:1046d800184a127e12f0010f15d0994213d91549c4
:1046e80013484a6802f00702012a026814bfd25c24
:1046f80032f813208a62013344680a7e12f0010fef
:1047080001d09c42edd80a4a936052689a420cd86c
:10471800074b00221a755a60064a01211175db6899
:104728001bb1034b1869db68984710bd704700bf81
:084738004cf9002000080043c9
:020000040000fa
:104740001b4b1b7d002b31d010b5194a9368516863
:10475000184a127e12f0010f15d0994213d915494b
:1047600013484a6802f00702012a026814bfd25cab
:1047700032f813208a62013344680a7e12f0010f76
:1047800001d09c42edd80a4a936052689a420cd8f4
:10479000074b00221a755a60064a01211175db6821
:1047a0001bb1034b1869db68984710bd704700bf09
:0847b0007cf90020002001410a
:020000040000fa
:1047b8001b4b1b7d002b31d010b5194a93685168eb
:1047c800184a127e12f0010f15d0994213d91549d3
:1047d80013484a6802f00702012a026814bfd25c33
:1047e80032f813208a62013344680a7e12f0010ffe
:1047f80001d09c42edd80a4a936052689a420cd87c
:10480800074b00221a755a60064a01211175db68a8
:104818001bb1034b1869db68984710bd704700bf90
:08482800acf90020003400404f
:020000040000fa
:104830002de9f84f04460c9f6668d4f80cb0246943
:1048400010463a68013c002502f0020a0b9a0bf868
:104850000450002e1946b8bf0126012390464feaa6
:10486000e279002c03dcd3b12046bde8f88f50ea92
:10487000010209d1721b002a06dc0a9a521b002a87
:10488000f1ddbaf1000feed042464b4601f020feba
:10489000013c134630320bf804200135e1e73b6858
:0848a00023f010033b60dfe789
:020000040000fa
:1048a80070b504461646856b026c5ab903681bb18d
:1048b80000200135a56370bd8068fff79bfb0023ce
:1048c800a360f6e76eb9406802f044fa6368226ca8
:1048d80013446360a268934219d323686360304627
:1048e800e7e7c06802f036fa226c5242e3681344e4
:1048f800e36021688b4202d2a3681a44e260022e68
:1049080001d00020d5e725b1013d0020d1e7304690
:06491800cfe70020cde70f
:020000040000fa
:10491e00f8b5846a05460f46164654b1ab6a6a6905
:10492e009b1ab3420bd2324639462846fff703fd97
:10493e00f8bd02f098f90028f0d02046f8e7002ed6
:10494e00f1d095f93430002b1bdbdbb23446621efe
:10495e00b95c994212d1224639462846fff7ebfc44
:10496e00a042e5d32744341b22463946686902f03b
:10497e00eef96b691c446c613046d9e71446002a87
:06498e00e5d13446f0e71c
:020000040000fa
:1049940000b583b0144b0193002300938022134984
:1049a4001348fdf75dfb012804d0124b1b6803b0cc
:1049b4005df804fb01f03af90128f6d14ff0200329
:1049c40083f31188bff36f8fbff34f8f0a4b4ff000
:1049d400ff321a60094b01221a60094b00221a6047
:1049e40000f0b2ffe1e700bf08fb0020e86e000022
:1049f400f14a00008cfc00200cfb002018fb002076
:044a04001cfb002077
:020000040000fa
:104a080000282ed010b40446184b1b7d5bbb174bf7
:104a18001860596001221a755868154b1b7e13f0ef
:104a2800010f13d0a8b1002311494a6802f0070208
:104a3800012a14bfe25c34f813208a6201330a7e2b
:104a480012f0010f04d09842efd102e0002000e0fc
:104a58001846064b98600120054b98755df8044b85
:104a68007047002070470020f8e700bfacf900202d
:044a780000340040c6
:020000040000fa
:104a7c00f0b50c4649682368a768e56887b000293b
:104a8c000593a4bf23f00203059305ab02930823ff
:104a9c00cde900730646d2e900232046fff7c2fe9b
:104aac00059bd90642bf00f1ff3030232b54059be8
:104abc001a0742bf00f1ff3020232b542269059bbb
:104acc000093013a3b46121a29183046fff7befcf8
:104adc007368db0503d563689842b8bf184607b006
:024aec00f0bd1b
:020000040000fa
:024aee00fee7e1
:020000040000fa
:104af00080b5164c164f174edff860802368bbb1a7
:104b000001f08cfffb68dd68281d01f0bbfe3368f7
:104b1000013b33602368013b236002f0f9f8286b06
:104b200000f094fd284600f091fd2368002be7d1aa
:104b3000094b1b68012be1d94ff08053c8f80030b6
:104b4000bff34f8fbff36f8fd8e700bff8fa002095
:104b50009cfa0020f4fa002000f8002004ed00e0a8
:020000040000fa
:104b600008b502f00df9174b1b680021186802f018
:104b700047f9154b1b680021186802f041f9fef750
:104b800053fdfdf769fb00f05df900f0e3fc00f078
:104b90000bfdfef742fb00f089fc00f0b1fc01f0d8
:104ba000bbfafff79bf901f0ebfa01f0cffa01f045
:104bb00001fb00f035fa00f005fa01f039f9fef7d3
:0c4bc00017f808bda0fb002084fc0020ba
:020000040000fa
:104bcc0008b5174b93f82c30cbb1154bda691b6a2f
:104bdc00934214d2124b986a124a916a1b6a526819
:104bec0002f00702012a0e4a926914bfd15422f82e
:104bfc00131001330a4a1362d2699a4200d008bddd
:104c0c00074b002283f82c20da61064a84211175a7
:104c1c005b6a002bf3d0024b5b6a9847efe700bf4f
:084c2c001cf90020000c0043fc
:020000040000fa
:104c340008b5174b93f82c30cbb1154bda691b6ac6
:104c4400934214d2124b986a124a916a1b6a5268b0
:104c540002f00702012a0e4a926914bfd15422f8c5
:104c6400131001330a4a1362d2699a4200d008bd74
:104c7400074b002283f82c20da61064a842111753f
:104c84005b6a002bf3d0024b5b6a9847efe700bfe7
:084c94004cf900200008004368
:020000040000fa
:104c9c0008b5174b93f82c30cbb1154bda691b6a5e
:104cac00934214d2124b986a124a916a1b6a526848
:104cbc0002f00702012a0e4a926914bfd15422f85d
:104ccc00131001330a4a1362d2699a4200d008bd0c
:104cdc00074b002283f82c20da61064a84211175d7
:104cec005b6a002bf3d0024b5b6a9847efe700bf7f
:084cfc007cf9002000200141b9
:020000040000fa
:104d040010b582b0124801f00dfd124bd3f8a0305b
:104d140013f0007f04d0104801f004fd02b010bd70
:104d240000248df800408df8044023460122694692
:104d34000a480068fef74ef92346012201a90848f3
:104d44000068fef747f9074801f0ecfce6e700bf0e
:104d54009813000000800041b013000068fb00209d
:084d640064fb0020c0130000f5
:020000040000fa
:104d6c0008b5174b93f82c30cbb1154bda691b6a8d
:104d7c00934214d2124b986a124a916a1b6a526877
:104d8c0002f00702012a0e4a926914bfd15422f88c
:104d9c00131001330a4a1362d2699a4200d008bd3b
:104dac00074b002283f82c20da61064a8421117506
:104dbc005b6a002bf3d0024b5b6a9847efe700bfae
:084dcc00acf9002000340040a6
:020000040000fa
:0c4dd400014bb3f840007047001c004386
:020000040000fa
:104de000eff30980bff36f8f154b1a681ef0100f99
:104df00008bf20ed108a20e9f04f10602de909006e
:104e00004ff0200080f31188bff34f8fbff36f8ff7
:104e1000fef7cafe4ff0000080f3118809bc196844
:104e20000868b0e8f04f1ef0100f08bfb0ec108a11
:104e300080f30988bff36f8f704700bfaff3008026
:044e4000e8fa00206c
:020000040000fa
:104e4400144b01221a601a46d369002bfcd1114b72
:104e54004ff480725a601a46d369002bfcd10d4b73
:104e6400ff22da600c4a1a601a46d369002bfcd17f
:104e7400084b10225a831a46d369002bfcd1074be6
:104e8400002283f8212083f82020024b83229a7584
:104e9400704700bf0040014116001000dcf90020fb
:020000040000fa
:104ea40070b505460c4601f0b7fd134b1a6823682c
:104eb400b3f1ff3f1ad06968104800682e68864233
:104ec40005d0914203d80023236001240fe0501a37
:104ed400834203d800232360012408e09b1a0b4477
:104ee4002360284601f0b8fe002400e0002401f00d
:104ef4000dff204670bd00bf1cfb002010fb0020ee
:020000040000fa
:104f040070b5144b144a0021934206d3134a00256a
:104f1400d2e9003123b919b970bd03f8011bf3e7d5
:104f2400946858180c3294b11446834208d111f095
:104f3400030318bf012303eb910102eb8102e7e7ae
:104f440014f8016b03f8016befe703f8015b83428c
:104f5400fbd1dde7000000200000002088020000f3
:020000040000fa
:104f64007fb5c36800911546002b18bf013a019222
:104f740082680446cde902230e460222694600688f
:104f840001f05cfa002808dc00f0180383f0080242
:104f940063681343636005460fe0019a8242fad2c4
:104fa400a368e363801ae268184420642ab15a1c97
:104fb400e2632e441b7806f8013c284604b070bd19
:020000040000fa
:104fc400154b01221a801a46136b13f0010ffbd103
:104fd4004ff080131b689a0c02f07002d90a01f496
:104fe400e0610a43c3f302431a430b4ba3f848207e
:104ff4004ff400721a800322da721a724ff4c0520c
:105004009a800222da80072283f82e201a46136b34
:0c501400002bfcd1704700bf00200043bf
:020000040000fa
:10502000154b01221a801a46136b13f0010ffbd1a6
:105030004ff080131b681a0902f07002d90001f4c6
:10504000e0610a43c3f382031a430b4ba3f84820e1
:105050004ff480721a800322da721a724ff4c0522f
:105060009a801022da80072283f82e201a46136bca
:0c507000002bfcd1704700bf001c004367
:020000040000fa
:10507c00f8b5054601f0f8fe0446114b1b68834257
:10508c0005d800232b600e4b1c602046f8bd0d4b41
:10509c001b681a685ab14ff0ff370a4edb68394665
:1050ac00186800f09ffd33681a68002af6d1064a8a
:1050bc00106804490860136001232b60e3e700bf0c
:0c50cc00dcfa0020d4fa0020d8fa002002
:020000040000fa
:1050d8000e4a38b5002313600d4a0e4c13600e4a71
:1050e8000e4d13600e4a13600e4a13600e4a536247
:1050f80013610123936001f097fe01f04cfbac4271
:1051080000d338bd54f8043b9847f8e790fb0020db
:1051180070f800206c0200006cf80020700200009b
:0c51280064f8002068f8002074f80020f3
:020000040000fa
:105134002021222324242525262627272828282819
:10514400292929292a2a2a2a2b2b2b2b2c2c2c2cb3
:105154002c2c2c2c2d2d2d2d2d2d2d2d2e2e2e2e7b
:105164002e2e2e2e2f2f2f2f2f2f2f2f00011702f1
:105174001d1813031e1b190b1408040d1f161c12f3
:0c5184001a0a070c1511090610050f0e81
:020000040000fa
:1051900038b50d46044608b9002038bd43689b0663
:1051a00007d5d0e905239a4216d80023c4e9053370
:1051b000a362d4e90f13994204d20122c91a2068cc
:1051c00001f0b2fe0023c4e90f33002de4d02068c3
:1051d000bde8384001f0a2be0022c36a11469847dc
:0c51e0006369002be1d14ff0ff30d6e7ef
:020000040000fa
:1051ec0008b5144b9b7df3b1124a137edbb2927d52
:1051fc0012f0800f18d10f4a137edbb2927d12f0a1
:10520c00010f04d013f0010f01d0fff71bfa094a6c
:10521c00137edbb2927d12f0040f04d013f0040f56
:10522c0001d0fff7cdfc08bd13f0800fe3d000f0e8
:08523c0071fee0e7000c0043e5
:020000040000fa
:1052440008b5144b9b7df3b1124a137edbb2927df9
:1052540012f0800f18d10f4a137edbb2927d12f048
:10526400010f04d013f0010f01d0fff72bfa094a04
:10527400137edbb2927d12f0040f04d013f0040ffe
:1052840001d0fff7d5fc08bd13f0800fe3d000f088
:0852940061fee0e700080043a1
:020000040000fa
:10529c0008b5144b9b7df3b1124a137edbb2927da1
:1052ac0012f0800f18d10f4a137edbb2927d12f0f0
:1052bc00010f04d013f0010f01d0fff73bfa094a9c
:1052cc00137edbb2927d12f0040f04d013f0040fa6
:1052dc0001d0fff7ddfc08bd13f0800fe3d000f028
:0852ec0051fee0e70020014142
:020000040000fa
:1052f40010b4134a00e01a4613688342fbd3516882
:105304005418a0420ad041684418a3420bd0036049
:10531400904218bf10605df8044b70474068014428
:1053240051601046efe7074c2468a34206d05b683f
:105334001944416013681b680360e9e70460e7e708
:08534400b0fa0020c0fa0020bd
:020000040000fa
:10534c0008b5144b9b7df3b1124a137edbb2927df0
:10535c0012f0800f18d10f4a137edbb2927d12f03f
:10536c00010f04d013f0010f01d0fff71ffa094a07
:10537c00137edbb2927d12f0040f04d013f0040ff5
:10538c0001d0fff7edfc08bd13f0800fe3d000f067
:08539c0015fee0e700340040bb
:020000040000fa
:1053a4002de9ff41134dd1f80080af88adf80c70a2
:1053b40006462868029002aca8798df80e00002aef
:1053c40018bf1446d1e901571a461bb9204601f00b
:1053d40025fd0246002d02dbaa4228bf2a46cdf84d
:1053e40000803b4621463046fff734f804b0bde860
:0853f400f08100bf086f00000a
:020000040000fa
:1053fc0070b5d0e90245a54217d10122a1f12003d5
:10540c00c1f1200622fa06f602fa03f333438a406e
:10541c00db43d6431ab10b490a6832400a605a1c66
:10542c001fbf084a51680b4053604368ac6043f09f
:10543c00010223f00103e5604260c25842f0010210
:08544c00c25070bd28f20020df
:020000040000fa
:10545400f0b50c4649682368a668e76887b0002958
:105464000593a4bf23f00203059305ab02930a231b
:10547400cde900630546d2e900232046fff7d6f9bb
:105484002269059b0093013a3346121a39182846bb
:10549400fef7e0ff6b68db0503d563689842b8bf8d
:0654a400184607b0f0bd40
:020000040000fa
:0254aa00fee71b
:020000040000fa
:1054ac00114b124a1a604ff622029a814ff4403285
:1054bc005a601a46d369002bfcd10b4a136843f08f
:1054cc0002031360d369002bfcd1094b00229a61b3
:1054dc00da611a6283f82c205a621a605a609a6058
:1054ec001a75da60da857047000c0043040110402d
:0454fc001cf9002077
:020000040000fa
:10550000114b124a1a604ff622029a814ff4403230
:105510005a601a46d369002bfcd10b4a136843f03a
:1055200002031360d369002bfcd1094b00229a615e
:10553000da611a6283f82c205a621a605a609a6003
:105540001a75da60da8570470008004304011040dc
:045550004cf90020f2
:020000040000fa
:10555400114b124a1a604ff622029a814ff44032dc
:105564005a601a46d369002bfcd10b4a136843f0e6
:1055740002031360d369002bfcd1094b00229a610a
:10558400da611a6283f82c205a621a605a609a60af
:105594001a75da60da857047002001410401104071
:0455a4007cf900206e
:020000040000fa
:1055a800114b124a1a604ff622029a814ff4403288
:1055b8005a601a46d369002bfcd10b4a136843f092
:1055c80002031360d369002bfcd1094b00229a61b6
:1055d800da611a6283f82c205a621a605a609a605b
:1055e8001a75da60da85704700340040040110400b
:0455f800acf90020ea
:020000040000fa
:1055fc0010b370b506460d4600f0ecfed5b1002494
:10560c000e4a137e13f0040ffbd0538b13f0070fcd
:10561c000bd1536803f00703012b936a14bf335566
:10562c0026f814300134a542ebd1a54214bf00205a
:10563c00012070bd2c46f8e70020704700040043a1
:020000040000fa
:10564c0000b310b5044650f8042c002a02da50f8c6
:10565c00081c01b110bd22f0004240f8042c01f0ee
:10566c0091fb094a54f8043c11680b441360a4f1f3
:10567c000800fff739fe054a136801331360fdf784
:10568c0045f9e7e7704700bfc4fa0020d0fa0020c4
:020000040000fa
:10569c0038b501f0bdf90d4b1b6813b101f032fbad
:1056ac0038bd0b4d284601f0f7fa0a4c204601f0a4
:1056bc00f3fa094b1d60094b1c6000220c210120e0
:1056cc0000f0f4f8014b1860e8e700bfe0fa0020a6
:1056dc0024fa002038fa0020d4fa0020d8fa00204e
:020000040000fa
:1056ec0070b504460d46164601f092f994f8443014
:1056fc005bb2b3f1ff3f04bf002384f8443094f84d
:10570c0045305bb2b3f1ff3f04bf002384f8453052
:10571c0001f0f8faa36b1bb12046fef7d7fe70bd63
:0e572c003246294604f1240000f09afbf4e70f
:020000040000fa
:10573a0013b5836a8df80710044673b16369a26ac8
:10574a00934212d3e36a01220df1070120469847da
:10575a00012806d19df8070005e001f086fa002825
:10576a00ecd04ff0ff3002b010bd9df8070094f95d
:0e577a0034209042e6d05a1c62611870f3e7aa
:020000040000fa
:10578800104b00229a61da610f4b83221a765a680d
:1057980022f480225a601a46d369002bfcd161b1e9
:1057a800084b032283f8202041ea4001064b596246
