:020000040000fa
:10000000f0ff0320411e0000eb2b0000cf2c00006e
:10001000af3200008b330000c33500000000000049
:10002000000000000000000000000000113500008a
:100030001b2f00000000000041240000dd32000002
:10004000232200002322000023220000232200009c
:10005000232200002322000023220000232200008c
:10006000232200002322000023220000232200007c
:1000700023220000c5350000e535000023220000e2
:100080002322000023220000232200000536000066
:10009000a5340000c9340000ed3400008d330000a9
:1000a000232200002322000023220000232200003c
:1000b000232200002322000023220000232200002c
:1000c000232200002322000023220000232200001c
:1000d000232200002322000023220000232200000c
:1000e0002322000023220000000000000000000086
:1000f0000000000023220000232200002322000031
:1001000023220000232200002322000023220000db
:100110002322000023220000a1280000a1280000c3
:10012000a1280000a1280000750b0000750b00003d
:10013000750b0000750b0000232200002322000035
:10014000232200002322000023220000232200009b
:100150002322000023220000492800004928000033
:100160004928000049280000f1270000f12700007d
:10017000f1270000f12700002322000023220000c5
:10018000232200002322000023220000232200005b
:100190000000000023220000232200002322000090
:1001a000232200002322000023220000232200003b
:1001b000232200002322000023220000232200002b
:1001c000232200002322000023220000232200001b
:1001d000232200002322000023220000232200000b
:1001e00023220000232200002322000023220000fb
:1001f00023220000232200002322000023220000eb
:1002000023220000232200002322000023220000da
:1002100023220000232200002322000023220000ca
:1002200023220000232200002322000023220000ba
:1002300023220000232200002322000023220000aa
:10024000232200002322000023220000232200009a
:10025000232200002322000023220000232200008a
:020000040000fa
:10026000f8b500bff8bc08bc9e467047812d000061
:10027000f8b500bff8bc08bc9e4670475d2d000075
:020000040000fa
:10028000a4f900201c0000000000000040f700203e
:10029000c00000000000000078f900202c000000e1
:1002a00000000000e8f8002030000000000000001e
:1002b00018f90020300000000000000048f900207c
:1002c0003000000000000000ccfb00200400000013
:1002d00001000000aaaaaaaa34fa00200400000023
:1002e000000000000000002020ee000000000000e0
:1002f00038fa002004000000000000003cfa002052
:10030000040000000000000040fa0020040000008b
:100310000000000044fa002004000000000000007b
:1003200024fa0020080000000000000048fa002025
:1003300004000000000000004cfa0020040000004f
:100340000000000050fa002004000000000000003f
:1003500000f80020640000000000000054fa0020b3
:10036000040000000000000058fa00200400000013
:10037000000000005cfa0020040000000000000003
:1003800060fa0020040000000000000064fa002071
:100390000400000000000000c0f90020140000006c
:1003a00000000000d4f9002014000000000000004c
:1003b00068fa002004000000000000006cfa002031
:1003c000040000000000000070fa0020040000009b
:1003d0000000000074fa002004000000000000008b
:1003e000e8f90020140000000000000078fa002066
:1003f0000400000000000000fcf9002014000000d0
:100400000000000010fa00201400000000000000ae
:100410007cfa0020040000000000000080fa0020a8
:100420000400000000000000d0fb002004000000d9
:10043000010000000400000084fa00200400000015
:100440000000000088fa0020040000000000000006
:100450003cf6002004010000000000008cfa00209f
:10046000040000000000000090fa002004000000da
:100470000000000094fa00200400000000000000ca
:1004800034f40020080200000000000098fa002068
:1004900004000000000000009cfa0020040000009e
:1004a00000000000a0fa002004000000000000008e
:1004b000a4fa00200400000000000000b4f80020ae
:1004c0003200000000000000a8fa00200400000034
:1004d00000000000acfa0020040000000000000052
:1004e000b0fa00200400000000000000b4fa002070
:1004f0000400000000000000b8fa00200400000022
:1005000000000000bcfa0020040000000000000011
:10051000c0fa00200400000000000000c4fa00201f
:100520000400000000000000c8fa002004000000e1
:1005300000000000ccfa00200400000000000000d1
:10054000d0fa0020040000000000000064f8002041
:100550005000000000000000e0fa00206c000000e5
:1005600001000000ecfa0020e8fa0020ecfa00207c
:10057000000000002500000028ee0020000400001c
:10058000000000000000000000000000000000006b
:10059000000000000000000000000000000000005b
:1005a000df39000000000000000000000000000033
:1005b00000000000c5250000000000000000000051
:1005c000000000000000000000000000000000002b
:1005d00020ee00200804000000000000acfb00201a
:1005e00020000000010000000100000003000000e6
:1005f00000000000000000000000000000000000fb
:10060000000000002cfa00202cfa00200800000056
:1006100000000000d4fa00200400000000000000e8
:1006200028f200200c020000000000004cfb00201b
:100630006000000001000000010000000300000055
:1006400000000000000000000000000000000000aa
:1006500000000000952700000000000000000000de
:1006600000000000cf390000e73900000000000062
:10067000000000000000000000000000000000007a
:10068000000000000000000000000000000000006a
:100690000000000000000000d8fa00200400000064
:1006a00000000000dcfa0020040000000000000050
:1006b000000000000000000044444444444444441a
:020000040000fa
:1006c0002de9804883b0002002f016f9002184480b
:1006d00003f036f90021834803f03ef900218248f7
:1006e00003f034f9002281490a2002f0f1fc0022d3
:1006f0007f490b2002f0ecfc7e4c002221460120b9
:1007000002f0e6fc00222146022002f0e1fc002279
:100710007949072002f0dcfc00227849082002f029
:10072000d7fc00227649092002f0d2fc00224ff4c7
:100730008071012002f0a6fa724b1860002232216b
:10074000012002f09ffa704b186000224ff4807174
:10075000012002f097fa6d4b18606d4d6d4b0193bf
:10076000012400940023802205f178016a4800f0fa
:1007700007f905f18c06dff8f8b1cdf804b0009464
:1007800000234ff400723146644800f0f9f8dff8b6
:10079000e491cdf80490009400234ff400723146a8
:1007a0005f4800f0edf8dff8d081cdf804800094c8
:1007b00000234ff4007205f1a4015a4800f0e0f85c
:1007c000dff8b8a1cdf804a0009400234ff4007224
:1007d00005f1c001544800f0d3f8544b0193009444
:1007e0000023802205f1e001514800f0c9f8514a88
:1007f0000192009400234ff4807205f1f4014e48f9
:1008000000f0bef84d49019100940023802205f5c7
:1008100084714b4800f0b4f805f58e764948019094
:10082000009400234ff400723146474800f0a8f8c6
:10083000464f0197009400234ff40072314644481c
:1008400000f09ef8434f019700940023802205f5a5
:100850009a71414800f094f8404e019600940023ac
:10086000802205f5a6713e4800f08af802213d4835
:1008700002f094fa64213c4802f0d0fa14213b487b
:1008800002f0acfadbf8000001f0a2f8daf80000a0
:1008900001f09ef8d9f8000001f09af8d8f80000ad
:1008a00001f096f8214b186801f092f8214a10687f
:1008b00001f08ef82149086801f08af821480068a3
:1008c00001f086f8214b186801f082f8386801f0d1
:1008d0007ff8306801f07cf801f0dcfcfee700bf37
:1008e000d1380000e1380000f1380000c1380000c4
:1008f000b1380000c1310000a1380000913800007b
:100900008138000090fa0020a0fa002084fa00202c
:100910004c130000c4fa0020352100005d2e0000b9
:1009200065360000853600007d390000bcfa0020e5
:1009300089390000b8fa0020953900009cfa00209f
:10094000a1390000a4fa00202d340000a8fa0020ec
:10095000a5360000b4fa0020ad390000b0fa00203e
:100960007d35000034f400203cf60020b4f800206f
:1009700094fa002098fa00208cfa002088fa0020cf
:020000040000fa
:100980002de9f84307460e4698469500284600f0a4
:1009900023fe002800f0c9808146542000f01cfe90
:1009a0000446002800f08c805422002102f0b0ffa1
:1009b000c4f830902a46a521484602f0a9ff043d1c
:1009c000236b1d4425f007058eb1337884f834304d
:1009d00053b1334604f134010f3613f8012f01f8f7
:1009e000012f0ab1b342f8d1002384f84330089ba9
:1009f000042b28bf04239946e3626364261d304616
:100a000002f0e2ff04f1180002f0deff2461c9f1f8
:100a10000503a361646242463946284602f048fc59
:100a20002060099b03b11c6002f00cfe434a13686e
:100a300001331360424b1b68002b47d0414b1b68ae
:100a40003bb93f4b1b68da6ae36a9a429cbf3c4b56
:100a50001c603d4a136801331360e36a3b49086830
:100a600001229a4002430a60394a03eb830302ebf6
:100a700083035b68a3609968e1604e609e60e06af2
:100a800083001918890055186561515801310344d4
:100a90009b00d15002f0acfe2a4b1b68002b48d0c3
:100aa000274b1b68da6ae36a9a4244d2294b4ff01b
:100ab00080521a60bff34f8fbff36f8f012036e073
:100ac000484602f043f84ff0ff3030e01c4b1c600a
:100ad0001368012bbdd11e4d284602f053fe05f1cf
:100ae000140002f04ffe05f1280002f04bfe05f164
:100af0003c0002f047fe05f1500002f043fe164fa5
:100b0000384602f03ffe154d284602f03bfe1448e1
:100b100002f038fe134802f035fe134802f032feb0
:100b2000124b1f60124b1d6093e74ff0ff30bde882
:100b3000f8830120fbe70120f9e700bf54fa002009
:100b400048fa002078fa002060fa002064fa0020b9
:100b500000f8002004ed00e0c0f90020d4f90020e6
:100b6000e8f9002010fa0020fcf900204cfa0020df
:040b700050fa002017
:020000040000fa
:100b74006c4b9b7d002b00f0d38010b56a4b9c6ab4
:100b8400684b5b8b13f0020f16d0674bff2283f880
:100b94002020022283f82120634b93f820305bb29b
:100ba400b3f1ff3f00f08a805f4b93f820305bb2d3
:100bb400062b00f09c8010bd5a4b5b8b13f0010f89
:100bc40007d0594bff2283f82020022283f82120ea
:100bd400e2e7544b5b8b13f0040f07d0524bff2218
:100be40083f82020012283f82120d5e74e4b93f887
:100bf40020305bb2032b42d0042b10d0022bcbd17c
:100c0400494b1b692bb1484b9888002101f0ecff3c
:100c1400c2e7454b9888012101f0e6ffbce7424a50
:100c2400936912699a420bd03f4a9268d15c3d4a5b
:100c34009162591cd369002bfcd13b4b9961abe702
:100c4400394b5b6973b1384b9b885b0043f00103fc
:100c5400344a5362d369002bfcd1334b032283f80b
:100c6400202099e72f4a536843f440335360d369f3
:100c7400002bfcd12c4b062283f820208ce72a4b36
:100c8400d9695b69013b8b420bd0264ad369002b9f
:100c9400fcd1244b986a244bda6850540131d96151
:100ca4007ae7204a536843f4e0235360d369002b66
:100cb400fcd11d4b062283f82020e6e71a4b0022c4
:100cc40083f82020174a536843f440335360d369b0
:100cd400002bfcd1134b83221a76134b5b6a002b37
:100ce4003ff469af104b5b6a2046984763e70e4bad
:100cf400002283f8202083f821200a4b83221a76cd
:100d04001a46538b03f03003102bfad1064b5b6a5f
:100d1400002b3ff450af044b5b6a204698474ae7e8
:0c0d2400704700bf0040014178f900203a
:020000040000fa
:100d30002de9f04f87b0039003a802f0aff8002828
:100d400003da002007b0bde8f08f039b1b095d1e8e
:100d5000202d0fd9023b5e4ab3f5007f35bf02eb71
:100d6000d30302ebd31313f8045c13f8045c34bf11
:100d7000013511350123a5f12001c5f1200203fa47
:100d800001f923fa02f203fa05f8d8f1000849ea5a
:100d9000020969eb4909cde90089dff84081dff8f4
:100da00030914746d8e90023009902ea010a0199e7
:100db00003ea010b5aea0b0342d1039b05a8103347
:100dc000059302f000fd18b9424b0c221a60b9e7f6
:100dd000d8f80852a84206d0059b103b0593012382
:100de00000f110058360059bea18012143f001031f
:100df000b5f1080442f8083c42f8041cc7f8082280
:100e000045f8043c9dd0204602f00afa88b155f816
:100e1000083c55f8041c23f00103e31a5a6822f039
:100e200001020a445a6055f8041c21f00101625085
:100e30001c462046039902f023fa04f1080081e7da
:100e40005446254bbaf1000f34d1cbf1000000ea33
:100e50000b00434309ebd36393f83c6020363046e4
:100e600002f030fc731c57f8334007ebc303083b18
:100e70009c4297d0272e26dd0235ae4201dc3f2e64
:100e800021d16268039922f00102551a284602f026
:100e9000b5f8864217d1e068a6686318d8609e60ee
:100ea00083609868c36041f0010060505d60a550a8
:100eb0006060bee7caf100002040434309ebd36302
:100ec00093f83c60cbe73146204601f06dfdb0e77a
:100ed00038270000d8fa002029e66b0728f2002006
:020000040000fa
:100ee0002de9f84f584b1b68002b40f0a780574b5b
:100ef0001c6801341c60b4b1554b1b68a3421fd958
:100f00000020544b1b68db6a03eb83039b00524aaf
:100f1000d358022b28bf0120504b1b68002b18bf51
:100f20000120bde8f88f4e4a11684e4b18681060da
:100f300019604d4a13680133136002f063fadbe76e
:100f4000002047498346494d4ff0010e424adff8e1
:100f500004c137e03e4b4ff0ff321a60d1e73c4b03
:100f60001e60cee7de6ad5f800a00efa06f848ea61
:100f70000a08c5f8008006eb860602eb860676684e
:100f80009e60d6f80880c3f80c80c8f80490c6f8b4
:100f90000890d3f82c904fea890606eb090802eb7b
:100fa000880ac3f814a052f8288008f101084e44ba
:100fb00042f82680dcf80080de6ad8f82c309e42a9
:100fc00088bf01200b681b68002bc3d00b68db684f
:100fd000db685e68b442c2d3d3f81480de689f68d1
:100fe000be609f68776003f10409d8f804604e453d
:100ff00004bfde68c8f80460c3f814b0d8f8006015
:10100000013ec8f80060d3f82880b8f1000fa9d0dd
:101010001e6adf69be60df69776003f1180ad8f8dd
:101020000460564504bf1e6ac8f80460c3f828b0bf
:10103000d8f80060013ec8f8006093e70c4a1368d6
:101040000133136000206ce75cfa00207cfa00207a
:101050006cfa002048fa002000f8002080fa0020f6
:101060004cfa002050fa002070fa002064fa0020a8
:0410700074fa0020ee
:020000040000fa
:101074002de9f04702f0e4fa504b1a68013a1a607d
:101084001b68002b40f093804d4b1b680bb9002468
:101094008ee000234b491c464b4801264b4adff89f
:1010a4003ca1dff830c10d68002d5fd0cb68db6850
:1010b400d3f828e0dd691f6aaf601d6adf696f60dd
:1010c40003f11808def80450454504bf1d6acef844
:1010d40004509c62def80050013dcef80050d3f875
:1010e4001480dd689f68bd609f686f6003f1040e23
:1010f400d8f80450754504bfdd68c8f804505c6135
:10110400d8f80050013dc8f80050dd6ad0f80090ce
:1011140006fa05f848ea0908c0f8008005eb8505d9
:1011240002eb85056d689d60d5f80880c3f80c80d6
:10113400c8f804e0c5f808e0d3f82c804fea880525
:1011440005eb080e02eb8e09c3f8149052f82ee05a
:101154000ef1010e454442f825e0daf80050ed6a3c
:10116400df6aaf429fd3ccf800609ce70bb102f07a
:1011740047f9174b1c686cb1164e012501e0013c80
:1011840005d0fff7abfe0028f9d03560f7e7104b28
:1011940000221a600f4b1c6854b10f4b4ff0805261
:1011a4001a60bff34f8fbff36f8f012400e0002458
:1011b40002f01cfb2046bde8f08700bf5cfa00206b
:1011c40054fa0020e8f9002064fa002000f8002016
:1011d40074fa002080fa002004ed00e048fa0020b0
:020000040000fa
:1011e400514b00221a7403f50063504a9a621a465e
:1011f400536813f0100ffbd14d4b4222c3f88420e7
:101204001a46d2f8843013f0400ffad0494b00222a
:101214009a6377225a631a46d36b13f0040ffbd1f7
:10122400444b022283f830201a46d36b13f0020f8a
:10123400fbd1404a136c03f00303032bfad13e4b5a
:1012440001225a711a46d37813f0010ffbd0384ba0
:101254003a4a1a621a46536813f0040ffbd1344b0e
:10126400374a5a621a46536813f0080ffbd1304bc1
:101274004122c3f890201a46d2f8903013f0400f60
:10128400fad02b4b4122c3f8dc201a46d2f8dc30ca
:1012940013f0400ffad0264b4122c3f8e0201a463f
:1012a400d2f8e03013f0400ffad0214b4122c3f8ba
:1012b4000c211a46d2f80c3113f0400ffad01c4b13
:1012c4004122c3f810211a46d2f8103113f0400f0e
:1012d400fad0174b4122c3f814211a46d2f814311c
:1012e40013f0400ffad0124b4122c3f820211a46c2
:1012f400d2f8203113f0400ffad00d4b4122c3f83d
:1013040024211a46d2f8243113f0400ffad00a4ba4
:101314006ff07f421a6140f2ff725a61094a9a6182
:101324004ff4c7721a62704700140040060130007f
:10133400001c0040001000400008004007010100ac
:081344000701020056860100ba
:020000040000fa
:10134c0047415445204f50454e0d0000534d4f4bd7
:10135c00452044455445435445440d00494d4420d3
:10136c00484947480d000000454d455247454e43fe
:10137c005920425554544f4e2050524553534544d6
:10138c000d000000425554544f4e20484947480d1b
:10139c0000000000425554544f4e204c4f570d0046
:1013ac00494e2050484153450d0000004f555420e4
:1013bc0050484153450d0000537461727444656686
:1013cc0061756c745461736b00000000537461722e
:1013dc00744553505f524543454956455461736bb0
:1013ec0000000000537461727441435f44435f4dcd
:1013fc00455445525f53454e445461736b00000095
:10140c00537461727441435f44435f4d455445527c
:10141c005f524543454956455461736b00000000cb
:10142c00537461727454454d505f48554d49546125
:10143c00736b0000537461727454454d505f41449a
:10144c00435461736b000000537461727447554ec2
:10145c005f54454d505461736b00000053746172be
:10146c0074484d495f524543454956455461736b29
:10147c00000000005374617274534d4f4b455f5321
:10148c00454e53455461736b0000000053746172f8
:10149c00744d414348494e455f5354415445546142
:0414ac00736b00005e
:020000040000fa
:1014b00030b44749cb6823f4e0631b041b0c43f0b2
:1014c000bf6343f40033cb60bff35f8f62b6e022ab
:1014d00081f823203f4b83f80d234ff40050186010
:1014e00083f80e234ff480441c6083f813234ff4d9
:1014f00000241c6083f814234ff480141c6083f8cc
:1015000015234ff400141c6083f816234ff4800554
:101510001d6083f817234ff400041c6083f8362302
:101520005d6083f837235c6083f838234ff0807464
:101530005c6083f839234ff000745c6083f83a23d1
:101540004ff080645c6083f83b234ff000645c6084
:1015500083f83c234ff080545c6083f83d234ff0c8
:1015600000545c6083f8462340249c6083f8472342
:1015700080249c6083f848234ff480749c6083f837
:1015800049234ff400749c6083f84a234ff480642d
:101590009c6083f84b234ff400649c6083f84c23d9
:1015a0004ff480549c6083f84d2398604b6a43f459
:1015b00080234b624b6943f010034b614b6a43f449
:1015c00000334b624b6a43f480334b6230bc70474c
:0815d00000ed00e000e100e085
:020000040000fa
:1015d80070b5044602f048f93d4b1b689bb1002cde
:1015e8003bd004f00703c3f11003da43a24234d31b
:1015f800e3182bd4002b30d0364a16689e422fd3de
:1016080035490c6831e0354a12f0070f1bd0d11d5f
:1016180021f0070102f56e4320335b1a0a462e4873
:101628000260002141601344083b23f00703284867
:10163800036059601960991a51601360284b19604a
:10164800244b1960cbe74ef62063e8e7fff70efd61
:1016580002f0e7f80025284670bdfff707fdf7e719
:10166800fff704fdf4e72146144662689a4202d265
:101678002268002af7d1164a1268a2421fd00d68c4
:10168800083522680a606268d21a102a1ad8636874
:10169800f61a104a1660124a126896423cbf104a5f
:1016a800166043f000436360002323600d4a13680b
:1016b80001331360fff7dafc002dccd1c8e7fff740
:1016c800d5fcc5e7e0184260636001f03df9dee74c
:1016d80034fa002038fa002024fa00200000002004
:0816e8003cfa002040fa00204a
:020000040000fa
:1016f0002de9f04385b00446884601920026354620
:10170000dff8f89035e04146204601f025ff7b1eca
:10171000a36323692bb902f06bf8012005b0bde883
:10172000f08304f1100000f0e7f80028f3d0334b09
:101730004ff080521a60bff34f8fbff36f8feae70d
:1017400002f056f80020e9e702a801f0f7ff1ae0de
:10175000204600f0fbfbfff78dfc09e0204600f07f
:10176000f5fbfff787fc204602f022f8002842d163
:10177000012601f067ffa76b002fc4d1019b002b4e
:10178000ded0002ee0d002f033f802f071f801f064
:1017900059ff94f844305bb2b3f1ff3f08bf84f8bf
:1017a000445094f845305bb2b3f1ff3f08bf84f872
:1017b000455002f01df801a902a800f0a3fe002880
:1017c000ccd1204601f0f4ff0028c1d0019904f1ea
:1017d000240001f0a5ff204600f0b8fbfff74afc0b
:1017e0000028c5d14ff08053c9f80030bff34f8fa8
:1017f000bff36f8fbce7002090e700bf04ed00e06f
:020000040000fa
:101800002de9f84300286ad050f8043ca0f1080400
:1018100023f00106a719a259934200d0ffde7a688f
:1018200023681340da070fd4204601f0f9fc0028a2
:1018300057d1384601f068fd0028f0d07b6823f0ce
:1018400001031e441f44eae746f00103636030468b
:101850003b6001f0d3fb054601f034ff23687a6852
:101860001340db07e0d5dff88ce0dee90089c5f145
:10187000200ca5f1200228fa05f009fa0cfc29fa3f
:1018800002f240ea0c001043012100ea01020023a9
:101890001343c5f120007346a5f1200212d121faad
:1018a00000f001fa02f2a94042ea00021ebfdef88f
:1018b00000000143cef8001022b1def804100a4304
:1018c000cef80420681c03ebc003a3f10802666095
:1018d0003e60a2605a68e2605c60e3689c60bde8bc
:1018e000f883236823f00103e41a636823f00103fb
:0818f0001e449ee728f20020cf
:020000040000fa
:1018f80030b4c368db689a6ad869196a8160d869a4
:10190800486003f118005168814204bf196a5160a8
:1019180000219962116801391160254a1268002a6c
:1019280039d15a699868d968816098684860181de3
:101938005168814204bfd96851600021596111681a
:1019480001391160da6a1b4c25680121914029434d
:101958002160194902eb820201eb820252689a6007
:101968009468dc6060609060dc6aa20010198000f6
:101978000d185d61085801302244920088500f4ac2
:101988001168da6acb6a9a4283bf01200c4b18604f
:10199800002030bc70470b4a5168d9618c681c62c2
:1019a800606088609a62116801311160e7e700bfe2
:1019b8005cfa002064fa002000f8002048fa0020b1
:0819c80080fa0020e8f900207c
:020000040000fa
:1019d00038b5044601f036fe7cb3251d284601f0db
:1019e000a9fd70b9e26a02eb82039b002449cb583f
:1019f0003bb924480368012101fa02f223ea0202fa
:101a00000260a36a1bb104f1180001f093fd29469e
:101a10001d4801f0c2fe94f85030dbb2012b04bf28
:101a2000002384f8503001f0e3fe184b1b683bb9eb
:101a3000174b1b68a3420ad038bd154b1c68cce776
:101a400001f000fe01f0defc01f0d2fef0e70f4bea
:101a50001b6843b10f4b4ff080521a60bff34f8f9a
:101a6000bff36f8fe8e7084b1a680b4b1b689a426d
:101a700003d1074b00221a60dee700f067f8dbe7ce
:101a800000f8002064fa0020fcf9002078fa002019
:0c1a900048fa002004ed00e054fa0020a9
:020000040000fa
:101a9c0070b504460e46234b1d68234b1868043062
:101aac0001f042fd48b9204b1a6820490b68d06af6
:101abc000122824023ea02030b60b4f1ff3f0dd0f8
:101acc002c44194b1b685c60a5421dd9184b186837
:101adc00154b1968043101f0c1fa70bd002eefd01e
:101aec00144a5168104b1868816018688c68c4607f
:101afc001868043060601868043088601b685a618c
:101b0c00136801331360e8e70b4b1868064b196830
:101b1c00043101f0a3fa094b1b68a34284bf074ba5
:101b2c001c60dae77cfa002048fa002064fa0020f6
:101b3c0050fa0020fcf900204cfa00206cfa00202e
:020000040000fa
:101b4c00244b1b681bb1244b01221a60704710b543
:101b5c00214b00221a60214b1b681b6b1a68b2f1d7
:101b6c00a53f03d15a68b2f1a53f23d01b4b18688f
:101b7c001968343101f04afe194b1b68b3fa83f330
:101b8c00dbb2c3f11f03174a9900c81802eb80009f
:101b9c00446864684460194402460832944212d086
:101bac0003eb83030f4a02eb83035b68da680b4b8e
:101bbc001a6010bd9a68b2f1a53fd7d1db68b3f1ba
:101bcc00a53fd3d1d8e760680a46064901eb8202eb
:101bdc005060e5e75cfa002080fa002048fa00200b
:081bec0064fa002000f800205b
:020000040000fa
:101bf40038b5224b1b68834209d040b1044601f03a
:101c04001ffd62691e4b9a4202d001f0effd38bd00
:101c1400a36a1c4a9342f8d0002bf6d1251d28460e
:101c240001f086fce36a1849086801229a400243dd
:101c34000a60164a03eb830302eb83035b68a36029
:101c44009968e1604d609d60e06a8300191889001d
:101c5400551865615158013103449b00d150074b1d
:101c64001b68e26adb6a9a42cfd3094b4ff0805279
:101c74001a60bff34f8fbff36f8fc6e748fa002097
:101c8400fcf90020e8f9002064fa002000f80020a4
:041c940004ed00e07b
:020000040000fa
:101c980000283ed038b50446c36b002b3bd0006cff
:101ca800a0fb03230bb1002036e00d4601f0c6fc73
:101cb8002268216ce36b03fb01f3d018a0600020bd
:101cc800a06362605b1a1344e360ff2384f8443026
:101cd80084f84530a5b923691bb901f085fd0120b9
:101ce8001ae004f11000fff703fe0028f5d00b4bb3
:101cf8004ff080521a60bff34f8fbff36f8fece73e
:101d080004f1100001f03afd04f1240001f036fd61
:101d1800e3e700207047002038bd00bf04ed00e075
:020000040000fa
:101d28001f4a137843f001031370536813f0010f2f
:101d3800fbd11b491b4bcb6141f212130b6240f6de
:101d480086730b61184b10221a8101209882022099
:101d580018849a851a87a3f84420a3f850200720ee
:101d6800a3f85c000820a3f868000920a3f8740011
:101d78000a20a3f880000b20a3f88c00a3f8982071
:101d8800a3f8a420a3f8b020a3f8bc200b7843f054
:101d980002030b700a46536813f0020ffbd1704719
:0c1da800002800403003001040f700202d
:020000040000fa
:101db4002de9ff41836946690093f61acde9016173
:101dc40004461746039216444ff002086d464246f5
:101dd4002946206801f03afab04209d1d4e9023226
:101de400c4e905331a44a262384604b0bde8f08160
:101df40000280dda6268002342f01002b8f1020fe5
:101e0400a362c4e90533626015d06b68ff1aebe77f
:101e14006b68984288bf0835a6eb000688bfc01ad5
:101e24002b6803442b606b68a3eb000088bf08f1a8
:0a1e3400ff386860cbe71f46d6e7d1
:020000040000fa
:021e3e007047eb
:020000040000fa
:101e400008b5194b9847194b9847eff3108172b6b4
:101e5000174ad2f8883043f47003c2f88830bff3d1
:101e60004f8fbff36f8f01b962b6124a936823f0a8
:101e7000010393601346da6812f0010ffbd10d4b9a
:101e800024225a6001229a6001f0a7fd0a4b23f038
:101e90007f03074a9360094b9847094b9847094bc2
:101ea0009847fef70dfcfee7cb1f0000cb1f00009c
:101eb00000ed00e00060004100000000dd260000b1
:081ec000cb1f0000cb1f000046
:020000040000fa
:101ec80010b41f4b012283f84c2083f84d2083f86f
:101ed800502083f85120222483f83640332083f899
:101ee800380083f8c22083f8c320052183f8d11075
:101ef80083f8d21083f8d42083f8d52083f8d7202c
:101f080083f8d82083f8d92083f8b100002183f81a
:101f1800b81083f8b91083f8ba0083f8bb1083f8b7
:101f2800bc1083f84a2183f84b2183f8502183f8a9
:101f3800512183f8351183f838415df8044b704717
:041f480000800041d4
:020000040000fa
:101f4c0070b5054601f078fb95f8454064b2002c5d
:101f5c0011dd6b6a7bb105f1240606e001f002fd90
:101f6c00013c64b23cb16b6a2bb13046fff7befc4e
:101f7c000028f5d0f2e7ff2385f8453001f032fc5c
:101f8c0001f05afb95f8444064b2002c11dd2b692a
:101f9c007bb105f1100606e001f0e4fc013c64b2f3
:101fac003cb12b692bb13046fff7a0fc0028f5d0d3
:0e1fbc00f2e7ff2385f8443001f014fc70bdfd
:020000040000fa
:021fca0070475e
:020000040000fa
:101fcc001b4b1b7d002b31d010b5194a93685168ff
:101fdc00184a127e12f0010f15d0994213d91549e7
:101fec0013484a6802f00702012a026814bfd25c47
:101ffc0032f813208a62013344680a7e12f0010f12
:10200c0001d09c42edd80a4a936052689a420cd88f
:10201c00074b00221a755a60064a01211175db68bc
:10202c001bb1034b1869db68984710bd704700bfa4
:08203c00e8f80020000c00434d
:020000040000fa
:102044001b4b1b7d002b31d010b5194a9368516886
:10205400184a127e12f0010f15d0994213d915496e
:1020640013484a6802f00702012a026814bfd25cce
:1020740032f813208a62013344680a7e12f0010f99
:1020840001d09c42edd80a4a936052689a420cd817
:10209400074b00221a755a60064a01211175db6844
:1020a4001bb1034b1869db68984710bd704700bf2c
:0820b40018f9002000080043a8
:020000040000fa
:1020bc001b4b1b7d002b31d010b5194a936851680e
:1020cc00184a127e12f0010f15d0994213d91549f6
:1020dc0013484a6802f00702012a026814bfd25c56
:1020ec0032f813208a62013344680a7e12f0010f21
:1020fc0001d09c42edd80a4a936052689a420cd89f
:10210c00074b00221a755a60064a01211175db68cb
:10211c001bb1034b1869db68984710bd704700bfb3
:08212c0048f9002000200141e8
:020000040000fa
:1021340070b5174c174d05f16c0613e0164b186873
:10214400fff756fd05f1600001f082f900232360da
:10215400124b1b6813b92368013323604ff47a7060
:1021640000f09aff2368032bf2dd0c4b1b68002b55
:10217400f4d10b4b1b680b4a12689b1ada1e012a16
:10218400dcd9063b012be1d8304601f061f9dde7eb
:10219400c0fa00204c130000b0fa0020acfa002072
:0821a400ccfa0020c8fa00206b
:020000040000fa
:1021ac00f8b5846a05460f46164654b1ab6a6a699f
:1021bc009b1ab3420bd2324639462846fff7f4fd40
:1021cc00f8bd01f0c1fa0028f0d02046f8e7002e47
:1021dc00f1d095f93430002b1bdbdbb23446621e98
:1021ec00b95c994212d1224639462846fff7dcfdec
:1021fc00a042e5d32744341b22463946686901f0d6
:10220c0017fb6b691c446c613046d9e71446002af5
:06221c00e5d13446f0e7b5
:020000040000fa
:02222200fee7d5
:020000040000fa
:1022240080b5164c164f174edff860802368bbb19b
:1022340001f006fafb68dd68281d01f079f93368be
:10224400013b33602368013b236001f0cffa286b24
:1022540000f07afc284600f077fc2368002be7d1d5
:10226400094b1b68012be1d94ff08053c8f80030ab
:10227400bff34f8fbff36f8fd8e700bf58fa00202a
:1022840010fa002054fa002000f8002004ed00e0c9
:020000040000fa
:1022940000b583b0124b01930023009380221149af
:1022a4001148fef76bfb012804d0104b1b6803b0e8
:1022b4005df804fb4ff0200383f31188bff36f8fa5
:1022c400bff34f8f0a4b4ff0ff321a60094b0122c4
:1022d4001a60094b00221a6000f0f8fce5e700bf21
:1022e40068fa00203824000025220000d0fb0020da
:0c22f4006cfa002078fa00207cfa002030
:020000040000fa
:1023000008b5174b93f82c30cbb1154bda691b6a23
:10231000934214d2124b986a124a916a1b6a52680d
:1023200002f00702012a0e4a926914bfd15422f822
:10233000131001330a4a1362d2699a4200d008bdd1
:10234000074b002283f82c20da61064a842111759c
:102350005b6a002bf3d0024b5b6a9847efe700bf44
:08236000e8f80020000c004326
:020000040000fa
:1023680008b5174b93f82c30cbb1154bda691b6abb
:10237800934214d2124b986a124a916a1b6a5268a5
:1023880002f00702012a0e4a926914bfd15422f8ba
:10239800131001330a4a1362d2699a4200d008bd69
:1023a800074b002283f82c20da61064a8421117534
:1023b8005b6a002bf3d0024b5b6a9847efe700bfdc
:0823c80018f900200008004391
:020000040000fa
:1023d00008b5174b93f82c30cbb1154bda691b6a53
:1023e000934214d2124b986a124a916a1b6a52683d
:1023f00002f00702012a0e4a926914bfd15422f852
:10240000131001330a4a1362d2699a4200d008bd00
:10241000074b002283f82c20da61064a84211175cb
:102420005b6a002bf3d0024b5b6a9847efe700bf73
:0824300048f9002000200141e1
:020000040000fa
:0824380049444c45000000bfbf
:020000040000fa
:10244000eff30980bff36f8f154b1a681ef0100f62
:1024500008bf20ed108a20e9f04f10602de9090037
:102460004ff0200080f31188bff34f8fbff36f8fc1
:10247000fff76cfb4ff0000080f3118809bc19686e
:102480000868b0e8f04f1ef0100f08bfb0ec108adb
:1024900080f30988bff36f8f704700bfaff30080f0
:0424a00048fa0020d6
:020000040000fa
:1024a400144b01221a601a46d369002bfcd1114b3c
:1024b4004ff480725a601a46d369002bfcd10d4b3d
:1024c400ff22da600c4a1a601a46d369002bfcd149
:1024d400084b10225a831a46d369002bfcd1074bb0
:1024e400002283f8212083f82020024b83229a754e
:1024f400704700bf004001411600100078f9002029
:020000040000fa
:1025040070b505460c4601f09bf8134b1a68236816
:10251400b3f1ff3f1ad06968104800682e688642fc
:1025240005d0914203d80023236001240fe0501a00
:10253400834203d800232360012408e09b1a0b4440
:102544002360284601f0f8f8002400e0002401f09c
:102554004df9204670bd00bf7cfa002070fa0020bf
:020000040000fa
:1025640070b5144b144a0021934206d3134a002534
:10257400d2e9003123b919b970bd03f8011bf3e79f
:10258400946858180c3294b11446834208d111f05f
:10259400030318bf012303eb910102eb8102e7e778
:1025a40014f8016b03f8016befe703f8015b834256
:1025b400fbd1dde7000000200000002080020000c5
:020000040000fa
:1025c4007fb5c36800911546002b18bf013a0192ec
:1025d40082680446cde902230e4602226946006859
:1025e40000f004fe002808dc00f0180383f0080261
:1025f40063681343636005460fe0019a8242fad28e
:10260400a368e363801ae268184420642ab15a1c60
:10261400e2632e441b7806f8013c284604b070bde2
:020000040000fa
:10262400154b01221a801a46136b13f0010ffbd1cc
:102634004ff080131b689a0c02f07002d90a01f45f
:10264400e0610a43c3f302431a430b4ba3f8482047
:102654004ff400721a800322da721a724ff4c052d5
:102664009a800222da80072283f82e201a46136bfe
:0c267400002bfcd1704700bf0020004389
:020000040000fa
:10268000154b01221a801a46136b13f0010ffbd170
:102690004ff080131b681a0902f07002d90001f490
:1026a000e0610a43c3f382031a430b4ba3f84820ab
:1026b0004ff400721a800322da721a724ff4c05279
:1026c0009a800222da80072283f82e201a46136ba2
:0c26d000002bfcd1704700bf001c004331
:020000040000fa
:1026dc000e4a38b5002313600d4a0e4c13600e4a97
:1026ec000e4d13600e4a13600e4a13600e4a53626d
:1026fc0013610123936001f015f901f00af8ac4263
:10270c0000d338bd54f8043b9847f8e7d4fa0020be
:10271c0070f800206c0200006cf8002070020000c1
:0c272c0064f8002068f8002074f8002019
:020000040000fa
:10273800202122232424252526262727282828283f
:10274800292929292a2a2a2a2b2b2b2b2c2c2c2cd9
:102758002c2c2c2c2d2d2d2d2d2d2d2d2e2e2e2ea1
:102768002e2e2e2e2f2f2f2f2f2f2f2f0001170217
:102778001d1813031e1b190b1408040d1f161c1219
:0c2788001a0a070c1511090610050f0ea7
:020000040000fa
:1027940038b50d46044608b9002038bd43689b0689
:1027a40007d5d0e905239a4216d80023c4e9053396
:1027b400a362d4e90f13994204d20122c91a2068f2
:1027c40001f00df90023c4e90f33002de4d0206893
:1027d400bde8384001f0fcb80022c36a11469847ae
:0c27e4006369002be1d14ff0ff30d6e715
:020000040000fa
:1027f00008b5144b9b7df3b1124a137edbb2927d78
:1028000012f0800f18d10f4a137edbb2927d12f0c6
:10281000010f04d013f0010f01d0fff7d7fb094ad5
:10282000137edbb2927d12f0040f04d013f0040f7c
:1028300001d0fff765fd08bd13f0800fe3d000f075
:082840006dfbe0e7000c004312
:020000040000fa
:1028480008b5144b9b7df3b1124a137edbb2927d1f
:1028580012f0800f18d10f4a137edbb2927d12f06e
:10286800010f04d013f0010f01d0fff7e7fb094a6d
:10287800137edbb2927d12f0040f04d013f0040f24
:1028880001d0fff76dfd08bd13f0800fe3d000f015
:082898005dfbe0e700080043ce
:020000040000fa
:1028a00008b5144b9b7df3b1124a137edbb2927dc7
:1028b00012f0800f18d10f4a137edbb2927d12f016
:1028c000010f04d013f0010f01d0fff7f7fb094a05
:1028d000137edbb2927d12f0040f04d013f0040fcc
:1028e00001d0fff775fd08bd13f0800fe3d000f0b5
:0828f0004dfbe0e7002001416f
:020000040000fa
:1028f80008b500f0b1ff124b1b680021186800f002
:10290800fbff104b1b680021186800f0f5fffff76c
:10291800d7fafef763fcfff7c1fd00f0c1f8fff737
:102928008afa00f069f800f091f800f07ffbfff7f1
:10293800f7f9fff7a1fefff771fefef7b5fd08bd39
:08294800e4fa0020c8fb0020a6
:020000040000fa
:1029500010b4134a00e01a4613688342fbd351684f
:102960005418a0420ad041684418a3420bd0036017
:10297000904218bf10605df8044b704740680144f6
:1029800051601046efe7074c2468a34206d05b680d
:102990001944416013681b680360e9e70460e7e7d6
:0829a00024fa002034fa0020a3
:020000040000fa
:1029a80070b5d0e90245a54217d10122a1f1200353
:1029b800c1f1200622fa06f602fa03f333438a40ed
:1029c800db43d6431ab10b490a6832400a605a1ce5
:1029d8001fbf084a51680b4053604368ac6043f01e
:1029e800010223f00103e5604260c25842f001028f
:0829f800c25070bd28f200205e
:020000040000fa
:102a0000114b124a1a604ff622029a814ff440325b
:102a10005a601a46d369002bfcd10b4a136843f065
:102a200002031360d369002bfcd1094b00229a6189
:102a3000da611a6283f82c205a621a605a609a602e
:102a40001a75da60da857047000c00430401104003
:042a5000e8f8002082
:020000040000fa
:102a5400114b124a1a604ff622029a814ff4403207
:102a64005a601a46d369002bfcd10b4a136843f011
:102a740002031360d369002bfcd1094b00229a6135
:102a8400da611a6283f82c205a621a605a609a60da
:102a94001a75da60da8570470008004304011040b3
:042aa40018f90020fd
:020000040000fa
:102aa800114b124a1a604ff622029a814ff44032b3
:102ab8005a601a46d369002bfcd10b4a136843f0bd
:102ac80002031360d369002bfcd1094b00229a61e1
:102ad800da611a6283f82c205a621a605a609a6086
:102ae8001a75da60da857047002001410401104048
:042af80048f9002079
:020000040000fa
:102afc0010b370b506460d4600f044fbd5b100246a
:102b0c000e4a137e13f0040ffbd0538b13f0070ff8
:102b1c000bd1536803f00703012b936a14bf335591
:102b2c0026f814300134a542ebd1a54214bf002085
:102b3c00012070bd2c46f8e70020704700040043cc
:020000040000fa
:102b4c0000b310b5044650f8042c002a02da50f8f1
:102b5c00081c01b110bd22f0004240f8042c00f01a
:102b6c0081fe094a54f8043c11680b441360a4f12b
:102b7c000800fff7e7fe054a136801331360fef700
:102b8c0073fae7e7704700bf38fa002044fa0020d8
:020000040000fa
:102b9c0013b5836a8df80710044673b16369a26a92
:102bac00934212d3e36a01220df1070120469847a4
:102bbc00012806d19df8070005e000f0c5fd0028ae
:102bcc00ecd04ff0ff3002b010bd9df8070094f927
:0e2bdc0034209042e6d05a1c62611870f3e774
:020000040000fa
:022bea00fee704
:020000040000fa
:102bec00104b00229a61da610f4b83221a765a68d5
:102bfc0022f480225a601a46d369002bfcd161b1b1
:102c0c00084b032283f8202041ea4001064b59620d
:102c1c001a46d369002bfcd17047024b042283f86f
:0c2c2c002020f1e778f900200040014171
:020000040000fa
:102c3800022a70b5044616461d461ad043689b06fc
:102c480017d441b9002d08bf4ff4806505f108007d
:102c5800fef76af801466368012e43f020036360bb
:102c6800c4e9021514bfff230a2384f83430024b49
:0c2c7800e362002070bd00bfad21000031
:020000040000fa
:102c840070b5d8b10546a0fb0132d2b901fb00f002
:102c940010f1490f17d80c464830fef79bfc064646
:102ca40068b114b100f1480300e003463360f563f2
:102cb400346401213046fef7edff00e00026304683
:0a2cc40070bd0026fbe70026f9e7cb
:020000040000fa
:022cce00fee71f
:020000040000fa
:102cd00010b50e4b1a6842f460021a601a6842f08e
:102ce00060421a6000f07afb0024094b1c6000f07f
:102cf00075fd084a136843f04043136000f05afb27
:102d0000fef724ff00f08efc204610bd20ed00e011
:082d1000ccfb002034ef00e0d1
:020000040000fa
:102d1800d0b110b40446c9b1084421460c4a6442f3
:102d2800137e13f0010ffbd0536803f00703012b48
:102d380014bf0b7834f81130936201318142efd11e
:102d480001205df8044b7047002070470120f8e728
:042d58000004004330
:020000040000fa
:102d5c0010b5054c227832b9044b13b10448aff3cb
:102d6c0000800123237010bda4f900200000000096
:102d7c000000000008b5034b1bb103490348aff337
:102d8c00008008bd00000000a8f900200000000031
:020000040000fa
:102d9c00b8b138b505460c4a92f82c200ab100207f
:102dac0038bd0c4600f0a6f9074b9d61dc61002292
:102dbc001a62012083f82c00da85044b84229a7560
:102dcc00eee70020704700bfe8f80020000c00433d
:020000040000fa
:102ddc00b8b138b505460c4a92f82c200ab100203f
:102dec0038bd0c4600f09ef9074b9d61dc6100225a
:102dfc001a62012083f82c00da85044b84229a7520
:102e0c00eee70020704700bf18f9002000080043cf
:020000040000fa
:102e1c00b8b138b505460c4a92f82c200ab10020fe
:102e2c0038bd0c4600f096f9074b9d61dc61002221
:102e3c001a62012083f82c00da85044b84229a75df
:102e4c00eee70020704700bf48f900200020014148
:020000040000fa
:102e5c0008b50c4d0c4c0d4e09e002212846fff72d
:102e6c0097ff3068fef7aefd012000f011f92b78ca
:102e7c00612bf2d14ff000531c605c609c60dc60f5
:102e8c00ebe700bf34f400204d43485094fa002087
:020000040000fa
:102e9c000c4a036810b5546a0b4a591e121b8a421d
:102eac000ad22bb1094b0c221a604ff0ff3010bd27
:102ebc00102202600020fae7173323f00f0303609f
:102ecc00f8e700bf74f80020efffff7fd8fa00206e
:020000040000fa
:102edc0010b44c68a40602460b4603d45df8044bb0
:102eec0000f06ab891f93410c0b2814203d059692c
:102efc009c6aa14205d3114618465df8044bfff7b6
:0e2f0c0047be4c1c5c610a705df8044b7047b8
:020000040000fa
:022f1a00fee7d0
:020000040000fa
:102f1c000b4b5b8b13f0070300d1704710b5094cba
:102f2c00e38500f0e7f8064b84221a75002384f839
:102f3c002c30636a13b1a06a636a984710bd00bf56
:082f4c00000c0043e8f800202e
:020000040000fa
:102f54000b4b5b8b13f0070300d1704710b5094c82
:102f6400e38500f0e3f8064b84221a75002384f805
:102f74002c30636a13b1a06a636a984710bd00bf1e
:082f84000008004318f90020c9
:020000040000fa
:102f8c000b4b5b8b13f0070300d1704710b5094c4a
:102f9c00e38500f0dff8064b84221a75002384f8d1
:102fac002c30636a13b1a06a636a984710bd00bfe6
:082fbc000020014148f900204a
:020000040000fa
:102fc40007b54a68c0b2d2050b468df8070006d58e
:102fd4004a69511c5961107003b05df804fb012269
:102fe4000df10701184600f0bffb10b19df8070072
:082ff400f2e74ff0ff30efe7b8
:020000040000fa
:102ffc0000090138202813d9b0f5007f05d2094b00
:10300c0003ebd00010f8040c7047b0f5e05f06d865
:10301c00044b03ebd01010f8040c103070473f2019
:08302c00704700bf38270000c7
:020000040000fa
:103034000a4b0b4a1a604ff622029a814ff440322f
:103044005a601a46d369002bfcd1044a136843f032
:1030540002031360d369002bfcd1704700040043c2
:043064000401104013
:020000040000fa
:1030680030b40d68b5f1ff3f02d000f1080202e06c
:10307800026904e01a4653681c68ac42fad95368de
:103088004b6099608a60516008610368013303608e
:0430980030bc704791
:020000040000fa
:10309c0010b540b90a4b4ff080521a60bff34f8ff6
:1030ac00bff36f8f10bd044600f0dcfb00212046ff
:1030bc00fef7eefcfdf7d8ff0028f3d1eae700bfde
:0430cc0004ed00e02f
:020000040000fa
:1030d00030b400eb4004094b03eb84031b899bb223
:1030e000834201d030bc7047044b44002518ad002a
:1030f0005951204403eb80035a60f3e740f7002066
:020000040000fa
:103100000a4b5b8b13f0070f0ed0084b80221a7608
:1031100007225a831b7e13f0040f05d0034b9a6ad3
:103120001a7e12f0040ffad1704700bf000c004362
:020000040000fa
:103130000a4b5b8b13f0070f0ed0084b80221a76d8
:1031400007225a831b7e13f0040f05d0034b9a6aa3
:103150001a7e12f0040ffad1704700bf0008004336
:020000040000fa
:103160000a4b5b8b13f0070f0ed0084b80221a76a8
:1031700007225a831b7e13f0040f05d0034b9a6a73
:103180001a7e12f0040ffad1704700bf00200141ef
:020000040000fa
:103190000a4b5b8b13f0070f0ed0084b80221a7678
:1031a00007225a831b7e13f0040f05d0034b9a6a43
:1031b0001a7e12f0040ffad1704700bf00040043da
:020000040000fa
:1031c00008b5074800f046f9064bd3f8a03013f4d1
:1031d000003f14bf0448054800f03cf908bd00bf9b
:1031e000741300000080004190130000a013000041
:020000040000fa
:1031f0002de9f843002580460e4617462c4601f17e
:103200000409bc4202db2846bde8f88359f83420a3
:1032100056f83410404600f065fa01340544f0e7f2
:020000040000fa
:1032200070b505462c68e30701d500200fe0204665
:10323000fff7e4fe064600f045fa2868a042f1d107
:1032400020f00100281a3146fff7aefb012070bdc7
:020000040000fa
:103250002de9f843002580460e4617462c4601f11d
:103260000409bc4202db2846bde8f88359f8342043
:1032700056f83410404600f044fa01340544f0e7b3
:020000040000fa
:10328000426822f00102531a102b30b40dd94418b1
:1032900041f0010543f001034550636083504560f0
:0e32a00004f1080030bcfef7abba30bc70473a
:020000040000fa
:0232ae00fee739
:020000040000fa
:1032b0004ff0807340f8043c21f0010140f8081cf5
:1032c000054b40f80c3c40f8202c6ff0020340f80e
:0c32d000243c4438704700bf2536000045
:020000040000fa
:1032dc0008b54ff0200383f31188bff36f8fbff352
:1032ec004f8ffdf7f7fd18b1034b4ff080521a606a
:0c32fc00002383f3118808bd04ed00e0fe
:020000040000fa
:1033080070b505466c68e30701d500200de020463e
:10331800fff770fe064600f0d1f96b68a342f1d1c1
:0c33280028463146fff73cfb012070bd39
:020000040000fa
:10333400074b1968024609b9064919601868064915
:1033440002448a4294bf1a604ff0ff30704700bfb6
:0c335400dcfa0020d8fb0020d8fd00208f
:020000040000fa
:1033600070b5002902fb01f614460d4618bf14463d
:1033700001463246184608bf002400f0f7f986429d
:0a33800018bfb0fbf5f4204670bd45
:020000040000fa
:02338a00fee75c
:020000040000fa
:10338c0008b5074b4ff400625a61064bd3f88430f2
:10339c002bb1044bd3f88800d3f88430984708bd80
:0833ac000028004040f700205a
:020000040000fa
:1033b40008480068006880f308884ff0000080f334
:1033c400148862b661b6bff34f8fbff36f8f00df0f
:0833d40000bf000008ed00e05d
:020000040000fa
:1033dc00054b00221a6005490a60054a054911602f
:1033ec0007221a60704700bf10e000e018e000e010
:0833fc0014e000e0bfd4010061
:020000040000fa
:10340400074b1b681b6823b9064b4ff0ff321a6049
:103414007047034b1b68db681a68024b1a607047dd
:083424004cfa00206cfa0020b4
:020000040000fa
:10342c0008b5074e1425074c29463046fff7d0fc4b
:10343c002068fef7c7fa4ff47a70fff729fef3e71e
:08344c00b4f80020a4fa0020ee
:020000040000fa
:1034540010b5084c2368196800f0a0f8002807dbb1
:1034640023680a20196800f0a5fac00f404210bd75
:083474000120fbe7c8fb00206a
:020000040000fa
:10347c0090f948305a1e1343426880f8483012f0d5
:10348c0004031bbf42f010024260c0e90f334ff03f
:08349c00ff3008bf184670471d
:020000040000fa
:1034a40008b5064b4ff480725a61054b1b6e1bb175
:1034b400034b586e1b6e984708bd00bf00280040a0
:0434c40040f70020ad
:020000040000fa
:1034c80008b5064b4ff400725a61054bdb6e1bb111
:1034d800034b186fdb6e984708bd00bf00280040fb
:0434e80040f7002089
:020000040000fa
:1034ec0008b5064b4ff480625a61054b9b6f1bb1bc
:1034fc00034bd86f9b6f984708bd00bf0028004056
:04350c0040f7002064
:020000040000fa
:10351000074b19680868b0e8f04f80f30988bff3db
:103520006f8f4ff0000080f311887047aff3008079
:0435300048fa002035
:020000040000fa
:103534000369416882688a60416851605a688242be
:1035440004bf82685a60002202611a68013a1a6054
:04355400186870473c
:020000040000fa
:10355800026c72b110b5c3681344c3608468a34297
:1035680024bf0368c3600c46c168204600f062f9b6
:0435780010bd7047cb
:020000040000fa
:10357c0008b5074b01221a600a2000f063f90b20f2
:10358c0000f060f901242046fff782fdfbe700bf45
:04359c00acfa002065
:020000040000fa
:1035a00070b50e46054600f0bbf9334604460246a8
:1035b00001212846fff7d4fe001b18bf4ff0ff3053
:0235c00070bddc
:020000040000fa
:0235c200fee722
:020000040000fa
:1035c40008b5054b02225a61044bdb681bb1034b5f
:1035d4001869db68984708bd0028004040f70020c0
:020000040000fa
:1035e40008b5054b04225a61044b9b691bb1034b7c
:1035f400d8699b69984708bd0028004040f700201f
:020000040000fa
:1036040008b5054b80225a61044b5b6d1bb1034b1b
:10361400986d5b6d984708bd0028004040f7002076
:020000040000fa
:1036240082b0002301934ff0200383f31188bff38a
:103634006f8fbff34f8f019b002bfcd002b07047fc
:020000040000fa
:103644004ff0200383f31188bff36f8fbff34f8fc5
:10365400024a136801331360704700bfccfb00209b
:020000040000fa
:1036640000b5c1b0054d0024224669462868fef71e
:103674003df80120fff710fdf6e700bf90fa0020a7
:020000040000fa
:1036840000b5c1b0054d0024224669462868fef7fe
:103694002df80120fff700fdf6e700bf84fa0020b3
:020000040000fa
:1036a40000b58fb0054d0024224601a92868fef715
:1036b4001df80120fff7f0fcf6e700bfa0fa002098
:020000040000fa
:1036c400064b013053f830203ab9c100a1f1080289
:1036d4001a44194443f830204a60704728f2002005
:020000040000fa
:1036e40038b550b952b10c46012529462046fff79a
:0e36f40003fa0028f9d0012000e0002038bdc4
:020000040000fa
:1037020038b50d461446012801d0204638bd214661
:0c3712002846fff700fb0028f9d0f6e77e
:020000040000fa
:02371e007047f2
:020000040000fa
:1037200010b50c46044b19681831fff79dfc0121b8
:0c3730002046fef7b3f910bd48fa002057
:020000040000fa
:10373c00034b1b680360034b1b684360704700bf5f
:08374c0070fa00207cfa002055
:020000040000fa
:1037540010b50446fff790fe28b9a368e268c4e9ef
:0837640005331344a36210bdfc
:020000040000fa
:10376c0010b4c46a1cb123465df8044b18470068ba
:08377c005df8044bfff7bfbf2d
:020000040000fa
:1037840000f1080343604ff0ff328260c3600361bd
:06379400002303607047f2
:020000040000fa
:10379a0043684b609a688a6051609960086103685f
:0637aa00013303607047cb
:020000040000fa
:1037b00010b50446fff746ffa46b00f019f8b4fa01
:0637c00084f0400910bd79
:020000040000fa
:1037c6000068002808b501da002008bdfff7affd44
:0637d600431cfad1f8e7e4
:020000040000fa
:1037dc00dff80c00016841f47001016070470000d3
:0437ec0088ed00e084
:020000040000fa
:1037f000034a1368013b13600bb983f311887047c8
:04380000ccfb0020dd
:020000040000fa
:1038040008b500f0dbf8024b1860586008bd00bf33
:043814002cfa00206a
:020000040000fa
:103818004ff0200383f31188bff36f8fbff34f8fef
:02382800fee7b9
:020000040000fa
:10382a004ff0200383f31188bff36f8fbff34f8fdd
:02383a00fee7a7
:020000040000fa
:10383c0010b500239a4200d110bdcc5cc4540133a6
:02384c00f8e79b
:020000040000fa
:02384e007047c1
:020000040000fa
:10385000012303fa00f0014bd860704700280040b4
:020000040000fa
:10386000024b40f204521a80704700bf00400041f2
:020000040000fa
:10387000024a136801331360704700bf5cfa0020ee
:020000040000fa
:1038800008b50248fff7e6fd08bd00bf4c13000075
:020000040000fa
:1038900008b50248fff7defd08bd00bf5813000061
:020000040000fa
:1038a00008b50248fff7d6fd08bd00bf6813000049
:020000040000fa
:1038b00008b500f057f8014b186008bdccfa00209d
:020000040000fa
:1038c00008b500f04ff8014b186008bdc8fa002099
:020000040000fa
:1038d00008b5024b1868fef78df908bd94fa002070
:020000040000fa
:1038e00008b5024b1868fef785f908bd88fa002074
:020000040000fa
:1038f00008b5024b1868fef77df908bda4fa002050
:020000040000fa
:1039000000294ff480630cbf02220022fff794b914
:020000040000fa
:1039100002440346934200d1704703f8011bf9e7c4
:020000040000fa
:1039200003461a46013311780029fad1101a70475c
:020000040000fa
:1039300008b5fff767fffff78afffff788ff08bdad
:020000040000fa
:0c394000014b586299627047e8f80020c3
:020000040000fa
:0c394c00014b58629962704718f9002086
:020000040000fa
:0c395800014b58629962704748f900204a
:020000040000fa
:0c396400014b1868704700bf7cfa00207f
:020000040000fa
:0c397000014b01221a60704780fa002011
:020000040000fa
:0c397c0008b501242046fff78bfbfbe799
:020000040000fa
:0c39880008b564242046fff785fbfbe730
:020000040000fa
:0c39940008b564242046fff77ffbfbe72a
:020000040000fa
:0c39a00008b564242046fff779fbfbe724
:020000040000fa
:0c39ac0008b564242046fff773fbfbe71e
:020000040000fa
:0839b80008b5fff78ffa08bd06
:020000040000fa
:0839c000004870474cfb002099
:020000040000fa
:0639c800002303617047bb
:020000040000fa
:0639ce000068fff797be40
:020000040000fa
:0639d4004ff0ff307047c8
:020000040000fa
:0439da00fef7c3bd74
:020000040000fa
:0439de00002070470e
:020000040000fa
:0439e200002070470a
:020000040000fa
:0239e600704728
:020000040000fa
:0200000400807a
:044000003912003c35
:020000040000fa
:0200000400807a
:044004008000a82a66
:020000040000fa
:0200000400807a
:04400800ffffffffb8
:00000001FF
