:020000040000fa
:10000000f0ff0320e11c0000d32a0000b72b000002
:1000100067310000433200002f3400000000000070
:10002000000000000000000000000000813300001c
:10003000032e000000000000d122000095310000d6
:100040004720000047200000472000004720000014
:100050004720000047200000472000004720000004
:1000600047200000472000004720000047200000f4
:1000700047200000472000004720000047200000e4
:1000800047200000472000004720000047200000d4
:1000900047200000472000005d330000453200008b
:1000a00047200000472000004720000047200000b4
:1000b00047200000472000004720000047200000a4
:1000c0004720000047200000472000004720000094
:1000d0004720000047200000472000004720000084
:1000e0004720000047200000000000000000000042
:1000f00000000000472000004720000047200000cb
:100100004720000047200000472000004720000053
:1001100047200000472000008927000089270000b1
:1001200089270000892700002d0b00002d0b0000ff
:100130002d0b00002d0b0000472000004720000081
:100140004720000047200000472000004720000013
:100150004720000047200000312700003127000021
:100160003127000031270000d9260000d9260000e1
:10017000d9260000d92600004720000047200000b3
:1001800047200000472000004720000047200000d3
:10019000000000004720000047200000472000002a
:1001a00047200000472000004720000047200000b3
:1001b00047200000472000004720000047200000a3
:1001c0004720000047200000472000004720000093
:1001d0004720000047200000472000004720000083
:1001e0004720000047200000472000004720000073
:1001f0004720000047200000472000004720000063
:100200004720000047200000472000004720000052
:100210004720000047200000472000004720000042
:100220004720000047200000472000004720000032
:100230004720000047200000472000004720000022
:100240004720000047200000472000004720000012
:100250004720000047200000472000004720000002
:020000040000fa
:10026000f8b500bff8bc08bc9e467047692c00007a
:10027000f8b500bff8bc08bc9e467047452c00008e
:020000040000fa
:10028000a4f900201c0000000000000040f700203e
:10029000c00000000000000078f900202c000000e1
:1002a00000000000e8f8002030000000000000001e
:1002b00018f90020300000000000000048f900207c
:1002c0003000000000000000ccfb00200400000013
:1002d00001000000aaaaaaaa34fa00200400000023
:1002e0000000000038fa00200400000000000000b8
:1002f0003cfa0020040000000000000000f800208c
:10030000640000000000000040fa0020040000002b
:100310000000000044fa002004000000000000007b
:1003200048fa002004000000000000004cfa002001
:10033000040000000000000050fa0020040000004b
:1003400000000000c0f900201400000000000000c0
:10035000d4f90020140000000000000054fa00202e
:10036000040000000000000058fa00200400000013
:10037000000000005cfa0020040000000000000003
:1003800060fa00200400000000000000e8f90020ee
:10039000140000000000000064fa002004000000c7
:1003a00000000000fcf90020140000000000000024
:1003b00010fa0020140000000000000068fa00207d
:1003c00004000000000000006cfa0020040000009f
:1003d00000000000d0fb002004000000010000002d
:1003e0000400000070fa002004000000000000007b
:1003f00074fa002004000000000000003cf6002019
:10040000040100000000000078fa00200400000051
:10041000000000007cfa0020040000000000000042
:1004200080fa0020040000000000000034f40020e6
:10043000080200000000000084fa00200400000010
:100440000000000088fa0020040000000000000006
:100450008cfa0020040000000000000090fa002048
:100460000400000000000000b4f80020320000008a
:100470000000000094fa00200400000000000000ca
:1004800098fa002004000000000000009cfa002000
:100490000400000000000000a0fa0020040000009a
:1004a00000000000a4fa002004000000000000008a
:1004b000a8fa00200400000000000000acfa0020b0
:1004c0000400000000000000b0fa0020040000005a
:1004d00000000000b4fa002004000000000000004a
:1004e000b8fa00200400000000000000bcfa002060
:1004f00004000000000000000000002020ee0000ca
:1005000000000000c0fa002004000000000000000d
:10051000c4fa00200400000000000000c8fa002017
:100520000400000000000000ccfa002004000000dd
:100530000000000024fa0020080000000000000075
:10054000d0fa0020040000000000000064f8002041
:100550005000000000000000e0fa00206c000000e5
:1005600001000000ecfa0020e8fa0020ecfa00207c
:10057000000000002500000028ee0020000400001c
:10058000000000000000000000000000000000006b
:10059000000000000000000000000000000000005b
:1005a000a73700000000000000000000000000006d
:1005b00000000000552400000000000000000000c2
:1005c000000000000000000000000000000000002b
:1005d00020ee00200804000000000000acfb00201a
:1005e00020000000010000000100000003000000e6
:1005f00000000000000000000000000000000000fb
:10060000000000002cfa00202cfa00200800000056
:1006100000000000d4fa00200400000000000000e8
:1006200028f200200c020000000000004cfb00201b
:100630006000000001000000010000000300000055
:1006400000000000000000000000000000000000aa
:10065000000000002526000000000000000000004f
:10066000000000009b370000af37000000000000d2
:10067000000000000000000000000000000000007a
:10068000000000000000000000000000000000006a
:100690000000000000000000d8fa00200400000064
:1006a00000000000dcfa0020040000000000000050
:1006b000000000000000000044444444444444441a
:020000040000fa
:1006c0002de9804883b0002002f08af800217648a6
:1006d00003f018f80021754803f020f80021744851
:1006e00003f016f8002273490a2002f065fc00228c
:1006f00071490b2002f060fc00224ff48071012050
:1007000002f034fa6d4b186000223221012002f011
:100710002dfa6b4b186000224ff48071012002f01b
:1007200025fa684b1860684d684b019301240094ca
:100730000023802205f11801654800f0fdf805f15d
:100740002c06dff8e4b1cdf804b0009400234ff498
:10075000007231465f4800f0eff8dff8d091cdf835
:100760000490009400234ff4007231465a4800f080
:10077000e3f8dff8bc81cdf80480009400234ff447
:10078000007205f14401554800f0d6f8dff8a4a145
:10079000cdf804a0009400234ff4007205f160012d
:1007a0004f4800f0c9f84f4b01930094002380227a
:1007b000a9184d4800f0c0f84c4a0192009400235b
:1007c0004ff4807205f19401494800f0b5f84949a9
:1007d000019100940023802205f1a801464800f011
:1007e000abf805f1bc0645480190009400234ff496
:1007f00000723146424800f09ff8424f0197009442
:1008000000234ff4007231463f4800f095f83f4f07
:10081000019700940023802205f1d4013c4800f0a8
:100820008bf83c4e019600940023802205f1ec01e8
:10083000394800f081f80221384802f023fa642197
:10084000374802f05ffa1421364802f03bfadbf831
:10085000000001f053f8daf8000001f04ff8d9f881
:10086000000001f04bf8d8f8000001f047f81d4bec
:10087000186801f043f81d4a106801f03ff81d495f
:10088000086801f03bf81d48006801f037f81d4b7f
:10089000186801f033f8386801f030f8306801f07a
:1008a0002df801f041fcfee795360000a53600006a
:1008b000b536000085360000753600007cfa002051
:1008c0008cfa002070fa00202c150000b0fa0020ed
:1008d000b9200000452d00005134000071340000a3
:1008e00041370000a8fa00204d370000a4fa00208c
:1008f0005937000088fa00206537000090fa002080
:10090000e532000094fa002091340000a0fa0020a3
:10091000713700009cfa00204135000034f40020bb
:100920003cf60020b4f8002080fa002084fa002071
:0809300078fa002074fa00209f
:020000040000fa
:100938002de9f84307460e4698469500284600f0ec
:10094800ddfc002800f0c9808146542000f0d6fc68
:100958000446002800f08c805422002102f0b6fee4
:10096800c4f830902a46a521484602f0affe043d5f
:10097800236b1d4425f007058eb1337884f8343095
:1009880053b1334604f134010f3613f8012f01f83f
:10099800012f0ab1b342f8d1002384f84330089bf1
:1009a800042b28bf04239946e3626364261d30465e
:1009b80002f0ecfe04f1180002f0e8fe2461c9f12f
:1009c8000503a361646242463946284602f0c8fb23
:1009d8002060099b03b11c6002f026fd434a13689e
:1009e80001331360424b1b68002b47d0414b1b68f7
:1009f8003bb93f4b1b68da6ae36a9a429cbf3c4b9f
:100a08001c603d4a136801331360e36a3b49086878
:100a180001229a4002430a60394a03eb830302eb3e
:100a280083035b68a3609968e1604e609e60e06a3a
:100a3800830019188900551865615158013103441c
:100a48009b00d15002f0d2fd2a4b1b68002b48d0e6
:100a5800274b1b68da6ae36a9a4244d2294b4ff063
:100a680080521a60bff34f8fbff36f8f012036e0bb
:100a7800484601f0dbff4ff0ff3030e01c4b1c60b4
:100a88001368012bbdd11e4d284602f079fd05f1f2
:100a9800140002f075fd05f1280002f071fd05f162
:100aa8003c0002f06dfd05f1500002f069fd164fa3
:100ab800384602f065fd154d284602f061fd1448e0
:100ac80002f05efd134802f05bfd134802f058fd8a
:100ad800124b1f60124b1d6093e74ff0ff30bde8cb
:100ae800f8830120fbe70120f9e700bf40fa002066
:100af80034fa002064fa00204cfa002050fa002052
:100b080000f8002004ed00e0c0f90020d4f900202e
:100b1800e8f9002010fa0020fcf9002038fa00203b
:040b28003cfa002073
:020000040000fa
:100b2c006c4b9b7d002b00f0d38010b56a4b9c6afc
:100b3c00684b5b8b13f0020f16d0674bff2283f8c8
:100b4c002020022283f82120634b93f820305bb2e3
:100b5c00b3f1ff3f00f08a805f4b93f820305bb21b
:100b6c00062b00f09c8010bd5a4b5b8b13f0010fd1
:100b7c0007d0594bff2283f82020022283f8212032
:100b8c00e2e7544b5b8b13f0040f07d0524bff2260
:100b9c0083f82020012283f82120d5e74e4b93f8cf
:100bac0020305bb2032b42d0042b10d0022bcbd1c4
:100bbc00494b1b692bb1484b9888002101f084ffed
:100bcc00c2e7454b9888012101f07effbce7424a01
:100bdc00936912699a420bd03f4a9268d15c3d4aa4
:100bec009162591cd369002bfcd13b4b9961abe74b
:100bfc00394b5b6973b1384b9b885b0043f0010345
:100c0c00344a5362d369002bfcd1334b032283f853
:100c1c00202099e72f4a536843f440335360d3693b
:100c2c00002bfcd12c4b062283f820208ce72a4b7e
:100c3c00d9695b69013b8b420bd0264ad369002be7
:100c4c00fcd1244b986a244bda6850540131d96199
:100c5c007ae7204a536843f4e0235360d369002bae
:100c6c00fcd11d4b062283f82020e6e71a4b00220c
:100c7c0083f82020174a536843f440335360d369f8
:100c8c00002bfcd1134b83221a76134b5b6a002b7f
:100c9c003ff469af104b5b6a2046984763e70e4bf5
:100cac00002283f8202083f821200a4b83221a7615
:100cbc001a46538b03f03003102bfad1064b5b6aa8
:100ccc00002b3ff450af044b5b6a204698474ae731
:0c0cdc00704700bf0040014178f9002083
:020000040000fa
:100ce8002de9f04f87b0039003a802f047f80028d9
:100cf80003da002007b0bde8f08f039b1b095d1ed7
:100d0800202d0fd9023b5e4ab3f5007f35bf02ebb9
:100d1800d30302ebd31313f8045c13f8045c34bf59
:100d2800013511350123a5f12001c5f1200203fa8f
:100d380001f923fa02f203fa05f8d8f1000849eaa2
:100d4800020969eb4909cde90089dff84081dff83c
:100d580030914746d8e90023009902ea010a01992f
:100d680003ea010b5aea0b0342d1039b05a810338f
:100d7800059302f026fc18b9424b0c221a60b9e719
:100d8800d8f80852a84206d0059b103b05930123ca
:100d980000f110058360059bea18012143f0010367
:100da800b5f1080442f8083c42f8041cc7f80822c8
:100db80045f8043c9dd0204602f08af988b155f8e0
:100dc800083c55f8041c23f00103e31a5a6822f082
:100dd80001020a445a6055f8041c21f001016250ce
:100de8001c462046039902f0a3f904f1080081e7a4
:100df8005446254bbaf1000f34d1cbf1000000ea7c
:100e08000b00434309ebd36393f83c60203630462c
:100e180002f04afb731c57f8334007ebc303083b47
:100e28009c4297d0272e26dd0235ae4201dc3f2eac
:100e380021d16268039922f00102551a284602f06e
:100e48004df8864217d1e068a6686318d8609e609e
:100e580083609868c36041f0010060505d60a550f0
:100e68006060bee7caf100002040434309ebd3634a
:100e780093f83c60cbe73146204601f005fdb0e72a
:100e8800c8250000d8fa002029e66b0728f20020c0
:020000040000fa
:100e98002de9f84f584b1b68002b40f0a780574ba3
:100ea8001c6801341c60b4b1554b1b68a3421fd9a0
:100eb8000020544b1b68db6a03eb83039b00524af8
:100ec800d358022b28bf0120504b1b68002b18bf9a
:100ed8000120bde8f88f4e4a11684e4b1868106023
:100ee80019604d4a13680133136002f0e3f9dbe738
:100ef800002047498346494d4ff0010e424adff82a
:100f080004c137e03e4b4ff0ff321a60d1e73c4b4b
:100f18001e60cee7de6ad5f800a00efa06f848eaa9
:100f28000a08c5f8008006eb860602eb8606766896
:100f38009e60d6f80880c3f80c80c8f80490c6f8fc
:100f48000890d3f82c904fea890606eb090802ebc3
:100f5800880ac3f814a052f8288008f101084e4402
:100f680042f82680dcf80080de6ad8f82c309e42f1
:100f780088bf01200b681b68002bc3d00b68db6897
:100f8800db685e68b442c2d3d3f81480de689f6819
:100f9800be609f68776003f10409d8f804604e4585
:100fa80004bfde68c8f80460c3f814b0d8f800605d
:100fb800013ec8f80060d3f82880b8f1000fa9d026
:100fc8001e6adf69be60df69776003f1180ad8f826
:100fd8000460564504bf1e6ac8f80460c3f828b008
:100fe800d8f80060013ec8f8006093e70c4a13681f
:100ff8000133136000206ce748fa002068fa0020eb
:1010080058fa002034fa002000f800206cfa00207a
:1010180038fa00203cfa00205cfa002050fa002040
:0410280060fa00204a
:020000040000fa
:10102c002de9f04702f0fef9504b1a68013a1a60ac
:10103c001b68002b40f093804d4b1b680bb90024b0
:10104c008ee000234b491c464b4801264b4adff8e7
:10105c003ca1dff830c10d68002d5fd0cb68db6898
:10106c00d3f828e0dd691f6aaf601d6adf696f6025
:10107c0003f11808def80450454504bf1d6acef88c
:10108c0004509c62def80050013dcef80050d3f8bd
:10109c001480dd689f68bd609f686f6003f1040e6b
:1010ac00d8f80450754504bfdd68c8f804505c617d
:1010bc00d8f80050013dc8f80050dd6ad0f8009017
:1010cc0006fa05f848ea0908c0f8008005eb850522
:1010dc0002eb85056d689d60d5f80880c3f80c801f
:1010ec00c8f804e0c5f808e0d3f82c804fea88056e
:1010fc0005eb080e02eb8e09c3f8149052f82ee0a3
:10110c000ef1010e454442f825e0daf80050ed6a84
:10111c00df6aaf429fd3ccf800609ce70bb102f0c2
:10112c00c7f8174b1c686cb1164e012501e0013c49
:10113c0005d0fff7abfe0028f9d03560f7e7104b70
:10114c0000221a600f4b1c6854b10f4b4ff08052a9
:10115c001a60bff34f8fbff36f8f012400e00024a0
:10116c0002f042fa2046bde8f08700bf48fa0020a2
:10117c0040fa0020e8f9002050fa002000f8002086
:10118c0060fa00206cfa002004ed00e034fa002034
:020000040000fa
:10119c00514b00221a7403f50063504a9a621a46a6
:1011ac00536813f0100ffbd14d4b4222c3f884202f
:1011bc001a46d2f8843013f0400ffad0494b002273
:1011cc009a6377225a631a46d36b13f0040ffbd140
:1011dc00444b022283f830201a46d36b13f0020fd3
:1011ec00fbd1404a136c03f00303032bfad13e4ba3
:1011fc0001225a711a46d37813f0010ffbd0384be9
:10120c003a4a1a621a46536813f0040ffbd1344b56
:10121c00374a5a621a46536813f0080ffbd1304b09
:10122c004122c3f890201a46d2f8903013f0400fa8
:10123c00fad02b4b4122c3f8dc201a46d2f8dc3012
:10124c0013f0400ffad0264b4122c3f8e0201a4687
:10125c00d2f8e03013f0400ffad0214b4122c3f802
:10126c000c211a46d2f80c3113f0400ffad01c4b5b
:10127c004122c3f810211a46d2f8103113f0400f56
:10128c00fad0174b4122c3f814211a46d2f8143164
:10129c0013f0400ffad0124b4122c3f820211a460a
:1012ac00d2f8203113f0400ffad00d4b4122c3f885
:1012bc0024211a46d2f8243113f0400ffad00a4bed
:1012cc006ff07f421a6140f2ff725a61094a9a61cb
:1012dc004ff4c7721a6270470014004006013000c8
:1012ec00001c0040001000400008004007010100f5
:0812fc00070102005686010003
:020000040000fa
:1013040070b5044602f0acf93d4b1b689bb1002c50
:101314003bd004f00703c3f11003da43a24234d3f1
:10132400e3182bd4002b30d0364a16689e422fd3b4
:1013340035490c6831e0354a12f0070f1bd0d11d36
:1013440021f0070102f56e4320335b1a0a462e484a
:101354000260002141601344083b23f0070328483e
:10136400036059601960991a51601360284b196021
:10137400244b1960cbe74ef62063e8e7fff754fef1
:1013840002f053f90025284670bdfff74dfef7e73c
:10139400fff74afef4e72146144662689a4202d2f5
:1013a4002268002af7d1164a1268a2421fd00d689b
:1013b400083522680a606268d21a102a1ad863684b
:1013c400f61a104a1660124a126896423cbf104a36
:1013d400166043f000436360002323600d4a1368e2
:1013e40001331360fff720fe002dccd1c8e7fff7cf
:1013f4001bfec5e7e0184260636001f01bfadee7fc
:10140400bcfa0020c0fa002024fa002000000020ca
:08141400c4fa0020c8fa002010
:020000040000fa
:10141c002de9f04385b004468846019200263546f6
:10142c00dff8f89035e04146204601f0c7ff7b1eff
:10143c00a36323692bb902f0d7f8012005b0bde8ee
:10144c00f08304f1100000f0e7f90028f3d0334bdf
:10145c004ff080521a60bff34f8fbff36f8feae7e4
:10146c0002f0c2f80020e9e702a802f057f81ae0ef
:10147c00204600f0b3fcfff7d3fd09e0204600f056
:10148c00adfcfff7cdfd204602f08ef8002842d1ce
:10149c00012601f0c7ffa76b002fc4d1019b002bc5
:1014ac00ded0002ee0d002f09ff802f0d5f801f06b
:1014bc00b9ff94f844305bb2b3f1ff3f08bf84f836
:1014cc00445094f845305bb2b3f1ff3f08bf84f849
:1014dc00455002f089f801a902a800f055ff002838
:1014ec00ccd1204602f060f80028c1d0019904f15b
:1014fc00240002f005f8204600f070fcfff790fd88
:10150c000028c5d14ff08053c9f80030bff34f8f7e
:10151c00bff36f8fbce7002090e700bf04ed00e045
:020000040000fa
:10152c00494e2050484153450d0000004f55542062
:10153c0050484153450d0000537461727444656604
:10154c0061756c745461736b0000000053746172ac
:10155c00744553505f524543454956455461736b2e
:10156c0000000000537461727441435f44435f4d4b
:10157c00455445525f53454e445461736b00000013
:10158c00537461727441435f44435f4d45544552fb
:10159c005f524543454956455461736b000000004a
:1015ac00537461727454454d505f48554d495461a4
:1015bc00736b0000537461727454454d505f414419
:1015cc00435461736b000000537461727447554e41
:1015dc005f54454d505461736b000000537461723d
:1015ec0074484d495f524543454956455461736ba8
:1015fc00000000005374617274534d4f4b455f53a0
:10160c00454e53455461736b000000005374617276
:10161c00744d414348494e455f53544154455461c0
:04162c00736b0000dc
:020000040000fa
:1016300010b43c49cb6823f4e0631b041b0c43f05b
:10164000bf6343f40033cb60bff35f8f62b6e02229
:1016500081f82320344b83f816234ff480041c6058
:1016600083f817234ff40000186083f836235c607a
:1016700083f83723586083f838234ff08070586020
:1016800083f839234ff00070586083f83a234ff005
:101690008060586083f83b234ff00060586083f807
:1016a0003c234ff08050586083f83d234ff00050aa
:1016b000586083f846234020986083f847238020b1
:1016c000986083f848234ff48070986083f849232a
:1016d0004ff40070986083f84a234ff4806098605c
:1016e00083f84b234ff40060986083f84c234ff449
:1016f0008050986083f84d234ff400529a604b6af3
:1017000043f480234b624b6943f010034b614b6af7
:1017100043f400334b624b6a43f480334b625df811
:0c172000044b704700ed00e000e100e029
:020000040000fa
:10172c002de9f84300286ad050f8043ca0f10804d5
:10173c0023f00106a719a259934200d0ffde7a6864
:10174c0023681340da070fd4204601f0bffc0028b1
:10175c0057d1384601f02efd0028f0d07b6823f0dd
:10176c0001031e441f44eae746f001036360304660
:10177c003b6001f0b1fb054601f094fe23687a68ea
:10178c001340db07e0d5dff88ce0dee90089c5f11a
:10179c00200ca5f1200228fa05f009fa0cfc29fa14
:1017ac0002f240ea0c001043012100ea010200237e
:1017bc001343c5f120007346a5f1200212d121fa82
:1017cc0000f001fa02f2a94042ea00021ebfdef864
:1017dc0000000143cef8001022b1def804100a43d9
:1017ec00cef80420681c03ebc003a3f1080266606a
:1017fc003e60a2605a68e2605c60e3689c60bde891
:10180c00f883236823f00103e41a636823f00103cf
:08181c001e449ee728f20020a3
:020000040000fa
:1018240030b4c368db689a6ad869196a8160d86978
:10183400486003f118005168814204bf196a51607d
:1018440000219962116801391160254a1268002a41
:1018540039d15a699868d968816098684860181db8
:101864005168814204bfd9685160002159611168ef
:1018740001391160da6a1b4c256801219140294322
:101884002160194902eb820201eb820252689a60dc
:101894009468dc6060609060dc6aa20010198000cb
:1018a4000d185d61085801302244920088500f4a97
:1018b4001168da6acb6a9a4283bf01200c4b186024
:1018c400002030bc70470b4a5168d9618c681c6297
:1018d400606088609a62116801311160e7e700bfb7
:1018e40048fa002050fa002000f8002034fa0020c2
:0818f4006cfa0020e8f9002065
:020000040000fa
:1018fc0038b5044601f096fd7cb3251d284601f051
:10190c004bfd70b9e26a02eb82039b002449cb5871
:10191c003bb924480368012101fa02f223ea0202ce
:10192c000260a36a1bb104f1180001f035fd2946d1
:10193c001d4801f02efe94f85030dbb2012b04bf91
:10194c00002384f8503001f04ffe184b1b683bb954
:10195c00174b1b68a3420ad038bd154b1c68cce74b
:10196c0001f060fd01f0a4fc01f03efef0e70f4b2e
:10197c001b6843b10f4b4ff080521a60bff34f8f6f
:10198c00bff36f8fe8e7084b1a680b4b1b689a4242
:10199c0003d1074b00221a60dee700f067f8dbe7a3
:1019ac0000f8002050fa0020fcf9002064fa002016
:0c19bc0034fa002004ed00e040fa0020a6
:020000040000fa
:1019c80070b504460e46234b1d68234b1868043037
:1019d80001f0e4fc48b9204b1a6820490b68d06a2a
:1019e8000122824023ea02030b60b4f1ff3f0dd0cd
:1019f8002c44194b1b685c60a5421dd9184b18680c
:101a0800154b1968043101f09ffa70bd002eefd014
:101a1800144a5168104b1868816018688c68c46053
:101a28001868043060601868043088601b685a6160
:101a3800136801331360e8e70b4b1868064b196805
:101a4800043101f081fa094b1b68a34284bf074b9c
:101a58001c60dae768fa002034fa002050fa002007
:101a68003cfa0020fcf9002038fa002058fa00203f
:020000040000fa
:101a7800244b1b681bb1244b01221a60704710b518
:101a8800214b00221a60214b1b681b6b1a68b2f1ac
:101a9800a53f03d15a68b2f1a53f23d01b4b186864
:101aa8001968343101f0b6fd194b1b68b3fa83f39a
:101ab800dbb2c3f11f03174a9900c81802eb800074
:101ac800446864684460194402460832944212d05b
:101ad80003eb83030f4a02eb83035b68da680b4b63
:101ae8001a6010bd9a68b2f1a53fd7d1db68b3f18f
:101af800a53fd3d1d8e760680a46064901eb8202c0
:101b08005060e5e748fa00206cfa002034fa00201b
:081b180050fa002000f8002043
:020000040000fa
:101b200038b5224b1b68834209d040b1044601f00e
:101b30007ffc62691e4b9a4202d001f05bfd38bd0a
:101b4000a36a1c4a9342f8d0002bf6d1251d2846e3
:101b500001f028fce36a1849086801229a40024310
:101b60000a60164a03eb830302eb83035b68a360fe
:101b70009968e1604d609d60e06a830019188900f2
:101b8000551865615158013103449b00d150074bf2
:101b90001b68e26adb6a9a42cfd3094b4ff080524e
:101ba0001a60bff34f8fbff36f8fc6e734fa002080
:101bb000fcf90020e8f9002050fa002000f800208d
:041bc00004ed00e050
:020000040000fa
:101bc40000283ed038b50446c36b002b3bd0006cd4
:101bd400a0fb03230bb1002036e00d4601f026fce8
:101be4002268216ce36b03fb01f3d018a060002092
:101bf400a06362605b1a1344e360ff2384f84430fb
:101c040084f84530a5b923691bb901f0f1fc012022
:101c14001ae004f11000fff703fe0028f5d00b4b87
:101c24004ff080521a60bff34f8fbff36f8fece712
:101c340004f1100001f0a6fc04f1240001f0a2fc60
:101c4400e3e700207047002038bd00bf04ed00e04a
:020000040000fa
:101c54002de9ff41836946690093f61acde90161d4
:101c640004461746039216444ff002086d46424656
:101c74002946206801f046fab04209d1d4e902327b
:101c8400c4e905331a44a262384604b0bde8f081c1
:101c940000280dda6268002342f01002b8f1020f46
:101ca400a362c4e90533626015d06b68ff1aebe7e1
:101cb4006b68984288bf0835a6eb000688bfc01a37
:101cc4002b6803442b606b68a3eb000088bf08f10a
:0a1cd400ff386860cbe71f46d6e733
:020000040000fa
:021cde0070474d
:020000040000fa
:101ce00008b5194b9847194b9847eff3108172b616
:101cf000174ad2f8883043f47003c2f88830bff333
:101d00004f8fbff36f8f01b962b6124a936823f009
:101d1000010393601346da6812f0010ffbd10d4bfb
:101d200024225a6001229a6000f0d0fa0a4b23f074
:101d30007f03074a9360094b9847094b9847094b23
:101d40009847fef7bdfcfee7671e0000671e000017
:101d500000ed00e000600041000000006d25000083
:081d6000671e0000671e000071
:020000040000fa
:101d68001d4a137843f001031370536813f0010ff1
:101d7800fbd119490023cb614ff488530b624ff410
:101d880040630b61154b10221a819a821a849a8536
:101d98001a87a3f84420a3f85020a3f85c20a3f8de
:101da8006820a3f874200a20a3f880000b20a3f869
:101db8008c00a3f89820a3f8a420a3f8b020a3f8d7
:101dc800bc200b7843f002030b700a46536813f0eb
:101dd800020ffbd1704700bf0028004040f70020e9
:020000040000fa
:101de80070b5054601f020fb95f8454064b2002c1b
:101df80011dd6b6a7bb105f1240606e001f096fc63
:101e0800013c64b23cb16b6a2bb13046fff706fd6a
:101e18000028f5d0f2e7ff2385f8453001f0e6fb0e
:101e280001f002fb95f8444064b2002c11dd2b69e7
:101e38007bb105f1100606e001f078fc013c64b2c4
:101e48003cb12b692bb13046fff7e8fc0028f5d0f0
:0e1e5800f2e7ff2385f8443001f0c8fb70bdaf
:020000040000fa
:021e66007047c3
:020000040000fa
:101e68001b4b1b7d002b31d010b5194a9368516864
:101e7800184a127e12f0010f15d0994213d915494c
:101e880013484a6802f00702012a026814bfd25cac
:101e980032f813208a62013344680a7e12f0010f77
:101ea80001d09c42edd80a4a936052689a420cd8f5
:101eb800074b00221a755a60064a01211175db6822
:101ec8001bb1034b1869db68984710bd704700bf0a
:081ed800e8f80020000c0043b3
:020000040000fa
:101ee0001b4b1b7d002b31d010b5194a93685168ec
:101ef000184a127e12f0010f15d0994213d91549d4
:101f000013484a6802f00702012a026814bfd25c33
:101f100032f813208a62013344680a7e12f0010ffe
:101f200001d09c42edd80a4a936052689a420cd87c
:101f3000074b00221a755a60064a01211175db68a9
:101f40001bb1034b1869db68984710bd704700bf91
:081f500018f90020000800430d
:020000040000fa
:101f58001b4b1b7d002b31d010b5194a9368516873
:101f6800184a127e12f0010f15d0994213d915495b
:101f780013484a6802f00702012a026814bfd25cbb
:101f880032f813208a62013344680a7e12f0010f86
:101f980001d09c42edd80a4a936052689a420cd804
:101fa800074b00221a755a60064a01211175db6831
:101fb8001bb1034b1869db68984710bd704700bf19
:081fc80048f90020002001414e
:020000040000fa
:101fd000f8b5846a05460f46164654b1ab6a6a697d
:101fe0009b1ab3420bd2324639462846fff732fedf
:101ff000f8bd01f0b1fa0028f0d02046f8e7002e35
:10200000f1d095f93430002b1bdbdbb23446621e75
:10201000b95c994212d1224639462846fff71afe8a
:10202000a042e5d32744341b22463946686901f0b3
:1020300007fb6b691c446c613046d9e71446002ae3
:06204000e5d13446f0e793
:020000040000fa
:02204600fee7b3
:020000040000fa
:1020480080b5164c164f174edff860802368bbb179
:1020580001f0eaf9fb68dd68281d01f09ff9336893
:10206800013b33602368013b236001f0bffa286b12
:1020780000f0dcfc284600f0d9fc2368002be7d1ef
:10208800094b1b68012be1d94ff08053c8f8003089
:10209800bff34f8fbff36f8fd8e700bf44fa00201c
:1020a80010fa002040fa002000f8002004ed00e0bb
:020000040000fa
:1020b80070b5154c154d05f10c060fe0144b18685a
:1020c800fff72afd284601f01df900232360236845
:1020d800013323604ff47a7000f050ff2368032b1c
:1020e800f5dd0c4b1b68002bf1d10b4b1b680b4a21
:1020f80012689b1ada1e012ae0d9063b012be4d8a4
:10210800304601f0fff8e0e7acfa00202c1500009b
:102118009cfa002098fa0020b8fa0020b4fa0020af
:020000040000fa
:1021280000b583b0124b019300230093802211491c
:102138001148fef7fdfb012804d0104b1b6803b0c3
:102148005df804fb4ff0200383f31188bff36f8f12
:10215800bff34f8f0a4b4ff0ff321a60094b012231
:102168001a60094b00221a6000f022fde5e700bf63
:1021780054fa00207c37000049200000d0fb0020e2
:0c21880058fa002064fa002068fa0020d9
:020000040000fa
:1021940008b5174b93f82c30cbb1154bda691b6a91
:1021a400934214d2124b986a124a916a1b6a52687b
:1021b40002f00702012a0e4a926914bfd15422f890
:1021c400131001330a4a1362d2699a4200d008bd3f
:1021d400074b002283f82c20da61064a842111750a
:1021e4005b6a002bf3d0024b5b6a9847efe700bfb2
:0821f400e8f80020000c004394
:020000040000fa
:1021fc0008b5174b93f82c30cbb1154bda691b6a29
:10220c00934214d2124b986a124a916a1b6a526812
:10221c0002f00702012a0e4a926914bfd15422f827
:10222c00131001330a4a1362d2699a4200d008bdd6
:10223c00074b002283f82c20da61064a84211175a1
:10224c005b6a002bf3d0024b5b6a9847efe700bf49
:08225c0018f9002000080043fe
:020000040000fa
:1022640008b5174b93f82c30cbb1154bda691b6ac0
:10227400934214d2124b986a124a916a1b6a5268aa
:1022840002f00702012a0e4a926914bfd15422f8bf
:10229400131001330a4a1362d2699a4200d008bd6e
:1022a400074b002283f82c20da61064a8421117539
:1022b4005b6a002bf3d0024b5b6a9847efe700bfe1
:0822c40048f90020002001414f
:020000040000fa
:0422cc0000f092b8d4
:020000040000fa
:1022d000eff30980bff36f8f154b1a681ef0100fd4
:1022e00008bf20ed108a20e9f04f10602de90900a9
:1022f0004ff0200080f31188bff34f8fbff36f8f33
:10230000fff7bafb4ff0000080f3118809bc196891
:102310000868b0e8f04f1ef0100f08bfb0ec108a4c
:1023200080f30988bff36f8f704700bfaff3008061
:0423300034fa00205b
:020000040000fa
:10233400144b01221a601a46d369002bfcd1114bad
:102344004ff480725a601a46d369002bfcd10d4bae
:10235400ff22da600c4a1a601a46d369002bfcd1ba
:10236400084b10225a831a46d369002bfcd1074b21
:10237400002283f8212083f82020024b83229a75bf
:10238400704700bf004001411600100078f900209a
:020000040000fa
:1023940070b505460c4601f049f8134b1a682368da
:1023a400b3f1ff3f1ad06968104800682e6886426e
:1023b40005d0914203d80023236001240fe0501a72
:1023c400834203d800232360012408e09b1a0b44b2
:1023d4002360284601f0a6f8002400e0002401f060
:1023e40007f9204670bd00bf68fa00205cfa00209f
:020000040000fa
:1023f40070b5144b144a0021934206d3134a0025a6
:10240400d2e9003123b919b970bd03f8011bf3e710
:10241400946858180c3294b11446834208d111f0d0
:10242400030318bf012303eb910102eb8102e7e7e9
:1024340014f8016b03f8016befe703f8015b8342c7
:10244400fbd1dde700000020000000208002000036
:020000040000fa
:102454007fb5c36800911546002b18bf013a01925d
:1024640082680446cde902230e46022269460068ca
:1024740000f018fe002808dc00f0180383f00802be
:1024840063681343636005460fe0019a8242fad2ff
:10249400a368e363801ae268184420642ab15a1cd2
:1024a400e2632e441b7806f8013c284604b070bd54
:020000040000fa
:1024b400154b01221a801a46136b13f0010ffbd13e
:1024c4004ff080131b689a0c02f07002d90a01f4d1
:1024d400e0610a43c3f302431a430b4ba3f84820b9
:1024e4004ff400721a800322da721a724ff4c05247
:1024f4009a800222da80072283f82e201a46136b70
:0c250400002bfcd1704700bf00200043fa
:020000040000fa
:10251000154b01221a801a46136b13f0010ffbd1e1
:102520004ff080131b681a0902f07002d90001f401
:10253000e0610a43c3f382031a430b4ba3f848201c
:102540004ff400721a800322da721a724ff4c052ea
:102550009a800222da80072283f82e201a46136b13
:0c256000002bfcd1704700bf001c0043a2
:020000040000fa
:10256c000e4a38b5002313600d4a0e4c13600e4a08
:10257c000e4d13600e4a13600e4a13600e4a5362de
:10258c0013610123936001f0aff800f0b8ffac4287
:10259c0000d338bd54f8043b9847f8e7d4fa002030
:1025ac0070f800206c0200006cf800207002000033
:0c25bc0064f8002068f8002074f800208b
:020000040000fa
:1025c80020212223242425252626272728282828b1
:1025d800292929292a2a2a2a2b2b2b2b2c2c2c2c4b
:1025e8002c2c2c2c2d2d2d2d2d2d2d2d2e2e2e2e13
:1025f8002e2e2e2e2f2f2f2f2f2f2f2f0001170289
:102608001d1813031e1b190b1408040d1f161c128a
:0c2618001a0a070c1511090610050f0e18
:020000040000fa
:1026240038b50d46044608b9002038bd43689b06fa
:1026340007d5d0e905239a4216d80023c4e9053307
:10264400a362d4e90f13994204d20122c91a206863
:1026540001f0a9f80023c4e90f33002de4d0206869
:10266400bde8384001f09ab80022c36a1146984781
:0c2674006369002be1d14ff0ff30d6e786
:020000040000fa
:10268000144b012283f84c2083f84d2083f850200e
:1026900083f85120222083f83600332183f8381044
:1026a00083f8c22083f8c32083f8d42083f8d52090
:1026b00083f8b11083f8ba1083f84a2183f84b21cc
:1026c00083f8502183f85121002283f8352183f8c3
:0826d000380170470080004151
:020000040000fa
:1026d80008b5144b9b7df3b1124a137edbb2927d91
:1026e80012f0800f18d10f4a137edbb2927d12f0e0
:1026f800010f04d013f0010f01d0fff7b1fb094a15
:10270800137edbb2927d12f0040f04d013f0040f95
:1027180001d0fff73bfd08bd13f0800fe3d000f0b8
:082728006dfbe0e7000c00432b
:020000040000fa
:1027300008b5144b9b7df3b1124a137edbb2927d38
:1027400012f0800f18d10f4a137edbb2927d12f087
:10275000010f04d013f0010f01d0fff7c1fb094aac
:10276000137edbb2927d12f0040f04d013f0040f3d
:1027700001d0fff743fd08bd13f0800fe3d000f058
:082780005dfbe0e700080043e7
:020000040000fa
:1027880008b5144b9b7df3b1124a137edbb2927de0
:1027980012f0800f18d10f4a137edbb2927d12f02f
:1027a800010f04d013f0010f01d0fff7d1fb094a44
:1027b800137edbb2927d12f0040f04d013f0040fe5
:1027c80001d0fff74bfd08bd13f0800fe3d000f0f8
:0827d8004dfbe0e70020014188
:020000040000fa
:1027e00008b500f037ff124b1b680021186800f095
:1027f00069ff104b1b680021186800f063fffff7aa
:102800003ffffef7cbfcfff795fd00f0c1f8fff7a7
:1028100066fa00f069f800f091f800f07ffbfff72e
:10282000a3fafff775fefff745fefef701ff08bdaf
:08283000e4fa0020c8fb0020bf
:020000040000fa
:1028380010b4134a00e01a4613688342fbd3516868
:102848005418a0420ad041684418a3420bd0036030
:10285800904218bf10605df8044b7047406801440f
:1028680051601046efe7074c2468a34206d05b6826
:102878001944416013681b680360e9e70460e7e7ef
:0828880024fa0020bcfa002034
:020000040000fa
:1028900070b5d0e90245a54217d10122a1f120036c
:1028a000c1f1200622fa06f602fa03f333438a4006
:1028b000db43d6431ab10b490a6832400a605a1cfe
:1028c0001fbf084a51680b4053604368ac6043f037
:1028d000010223f00103e5604260c25842f00102a8
:0828e000c25070bd28f2002077
:020000040000fa
:1028e800114b124a1a604ff622029a814ff4403275
:1028f8005a601a46d369002bfcd10b4a136843f07f
:1029080002031360d369002bfcd1094b00229a61a2
:10291800da611a6283f82c205a621a605a609a6047
:102928001a75da60da857047000c0043040110401c
:04293800e8f800209b
:020000040000fa
:10293c00114b124a1a604ff622029a814ff4403220
:10294c005a601a46d369002bfcd10b4a136843f02a
:10295c0002031360d369002bfcd1094b00229a614e
:10296c00da611a6283f82c205a621a605a609a60f3
:10297c001a75da60da8570470008004304011040cc
:04298c0018f9002016
:020000040000fa
:10299000114b124a1a604ff622029a814ff44032cc
:1029a0005a601a46d369002bfcd10b4a136843f0d6
:1029b00002031360d369002bfcd1094b00229a61fa
:1029c000da611a6283f82c205a621a605a609a609f
:1029d0001a75da60da857047002001410401104061
:0429e00048f9002092
:020000040000fa
:1029e40010b370b506460d4600f044fbd5b1002483
:1029f4000e4a137e13f0040ffbd0538b13f0070f12
:102a04000bd1536803f00703012b936a14bf3355aa
:102a140026f814300134a542ebd1a54214bf00209e
:102a2400012070bd2c46f8e70020704700040043e5
:020000040000fa
:102a340000b310b5044650f8042c002a02da50f80a
:102a4400081c01b110bd22f0004240f8042c00f033
:102a540007fe094a54f8043c11680b441360a4f1be
:102a64000800fff7e7fe054a136801331360fef719
:102a7400dbfae7e7704700bfc0fa0020ccfa002079
:020000040000fa
:102a840013b5836a8df80710044673b16369a26aab
:102a9400934212d3e36a01220df1070120469847bd
:102aa400012806d19df8070005e000f053fd002839
:102ab400ecd04ff0ff3002b010bd9df8070094f940
:0e2ac40034209042e6d05a1c62611870f3e78d
:020000040000fa
:022ad200fee71d
:020000040000fa
:102ad400104b00229a61da610f4b83221a765a68ee
:102ae40022f480225a601a46d369002bfcd161b1ca
:102af400084b032283f8202041ea4001064b596227
:102b04001a46d369002bfcd17047024b042283f888
:0c2b14002020f1e778f90020004001418a
:020000040000fa
:102b2000022a70b5044616461d461ad043689b0615
:102b300017d441b9002d08bf4ff4806505f1080096
:102b4000fef7d2f801466368012e43f0200363606c
:102b5000c4e9021514bfff230a2384f83430024b62
:0c2b6000e362002070bd00bfd11f000028
:020000040000fa
:102b6c0070b5d8b10546a0fb0132d2b901fb00f01b
:102b7c0010f1490f17d80c464830fef7bdfb06463e
:102b8c0068b114b100f1480300e003463360f5630b
:102b9c00346401213046fff70ff800e00026304680
:0a2bac0070bd0026fbe70026f9e7e4
:020000040000fa
:022bb600fee738
:020000040000fa
:102bb80010b50e4b1a6842f460021a601a6842f0a7
:102bc80060421a6000f062fb0024094b1c6000f0b0
:102bd80003fd084a136843f04043136000f042fbca
:102be800fef746ff00f00ffc204610bd20ed00e088
:082bf800ccfb002034ef00e0eb
:020000040000fa
:102c0000d0b110b40446c9b1084421460c4a64420c
:102c1000137e13f0010ffbd0536803f00703012b61
:102c200014bf0b7834f81130936201318142efd137
:102c300001205df8044b7047002070470120f8e741
:042c40000004004349
:020000040000fa
:102c440010b5054c227832b9044b13b10448aff3e4
:102c540000800123237010bda4f9002000000000af
:102c64000000000008b5034b1bb103490348aff350
:102c7400008008bd00000000a8f90020000000004a
:020000040000fa
:102c8400b8b138b505460c4a92f82c200ab1002098
:102c940038bd0c4600f0a6f9074b9d61dc610022ab
:102ca4001a62012083f82c00da85044b84229a7579
:102cb400eee70020704700bfe8f80020000c004356
:020000040000fa
:102cc400b8b138b505460c4a92f82c200ab1002058
:102cd40038bd0c4600f09ef9074b9d61dc61002273
:102ce4001a62012083f82c00da85044b84229a7539
:102cf400eee70020704700bf18f9002000080043e9
:020000040000fa
:102d0400b8b138b505460c4a92f82c200ab1002017
:102d140038bd0c4600f096f9074b9d61dc6100223a
:102d24001a62012083f82c00da85044b84229a75f8
:102d3400eee70020704700bf48f900200020014161
:020000040000fa
:102d440008b50c4d0c4c0d4e0ae002212846fff745
:102d540097ff3068fef7d0fd4ff47a7000f010f959
:102d64002b78612bf1d14ff000531c605c609c60a8
:102d7400dc60eae734f400204d43485080fa002038
:020000040000fa
:102d84000c4a036810b5546a0b4a591e121b8a4236
:102d94000ad22bb1094b0c221a604ff0ff3010bd40
:102da400102202600020fae7173323f00f030360b8
:102db400f8e700bf74f80020efffff7fd8fa002087
:020000040000fa
:102dc40010b44c68a40602460b4603d45df8044bc9
:102dd40000f06ab891f93410c0b2814203d0596945
:102de4009c6aa14205d3114618465df8044bfff7cf
:0e2df40047be4c1c5c610a705df8044b7047d2
:020000040000fa
:022e0200fee7e9
:020000040000fa
:102e04000b4b5b8b13f0070300d1704710b5094cd3
:102e1400e38500f0e7f8064b84221a75002384f852
:102e24002c30636a13b1a06a636a984710bd00bf6f
:082e3400000c0043e8f8002047
:020000040000fa
:102e3c000b4b5b8b13f0070300d1704710b5094c9b
:102e4c00e38500f0e3f8064b84221a75002384f81e
:102e5c002c30636a13b1a06a636a984710bd00bf37
:082e6c000008004318f90020e2
:020000040000fa
:102e74000b4b5b8b13f0070300d1704710b5094c63
:102e8400e38500f0dff8064b84221a75002384f8ea
:102e94002c30636a13b1a06a636a984710bd00bfff
:082ea4000020014148f9002063
:020000040000fa
:102eac0007b54a68c0b2d2050b468df8070006d5a7
:102ebc004a69511c5961107003b05df804fb012282
:102ecc000df10701184600f04dfb10b19df80700fd
:082edc00f2e74ff0ff30efe7d1
:020000040000fa
:102ee40000090138202813d9b0f5007f05d2094b19
:102ef40003ebd00010f8040c7047b0f5e05f06d87f
:102f0400044b03ebd01010f8040c103070473f2032
:082f1400704700bfc825000052
:020000040000fa
:102f1c000a4b0b4a1a604ff622029a814ff4403248
:102f2c005a601a46d369002bfcd1044a136843f04b
:102f3c0002031360d369002bfcd1704700040043db
:042f4c00040110402c
:020000040000fa
:102f500030b40d68b5f1ff3f02d000f1080202e085
:102f6000026904e01a4653681c68ac42fad95368f7
:102f70004b6099608a6051600861036801330360a7
:042f800030bc7047aa
:020000040000fa
:102f840010b540b90a4b4ff080521a60bff34f8f0f
:102f9400bff36f8f10bd044600f062fb0021204692
:102fa400fef710fdfef740f80028f3d1eae700bf72
:042fb40004ed00e048
:020000040000fa
:102fb80030b400eb4004094b03eb84031b899bb23c
:102fc800834201d030bc7047044b44002518ad0043
:102fd8005951204403eb80035a60f3e740f700207f
:020000040000fa
:102fe8000a4b5b8b13f0070f0ed0084b80221a7622
:102ff80007225a831b7e13f0040f05d0034b9a6aed
:103008001a7e12f0040ffad1704700bf000c00437b
:020000040000fa
:103018000a4b5b8b13f0070f0ed0084b80221a76f1
:1030280007225a831b7e13f0040f05d0034b9a6abc
:103038001a7e12f0040ffad1704700bf000800434f
:020000040000fa
:103048000a4b5b8b13f0070f0ed0084b80221a76c1
:1030580007225a831b7e13f0040f05d0034b9a6a8c
:103068001a7e12f0040ffad1704700bf0020014108
:020000040000fa
:103078000a4b5b8b13f0070f0ed0084b80221a7691
:1030880007225a831b7e13f0040f05d0034b9a6a5c
:103098001a7e12f0040ffad1704700bf00040043f3
:020000040000fa
:1030a8002de9f843002580460e4617462c4601f1c7
:1030b8000409bc4202db2846bde8f88359f83420ed
:1030c80056f83410404600f0fff901340544f0e7a3
:020000040000fa
:1030d80070b505462c68e30701d500200fe02046af
:1030e800fff7fcfe064600f0dff92868a042f1d1a0
:1030f80020f00100281a3146fff7c6fb012070bdf9
:020000040000fa
:103108002de9f843002580460e4617462c4601f166
:103118000409bc4202db2846bde8f88359f834208c
:1031280056f83410404600f0def901340544f0e763
:020000040000fa
:10313800426822f00102531a102b30b40dd94418fa
:1031480041f0010543f00103455063608350456039
:0e31580004f1080030bcfef7e5ba30bc704749
:020000040000fa
:02316600fee782
:020000040000fa
:103168004ff0807340f8043c21f0010140f8081c3e
:10317800054b40f80c3c40f8202c6ff0020340f857
:0c318800243c4438704700bf0f340000a6
:020000040000fa
:1031940008b54ff0200383f31188bff36f8fbff39b
:1031a4004f8ffdf777fe18b1034b4ff080521a6032
:0c31b400002383f3118808bd04ed00e047
:020000040000fa
:1031c00070b505466c68e30701d500200de0204688
:1031d000fff788fe064600f06bf96b68a342f1d159
:0c31e00028463146fff754fb012070bd6b
:020000040000fa
:1031ec00074b1968024609b906491960186806495f
:1031fc0002448a4294bf1a604ff0ff30704700bf00
:0c320c00dcfa0020d8fb0020d8fd0020d8
:020000040000fa
:1032180070b5002902fb01f614460d4618bf144686
:1032280001463246184608bf002400f09df9864240
:0a32380018bfb0fbf5f4204670bd8e
:020000040000fa
:02324200fee7a5
:020000040000fa
:1032440008b5074b4ff400625a61064bd3f884303b
:103254002bb1044bd3f88800d3f88430984708bdc9
:083264000028004040f70020a3
:020000040000fa
:10326c0008480068006880f308884ff0000080f37d
:10327c00148862b661b6bff34f8fbff36f8f00df58
:08328c0000bf000008ed00e0a6
:020000040000fa
:10329400054b00221a6005490a60054a0549116078
:1032a40007221a60704700bf10e000e018e000e059
:0832b40014e000e0bfd40100aa
:020000040000fa
:1032bc00074b1b681b6823b9064b4ff0ff321a6093
:1032cc007047034b1b68db681a68024b1a60704727
:0832dc0038fa002058fa002026
:020000040000fa
:1032e40008b5074e1425074c29463046fff7e8fc7d
:1032f4002068fef701fb4ff47a70fff741fef3e715
:08330400b4f8002090fa00204b
:020000040000fa
:10330c0010b5084c2368196800f06af8002807db30
:10331c0023680a20196800f02ffac00f404210bd34
:08332c000120fbe7c8fb0020b3
:020000040000fa
:1033340090f948305a1e1343426880f8483012f01e
:1033440004031bbf42f010024260c0e90f334ff088
:08335400ff3008bf1846704766
:020000040000fa
:10335c0008b5064b4ff480625a61054b9b6f1bb14d
:10336c00034bd86f9b6f984708bd00bf00280040e7
:04337c0040f70020f6
:020000040000fa
:10338000074b19680868b0e8f04f80f30988bff36d
:103390006f8f4ff0000080f311887047aff300800b
:0433a00034fa0020db
:020000040000fa
:1033a4000369416882688a60416851605a68824250
:1033b40004bf82685a60002202611a68013a1a60e6
:0433c40018687047ce
:020000040000fa
:1033c800026c72b110b5c3681344c3608468a34229
:1033d80024bf0368c3600c46c168204600f02cf97e
:0433e80010bd70475d
:020000040000fa
:1033ec0070b50e46054600f077f9334604460246a2
:1033fc0001212846fff70aff001b18bf4ff0ff30d2
:02340c0070bd91
:020000040000fa
:10340e0082b0002301934ff0200383f31188bff3a2
:10341e006f8fbff34f8f019b002bfcd002b0704714
:020000040000fa
:02342e00fee7b7
:020000040000fa
:103430004ff0200383f31188bff36f8fbff34f8fdb
:10344000024a136801331360704700bfccfb0020b1
:020000040000fa
:1034500000b5c1b0054d0024224669462868fdf735
:10346000ddff0120fff78efdf6e700bf7cfa0020ac
:020000040000fa
:1034700000b5c1b0054d0024224669462868fdf715
:10348000cdff0120fff77efdf6e700bf70fa0020b8
:020000040000fa
:1034900000b58fb0054d0024224601a92868fdf72c
:1034a000bdff0120fff76efdf6e700bf8cfa00209c
:020000040000fa
:1034b000064b013053f830203ab9c100a1f108029f
:1034c0001a44194443f830204a60704728f200201b
:020000040000fa
:1034d00038b550b952b10c46012529462046fff7b0
:0e34e00081fa0028f9d0012000e0002038bd5c
:020000040000fa
:1034ee0038b50d461446012801d0204638bd214678
:0c34fe002846fff77efb0028f9d0f6e717
:020000040000fa
:02350a00704708
:020000040000fa
:10350c0010b50c46044b19681831fff71bfd01214f
:0c351c002046fef753fa10bd34fa0020e0
:020000040000fa
:10352800034b1b680360034b1b684360704700bf75
:083538005cfa002068fa002093
:020000040000fa
:1035400008b5044b01221a6014462046fff71afd05
:08355000fbe700bf98fa002020
:020000040000fa
:1035580010b50446fff7eafe28b9a368e268c4e993
:0835680005331344a36210bdfa
:020000040000fa
:1035700010b4c46a1cb123465df8044b18470068b8
:083580005df8044bfff7b3bf37
:020000040000fa
:1035880000f1080343604ff0ff328260c3600361bb
:06359800002303607047f0
:020000040000fa
:10359e0043684b609a688a6051609960086103685d
:0635ae00013303607047c9
:020000040000fa
:1035b40010b50446fff73affa46b00f019f8b4fa0b
:0635c40084f0400910bd77
:020000040000fa
:1035ca000068002808b501da002008bdfff709fee7
:0635da00431cfad1f8e7e2
:020000040000fa
:1035e000dff80c00016841f47001016070470000d1
:0435f00088ed00e082
:020000040000fa
:1035f400034a1368013b13600bb983f311887047c6
:04360400ccfb0020db
:020000040000fa
:1036080008b500f0bff8024b1860586008bd00bf4d
:043618002cfa002068
:020000040000fa
:10361c004ff0200383f31188bff36f8fbff34f8fed
:02362c00fee7b7
:020000040000fa
:10362e004ff0200383f31188bff36f8fbff34f8fdb
:02363e00fee7a5
:020000040000fa
:1036400010b500239a4200d110bdcc5cc4540133a4
:02365000f8e799
:020000040000fa
:023652007047bf
:020000040000fa
:10365400024b40f204521a80704700bf0040004100
:020000040000fa
:10366400024a136801331360704700bf48fa002010
:020000040000fa
:1036740008b500f057f8014b186008bdb8fa0020ef
:020000040000fa
:1036840008b500f04ff8014b186008bdb4fa0020eb
:020000040000fa
:1036940008b5024b1868fef741fa08bd80fa00200d
:020000040000fa
:1036a40008b5024b1868fef739fa08bd74fa002011
:020000040000fa
:1036b40008b5024b1868fef731fa08bd90fa0020ed
:020000040000fa
:1036c40000294ff480630cbf02220022fff726bac0
:020000040000fa
:1036d40002440346934200d1704703f8011bf9e703
:020000040000fa
:1036e40003461a46013311780029fad1101a70479b
:020000040000fa
:1036f40008b5fff787fffff7aafffff7a8ff08bd8c
:020000040000fa
:0c370400014b586299627047e8f8002001
:020000040000fa
:0c371000014b58629962704718f90020c4
:020000040000fa
:0c371c00014b58629962704748f9002088
:020000040000fa
:0c372800014b1868704700bf68fa0020d1
:020000040000fa
:0c373400014b01221a6070476cfa002063
:020000040000fa
:0c37400008b501242046fff71dfcfbe744
:020000040000fa
:0c374c0008b564242046fff717fcfbe7db
:020000040000fa
:0c37580008b564242046fff711fcfbe7d5
:020000040000fa
:0c37640008b564242046fff70bfcfbe7cf
:020000040000fa
:0c37700008b564242046fff705fcfbe7c9
:020000040000fa
:08377c0049444c45000000bf68
:020000040000fa
:0837840008b5fff71dfb08bdad
:020000040000fa
:08378c00004870474cfb0020cf
:020000040000fa
:06379400002303617047f1
:020000040000fa
:06379a000068fff7a7be66
:020000040000fa
:0637a0004ff0ff307047fe
:020000040000fa
:0437a6000020704748
:020000040000fa
:0437aa000020704744
:020000040000fa
:0237ae00704762
:020000040000fa
:0200000400807a
:044000003912003c35
:020000040000fa
:0200000400807a
:044004008000a82a66
:020000040000fa
:0200000400807a
:04400800ffffffffb8
:00000001FF
